:10000000005B0020154600003F4A01004546000005
:10001000454600004546000045460000000000003F
:10002000000000000000000000000000DD430000B0
:10003000454600000000000089430000194A010005
:10004000D545000091EC0000D5450000D5450000E5
:10005000D5450000D5450000D5450000D545000038
:10006000D5450000D5450000D5450000D545000028
:10007000D5450000D5450000D5450000D545000018
:10008000D5450000D5450000D5450000D545000008
:10009000D5450000D5450000D5450000D5450000F8
:1000A000D5450000D5450000D5450000D5450000E8
:1000B000D5450000D5450000D5450000D5450000D8
:1000C000D5450000D5450000D5450000D5450000C8
:1000D000D5450000D5450000D5450000D5450000B8
:1000E000D5450000D5450000D5450000D5450000A8
:1000F000D5450000D5450000D5450000D545000098
:1001000053B94AB9002908BF00281CBF4FF0FF317E
:100110004FF0FF3000F06EB9ADF1080C6DE904CE80
:1001200000F006F8DDF804E0DDE9022304B07047D2
:100130002DE9F047089D0E4604468C46002B40F002
:1001400081808A42174645D9B2FA82F24AB1C2F199
:10015000200106FA02F320FA01F1974041EA030C6C
:1001600094404FEA174E230CBCFBFEF6B9B20EFBCF
:1001700016CC43EA0C4306FB01F0984209D9FB1860
:1001800006F1FF3C80F01581984240F21281023E58
:100190003B441B1AA4B2B3FBFEF00EFB103344EA3F
:1001A000034400FB01F1A14209D93C1900F1FF33DE
:1001B00080F00181A14240F2FE8002383C44641A82
:1001C00040EA064000211DB1D4400023C5E90043A8
:1001D000BDE8F08702B9FFDEB2FA82F2002A4FD101
:1001E000CB1B4FEA174E1FFA87F80121B3FBFEFC29
:1001F000260C0EFB1C3346EA034608FB0CF3B34205
:1002000007D9BE190CF1FF3002D2B34200F2EB80E5
:100210008446F61AA3B2B6FBFEF00EFB106643EA64
:10022000064408FB00F8A04507D93C1900F1FF334C
:1002300002D2A04500F2D2801846A4EB080440EA9E
:100240000C40C0E78B4208D9002D00F0AF800021A0
:10025000C5E900060846BDE8F087B3FA83F1002936
:1002600049D1B34202D3824200F2BB80841A66EBCA
:10027000030301209C46002DAAD0C5E9004CA7E746
:10028000C2F120039740D8409140DE404FEA174E1C
:1002900008434FEA104CB6FBFEF11FFA87F80EFB3D
:1002A00011664CEA064601FB08F3B34204FA02F475
:1002B00009D9BE1901F1FF3C80F08E80B34240F2B3
:1002C0008B8002393E44F31A86B2B3FBFEF00EFB7C
:1002D000103346EA034600FB08F3B34207D9BE19C0
:1002E00000F1FF3C74D2B34272D902383E44F31A93
:1002F00040EA01417AE7C1F1200703FA01F422FA4A
:1003000007F31C4320FA07F906FA01F34FEA144CED
:10031000FE4049EA03094FEA1943B6FBFCFE1FFA07
:1003200084F80CFB1E6643EA06460EFB08FAB2454B
:1003300002FA01F200FA01F308D9A6190EF1FF3012
:1003400048D2B24546D9AEF1020E2644A6EB0A06C3
:100350001FFA89F9B6FBFCF00CFB106649EA064669
:1003600000FB08F8B04507D9A61900F1FF3C2DD2D3
:10037000B0452BD90238264440EA0E40A6EB0806C9
:10038000A0FB02894E45C446CE4618D315D075B39E
:10039000B3EB0C0266EB0E0606FA07F722FA01F33E
:1003A000CE401F43C5E90076002111E729462846C3
:1003B0000EE76646EDE6184601E74345E7D2B8EB9F
:1003C000020C69EB04040138A646E0E76046D3E777
:1003D00060468CE78646B9E7614674E702383C44DC
:1003E0002BE7084647E7ACF1020C3E4411E72946EB
:1003F000EEE600BF704700BF2DE9F04FB34C94F814
:10040000D6608FB006F00106002800F0C981CEBB8F
:1004100094F87C7094F8290094F82C204FF0270968
:100420002D2309FB074700F0030019FB0239FF23C6
:1004300084F82A300DF0F2FD94F8D600410707F158
:100440007D0704EB090800F12A8114F80900314600
:10045000C0F3801006F074F906220146054608F143
:10046000020014F019FB29460622B81C14F014FBF4
:1004700014F809305A060AD413F00E0F40F0E78042
:10048000636A93B10C2630460FB0BDE8F08F0621A9
:1004900008F1020004F00EFC002800F02B8214F892
:1004A000093013F00E0FEBD0D1E008F053FF824675
:1004B000002800F03E8208F059FF8346002800F033
:1004C0004A820AF071F90546002800F041824FF691
:1004D000FF73806FAB8505F11C030B93002800F0C0
:1004E000248205F16C0205F1680104F0EFFBB5F818
:1004F0006420774995F840C095F83DE095F8DC0018
:10050000744B2B660A4042F4887242F0010295F85F
:100510002611A5F86420002262F3000C20F00300ED
:1005200021F0030185F840C00EF03F0E4FF01B1C78
:100530006EF07F0E85F8DC0085F826117F20664975
:10054000C5F85CC04FF0060CC5E9132285F83F20C2
:100550006A866A636A65A5F8C820A5F8CC20A5F864
:10056000E82085F8EA20C5F80021A5F80421A5F8BF
:100570001821C5F82021A5F8242185F82F2185F818
:100580003DE085F8C100A5F8C4C0C5F81C11C5F848
:1005900030A1AA6795F872E195F89AC195F87E00A6
:1005A00095F85211A5F87C2062F3C30C62F3041E87
:1005B00021F0070120F01F00A5F85021A5F87021B7
:1005C000A5F89821A5F8A42185F89AC185F872E1CB
:1005D00085F8521185F87E000AF044FCA5F8D60093
:1005E0000AF046FCD5F8A8313C49A5F8D8001940D6
:1005F000C5F8A8110AF042FC95F8AC1160F30201AD
:1006000085F8AC110AF040FCC4E933AB0B9B636284
:1006100095F8AC1195F820C0ED610301002203F0BC
:10062000700321F078010B4362F3000CC5E96E22E0
:10063000C5E96C22C5E90522C5F8C02185F8AC31B1
:1006400085F820C00EF09EFE002840F05F8194F8EF
:1006500028300121C3F342030DA88DF8343004F093
:10066000ADFC002800F0958014F8093003F00F036A
:10067000022B00F1FF3233D0012B00F04B81787850
:100680001030C100002B00F03781062B00F068818C
:100690004FF4DA704FF41B7100FB02102BE0C0F333
:1006A000C000324604F1D7010DF0A6FEFF2884F801
:1006B0002A0002D030460DF071FD414603480DF08E
:1006C000F3FC024839460DF0EFFCD1E6081B002090
:1006D00080F8FFFF48014801FF4901000000FFF6D4
:1006E00098F801301033DB0000FB03F000F5AA702E
:1006F000642303FB020094F82070A74AE4610025FC
:10070000312365F30007A0FB0201236084F8207009
:100710009FA3D3E90023C4E90555C4E90155FFF7B8
:10072000EFFCB4F8D480E06006F004F80746B8F1B6
:10073000000F08D114F8095005F00F05A5F10105C7
:10074000B5FA85F56D0994F82820E36865F3000291
:1007500012F0010584F8282076D0DFF848928F49FE
:100760000493002002250DF1300801930591CDE995
:1007700007980321CDE9020006942A4600903B46E3
:100780000C9505F0C7FE414608F06CFE002800F00D
:100790009E80636A002B3FF475AE09F005F971E69F
:1007A000002E3FF46FAE204608F06AFE844204D06B
:1007B0007B484FF4E56103F089F994F82830D807B5
:1007C0000DAD0ED502220D920321764B009501222C
:1007D000002005F00BFF294608F044FE002840F0F9
:1007E000C980022203216F4B009500200D9205F075
:1007F000FDFE294608F036FE002840F09C806A483D
:1008000008F07AFE002840F08A80684808F044FE2C
:10081000844204D0624840F24A7103F057F9636A97
:100820000BB109F0C1F894F8D63000206FF3000343
:1008300084F8D63009F010FC0646002844D0002683
:1008400030460FB0BDE8F08F59485A4ADFF854E1FE
:10085000DFF848C10694A8FB00014FF0910909FB9D
:10086000081103F24718C2F800804FF00209049300
:1008700009920DF1300846A3D3E900234FF6FF7A21
:10088000CDE907E80295CDF83090CDF814C0CDF849
:100890000CA0FFF735FC4A46CDE900503B46284600
:1008A000032105F0E1FD414608F0DCFD00287FF45E
:1008B00070AF94F8D63043F0010384F8D63009F0D5
:1008C000CBFB0028BBD101200DF086FBDBE53A49CC
:1008D00005914AF2D8320092CDE90798CDE903009C
:1008E000CDE9010006943B46012203210C9505F059
:1008F00011FED8E71226C6E598F801001030C000B6
:1009000000F54D73194400F59A70C5E609F04CF8EE
:100910000326B8E54FF4F2704FF47F71BCE620482F
:1009200040F2477103F0D2F86FE705F17000A86755
:10093000D7E50726A7E51D4808F0AEFD84423FF441
:10094000A1AD174840F2417103F0C0F80C269AE5BA
:10095000584608F011FD504608F002FD072692E5C2
:1009600098F801301033DB0003F54D70014403F5B6
:100970009A7091E60D4808F08FFD84423FF482ADF5
:10098000074840F2337103F0A1F80C267BE500BF65
:100990008D49FD1A0700000000CA9A3BB998000073
:1009A000E85D010059940000241B0020081B002072
:1009B000002AE784E81B002059980000000000008E
:1009C000F8B5194E9DF8184096F8485015F00107F3
:1009D00021D196F832C0DFF854E0A6F84210E400C6
:1009E00004F018040CF0670C44EAC01463F34205E9
:1009F000A2FB0E0144EA0C04912303FB021186F8CA
:100A0000485007A3D3E9002386F83240FFF778FB6C
:100A100070643846F8BD0C273846F8BDAFF3008047
:100A20008D49FD1A070000000C1C0020002AE784F5
:100A3000F8B59DF81840104E0546E400807DEA8424
:100A400004F01804A3FB066700F06700912244EA53
:100A5000C111014302FB0377A97505A3D3E9002364
:100A600030463946FFF74CFBA862F8BDAFF3008073
:100A70008D49FD1A07000000002AE78400000000ED
:100A80002DE9F04F90F83230044600F1350190F82E
:100A9000480003F0F903C0F3400060F386138DB003
:100AA00084F8323005F04CFEB4F8426094F82030FF
:100AB0004F48E4610025A6FB000165F30003912285
:100AC00002FB0611C4E9055584F8203046A3D3E99A
:100AD0000023FFF715FB636C656006460933A6F13A
:100AE000310293424FF03101A56028BF6564216057
:100AF00034BFE360E26005F01DFE656A80460DF1DB
:100B00002C09002D4ED03B4DCDF82090B4F842A0DA
:100B100039493748E268DFF8ECC00492651BAD083C
:100B2000A1FB0535AAFB0001912303FB0A11334BFE
:100B300005934FF0000A2CA3D3E900230227CDF838
:100B40001CC006940B97CDF80CA0FFF7D9FA1046FD
:100B500019464FF47A720023FFF7D2FA6D08043574
:100B6000EDB22A46029043460321CDF800A050463C
:100B7000019605F0CFFC494608F074FC054668B9BB
:100B800094F8483043F0010384F8483009F07CF8C9
:100B90000446F8B128460DB0BDE8F08F0C200DB02A
:100BA000BDE8F08FE1680A954B460AAA03200B9531
:100BB00002F0D6F90B990029A5D011480AA3D3E970
:100BC0000023A1FB0001FFF79BFA0A9B20F07F485E
:100BD000984498E738460DF0FFF920460DB0BDE87F
:100BE000F08F00BFAFF300808D49FD1A07000000B1
:100BF000002AE7840C1C0020BD86F21A519E0000DA
:100C000000CA9A3B599400002DE9F04F0446808DAC
:100C10004FF6FF7398428DB00E46154600F089805E
:100C200094F8E93094F8E80083420ED0C01A00F03E
:100C3000030002281BD094F82D2194F82C319A42FD
:100C400030D100200DB0BDE8F08F94F8527117F04C
:100C50000108F0D194F8051194F804218A4200F0BB
:100C60006383981E012284F8E90084F8EA2094F84E
:100C7000983194F899219A4206D094F89A2102F07A
:100C80000601042900F0948394F8EA707B1E052B7A
:100C900000F24483DFE813F06400DB0282024203C7
:100CA0000503AC012C4803F0BBFF58B394F82C317A
:100CB00084F82D310379022243F00303427103715A
:100CC000C271D4F8B03194F82E2102722BB394F88B
:100CD0005221910721D494F8AB21D2071DD4D4F826
:100CE000BC21934204BF1A68C4F8BC21D4F8B421D3
:100CF000B2B91A68026018600368C4E96D000BB9E4
:100D0000C4F8C001B4F8CC0000289AD1B4F8C630B9
:100D1000012B14D9A4F8CC3093E7D4F8B421A2B1B4
:100D2000D4F8B8311A6802601860C4F8B8010368D2
:100D3000E5E70A4840F2F32102F0C8FE70E701330C
:100D4000A4F8CC300DB0BDE8F08F0360C4E96C00AE
:100D5000C4F8B801D3E700BFF8390020685E01008D
:100D6000DFF82C84D8F80030002B00F09884E78E50
:100D7000628E94F8063117442F4413F00303BFB278
:100D800040F06283B4F8EC90A7EB09021FFA82FAF4
:100D900012043FF550AF94F8701194F8712194F853
:100DA000040184F805018A4294F8E80084F8E90017
:100DB00009D094F8722102F00702052A04BF84F8D2
:100DC0007111A4F8CC30D8F800309C4204BF002345
:100DD000C8F80030D4F80081B8F1000F00F0898520
:100DE000D8F80000002800F08485B4F80831E18DBF
:100DF0004268C4F800218B42B4F80A21B4F80CC14F
:100E000000F08B86A18DA8F806104FF00C0E002183
:100E1000A8F81E30A8F82020A8F822C088F804E01E
:100E200088F81C10414608F0ADFA08F0B5FA2368BE
:100E3000002B09DAD4E9011223F000438A422CBFC7
:100E4000B61876182360F61AE38DB4F8088113FB00
:100E50000AF39BB2B3FBF8F118FB01F292B2934292
:100E60001FFA81FB80F03385D31AC14840F2E24279
:100E700002FB03F3A3FB0001BBA3D3E90023FFF7AD
:100E80003FF920F07F400644638EA9EB07071D441D
:100E900094F93D305F442F4440F2E249002B6786CD
:100EA00009FB08F5C0F26D86D4F81001B049AEA375
:100EB000D3E90023A0FB0101FFF722F920F07F49CD
:100EC00009F10109AA46B4F80C21B4F80A11A94B9A
:100ED000A4F82E8042F2107000FB0252A648218630
:100EE0002B442844B3FBF5F3013AB2FBF5F2B0FB17
:100EF000F5F5A4F8C62098B28A1D9042A4F8D20055
:100F0000A4F8CA5002DD401A063880B294F80631BF
:100F1000A4F8CE005D0744BF0023A4F8C830022126
:100F2000012010F051FE002202218046012003F032
:100F30001BFF92494FF4E472204603F0A7FE451DC3
:100F4000EDB28F4B00942A460121002005F04EFBA4
:100F500030F0020304D08B4840F6581102F0B6FD81
:100F6000834BAAFB03AB50467FA3D3E9002359462A
:100F7000FFF7C6F8844A20F07F47A7FB022307212A
:100F8000BAEB020001FB07336BEB03014FF47A72FB
:100F90000023FFF7B5F8DFF8FCE17C49E268DFF8F1
:100FA000F8C1034694F93D00049211EA200138BFCC
:100FB00071460020029305913346019708940694E8
:100FC000CDF800902A46CDF81CC00390012105F011
:100FD000A1FA30F0020304D06A4840F6721102F020
:100FE00075FDB8F1000F40F0B2856FF0470029E6BB
:100FF000E38E628E94F8EC6013441D44F707ADB2A3
:10100000B34600F10A83B4F8EE20AD1A2F043FF581
:1010100012AE94F8DC2094F8648094F865A094F8FB
:10102000E810B4F8627084F8E910D50708F00708F2
:101030000AF0070A40F19485D4F81C21100540F10C
:101040008F85B4F8D890B9F5296F28BF4FF4296976
:10105000B9F5A47F4FF4296338BF4FF4A4790B93FB
:1010600016F01C0F40F08786B4F8605016F0E00FC1
:101070000CD094F8652094F85E00710961F30202C7
:1010800084F865200B9A09F06BF8074694F8AC21B8
:1010900094F86410D4F80061C2F3C00262F3C30193
:1010A00084F86410002E00F06C873068002800F08F
:1010B000688794F864E094F865104268C4F80021E9
:1010C0001BF0020FCEF3020CC1F302020EF0070E6A
:1010D00001F0070102D1F04500F0EA87A38DF3800B
:1010E00010210023317186F81DC0B2773377314665
:1010F00008F048F9D4F80061002E00F04C87306801
:10110000002800F04887B4F860304268C4F8002135
:10111000AB4209D34B4507D8B4F86230BB4203D386
:101120000B9A934241F2E380A4F86050A4F86270F5
:10113000337FA28DF28043F0030302210922317133
:1011400033777277B4F85E30B4F85C2033841523BB
:10115000B284F37731467784F58408F013F908F008
:101160001BF968E5AFF300808D49FD1A0700000008
:1011700000CA9A3B7FC3C901FF5962026C1C002060
:1011800035A40000685E01008D49FD1AD1D200002F
:10119000EC38002021D4000005A4000094F8EC30C5
:1011A00013F003057FF447ADA54803F039FD06466B
:1011B00000283FF440AD94F93D30002B80F2358596
:1011C00094F8ED50002D00F02D83037994F8DC2085
:1011D00043F00303D207037140F1CD86D4F81C31EC
:1011E0005B0740F1C886112203234572C271037266
:1011F0007771D4F8B031002284F8ED20002B00F094
:101200005B8394F85221950700F1568394F8AB2143
:10121000D00700F15183D4F8BC21934204BF1A686F
:10122000C4F8BC21D4F8B421002A01F03D80D4F8E0
:10123000B8311A6832601E60C4F8B8613368002B98
:1012400000F0958694F8E83084F8E930F3E4E38E12
:10125000618E94F8EC200B441D44D007ADB200F130
:101260009181B4F8F230ED1A29043FF5E4AC94F81A
:10127000E83084F8E93004F13805052204F1ED0185
:10128000284613F009FC2846052103F097FE94F840
:101290003D30012260F3050384F83D3084F8C42119
:1012A000C9E4674803F0BCFC00283FF4C4AC94F8E0
:1012B000E83084F8E930012302794371D4F8B03181
:1012C00042F0030212210271C171002B00F09F82D3
:1012D00094F85221910700F19A8294F8AB21D20739
:1012E00000F19582D4F8BC21934204BF1A68C4F877
:1012F000BC21D4F8B421002A00F0C487D4F8B83156
:101300001A6802601860C4F8B8010368002B00F086
:101310002E85B4F8CA30A4F8CC308CE4494840F2A9
:10132000793102F0D3FB86E494F8192194F818C1BE
:10133000624553D194F8252194F824C1624500F008
:10134000E182A2EB0C02D1077FF575AC94F826314F
:10135000DA0740F1F3869A0740F1E58608F040F895
:10136000014600B394F8243184F82531037FA28D1F
:10137000C28043F003030B77022006220C2308717E
:101380004A77CB7794F82701B4F82821B4F82A31AA
:10139000A1F8233081F82000A1F82120086807F087
:1013A000F1FF07F0F9FF94F8E80094F8E9303DE424
:1013B00002F00701062901F2E78001A050F821F0B0
:1013C0003D170000890C0000890C0000890C00000A
:1013D000A7160000A7160000890C0000A2EB0C0263
:1013E000D3077FF528AC94F8DC1011F0010700F06A
:1013F000638407F0F5FF07460028D4D094F818312D
:1014000084F81931037FA28DC28043F003030922BF
:10141000022041463B7738717A77FA7707F120004E
:10142000082213F064FBD4F8203187F82030C3F38E
:1014300007221B0C87F8212087F822303946ADE7B8
:10144000F8390020685E0100012007F0ABFF8046FC
:1014500000283FF4F0ABB54803F0E2FB0546002856
:101460003FF4E9AB07F0BCFFD8F80030D4F8002116
:101470005A6094F80631C4F8008103F00303012B8D
:1014800000F0BC85022B00F0998540F68301A84846
:1014900002F01CFB0021238E94F806C12A793B44FC
:1014A000063398B26FF3010C0C23A4F8EC0084F817
:1014B00006C142F003026B71D4F810319D4F2A71BE
:1014C0000022EA71A7FB032394F8147122682F729B
:1014D000B4F80871A5F80B70B4F80A71A5F80D708E
:1014E000C3F38F23B4F80C71A5F80F70002AA5F888
:1014F0001100A5F80930C4F8F4600ADAD4E9010350
:1015000022F0004283422CBFF31833189A1AC4F811
:10151000F420894B05F109000122C4F8F000D960DC
:10152000104602219C6003F053FC002840F06985BE
:10153000D4F8B031002B00F0198394F852219007B1
:1015400000F1148394F8AB21D10700F10F83D4F894
:10155000BC21934204BF1A68C4F8BC21D4F8B4215A
:10156000002A00F0B186D4F8B8311A682A601D60EC
:10157000C4F8B8512B68002B7FF45DABC4F8C051A0
:10158000FFF759BB694803F04BFB064600283FF4C0
:1015900052AB238E027994F8EC101D44AB1DA4F8D5
:1015A000F2306FF30001012342F00302082084F8B7
:1015B000EC1032717071F371052204F1ED013018F5
:1015C00013F06AFAD4F8B031B4F8F220A6F80D207E
:1015D000002B5AD094F85221910756D494F8AB219D
:1015E000D20752D4D4F8BC21934204BF1A68C4F87D
:1015F000BC21D4F8B421002A00F05E86D4F8B831BA
:101600001A6832601E60C4F8B8613368002B7FF43A
:1016100012ABC4F8C061FFF70EBB022007F0C2FE98
:10162000074600283FF407AB404803F0F9FA0646A6
:1016300000283FF400AB94F8EC306FF30003C3F3E1
:101640008200C3F3421250EA020884F8EC30DBB2A5
:1016500040F04B8594F8E820A4F8EE80980784F8D1
:10166000E92000F1C385434641460522727186F8A0
:10167000088032797372D4F8B031718142F003027C
:1016800018213271F171002BA4D1D4F8B421002AB1
:10169000B4D13360C4E96C66C4F8B861B6E7C8F881
:1016A0000040FFF764BB02F00702B4F89CC1B4F835
:1016B000A011B4F89E91B4F8A281A4F85EC0042AE7
:1016C000A4F8621000F0A48494F89A31062262F320
:1016D000020384F89A31D4F80071002F00F082845C
:1016E0003868002800F07E843B7F4268B4F82CE024
:1016F000C4F8002143F0030302223B774FF0090AAC
:101700001523A7F806E0A7F820C079843A71FB7783
:101710003946A7F82490A7F8268087F81DA007F07F
:1017200031FE07F039FEFFF7AFBA00BFF8390020ED
:10173000685E01005917B7D10C050020BC4803F0C2
:101740006FFA00283FF4A0AA94F89A21B4F89E11E9
:10175000B4F8A231A4F8D6100127A4F8D83067F362
:10176000020284F89A2109270279477194F8DC7003
:10177000D4F81CE1818142F0030202711B224FF078
:10178000140C00210272FA0780F807C0417240F180
:1017900018841EF4006F00F01484B3F5296F28BF7D
:1017A0004FF42963B3F5A47F38BF4FF4A4734FF40B
:1017B0002961D4F8B0214181C381002A00F0F3836C
:1017C00094F852319B0700F1EE8394F8AB31DF07B8
:1017D00000F1E983D4F8BC319A4204BF1368C4F81D
:1017E000BC31D4F8B431002B00F09185D4F8B83175
:1017F0001A6802601860C4F8B8010268002A00F094
:10180000E884B4F8CA30A4F8CC30FFF73DBAD4F875
:10181000B421002A7FF472AD0360C4E96C00C4F8FF
:10182000B80173E504F17F073B462A4604F1EE0157
:1018300004F25D100FF0F2FB3946102204F1A00013
:1018400013F02AF9082204F1980104F1B90013F009
:1018500023F994F8972094F8B81094F87E3084F81F
:101860008F5042F0010265F3000143F008030120AC
:1018700084F8972084F8B81084F87E3084F890506B
:1018800084F8915084F8925084F8935084F89450DE
:1018900084F8955084F89650C4F8B050C4F8B45009
:1018A00032797071D4F8B03142F0030205213271FF
:1018B000F171002B7FF4A5ACD4F8B421002A7FF499
:1018C000B6AC3360C4E96C66C4F8B861B7E408FB31
:1018D000113340F2E24257489BB202FB03F3A3FBF1
:1018E000000151A3D3E90023FEF70AFC361AFFF7E3
:1018F000CBBA514840F6B40102F0E8F8D8F800003D
:10190000FFF773BA94F871C194F87021944500F010
:101910005582DFF82881D8F80020002A00F087845B
:1019200094427FF488A994F8722102F00702052AF4
:1019300000F218860FF2040C5CF822F0411A000045
:10194000A5190000551900002D0C00002D0C0000F9
:101950002D0C0000BB073FF56EA907F041FD0146C5
:1019600000283FF420AD037F94F87221032060F338
:101970000202034384F87221A08D0B7702271823FB
:101980000F714B77B4F87421B4F87631C880B4F88D
:1019900078010A84B4F87A214B840F238884CA849E
:1019A000CB77FBE494F87371002F40F0C28494F974
:1019B0003D30002BC0F2EF8494F8723194F87C0132
:1019C000C4F81071052262F30203012284F8723117
:1019D00084F81421002800F0AE85B4F87431B3FB0C
:1019E000F0F3134413FB00F39BB294F8722194F8C4
:1019F0000601A4F80831C2F3C0039B0020F00702DF
:101A000043F002031343B4F87801B4F87A2184F860
:101A10000631013984F80511A4F80A01A4F80C2153
:101A2000FFF709B9AFF300808D49FD1A07000000E8
:101A3000F839002000CA9A3B685E0100EC380020AB
:101A4000D748B4F83690B4F832A003F0E9F8074666
:101A500000283FF4A8AC027994F87211042060F3D6
:101A6000020142F00302182084F8721109EB0A0304
:101A70003A717871B4F87401B4F87611B4F8782139
:101A800038812B44B4F87A017981BA810F21002280
:101A9000A7F811304FF0FF33F881F9713A74FA74F6
:101AA0003A757B75BB75FB753B767B76BB76FB76B3
:101AB0003B777B77BB773946204608F097FB226857
:101AC000B4F8CA30C8F80040002AC4F89061A4F8FD
:101AD000CC300ADAD4E9011322F000428B422CBF49
:101AE000F31873189B1AC4F89031AE4B13370122C8
:101AF000C4F88C71104602219C6003F069F900283B
:101B00003FF451ACA84840F66B3101F0DFFF94F888
:101B1000E80094F8E930FFF789B8218E91427FF40C
:101B200071A940F2E24101FB03FB42F21071B4F8EB
:101B3000C6E001FB0CB10139B1FBFBF189B28E4566
:101B40007FF460A9032388F80430FFF76BB9012202
:101B50001046022103F008F96FF04700FFF772B852
:101B60004FF4A479CDF82C90FFF77ABAD4F8B421C9
:101B7000002A7FF4F8AC2B60C4E96C55C4F8B85166
:101B8000F9E4E26C636C894F03FB1A23E3640EF003
:101B90003BFB804694F8DC00C0F382000EF036FB7D
:101BA00008EB000305FB03F38148E26C94F8141181
:101BB00003F5742303F23F23A0FB03034FEA934A88
:101BC0000AFB0BF06B080244963B9A4209FB01FCAE
:101BD00028BF1A464FF0000EC4E91232C4F844A0E0
:101BE0006DA3D3E90023C4F854C0C4F8E4E0A0FB1B
:101BF0000701FEF785FAD4F8103184466D48A0FB42
:101C00000330800A09FB00F063A3D3E90023A0FBA3
:101C10000701A6EB0C06FEF773FAA5EB0A0AB4F867
:101C2000088120F07F49FFF74EB904F17F073B465A
:101C30002A4604F1EE0104F25D100FF0EFF9394687
:101C4000102204F1A00012F027FF082204F19801ED
:101C500004F1B90012F020FF94F8971094F8B8201E
:101C600094F87E3084F88F5043F0080365F3000148
:101C700042F0010284F8971084F87E3084F8905086
:101C800084F8915084F8925084F8935084F89450DA
:101C900084F8955084F89650C4F8B050C4F8B45005
:101CA00084F8B820311D204608F044FCD4F8B03147
:101CB000002B7FF4A6AAFFE5394802F0B1FF804669
:101CC00000283FF470AB94F819313B4AC4F81C214A
:101CD000013B092284F81931427194F93D200379BE
:101CE000002AACBF08220E2243F00303C27108226F
:101CF00003713946104412F0FAFED4F81C3188F80A
:101D00000830C3F307221B0C88F8092088F80A3032
:101D1000D4F8B031002B00F0598194F85221970784
:101D200000F1548194F8AB21D00700F14F81D4F831
:101D3000BC21934204BF1A68C4F8BC21D4F8B42172
:101D4000002A00F0EC82D4F8B8311A68C8F80020F4
:101D5000C3F80080C4F8B881D8F80030002B00F038
:101D60007D82B4F8CA30A4F8CC30FFF71CBBC4F8AD
:101D7000C001FFF7CEBA94F8642094F85C00C6F373
:101D8000820161F3020284F864204A4608F0E8F90F
:101D90000546FFF76BB900BF8D49FD1A070000002B
:101DA000F83900201C050020685E010000CA9A3B3B
:101DB00083DE1B435917B7D1FF49010094F898718E
:101DC00094F89921BA4200F02E8194F89A1101F00A
:101DD0000702062A00F2D1830FF2040C5CF822F00D
:101DE000891E00002D0C00002D0C00002D0C0000A1
:101DF000FD1D0000FD1D00002D0C0000B4F89C31FD
:101E0000A4F85E3001F00703B4F8A021B4F89E9165
:101E1000B4F8A281A4F86220042B00F0AB820B4638
:101E2000062262F3020384F89A31D4F80071002F7D
:101E300000F066823868002800F062823B7F4268CA
:101E4000B4F82CC0C4F8002143F003033B7702220E
:101E500009237B773A71B4F85E10B4F862207A8473
:101E60001523FB77A7F806C03984A7F824903946D4
:101E7000A7F8268007F086FA07F08EFA94F8E800B3
:101E800094F8E930FEF7D2BED44802F0C9FE01460C
:101E900000283FF488AA94F89A21B4F89E01B4F877
:101EA000A231A4F8D6000127A4F8D83067F30202C3
:101EB000092784F89A210A794F7194F8DC70888197
:101EC00042F0030214204FF0000C0A71FF07D4F80F
:101ED0001C21C8714FF01B0081F809C0087240F145
:101EE0005382100540F1EA82B3F5296F28BF4FF401
:101EF0002963B3F5A47F38BF4FF4A4734FF429626C
:101F0000D4F8B001CB81B2F5A47F38BF4FF4A472EE
:101F10004A81002800F0E08194F852319B0700F1DB
:101F2000DB8194F8AB31DF0700F1D681D4F8BC3106
:101F3000984204BF0368C4F8BC31D4F8B431002B14
:101F400000F00383D4F8B8311A680A601960C4F845
:101F5000B8110B68002B00F01B82B4F8CA30A4F84B
:101F6000CC3094F8E80094F8E930FEF75FBEC4F88E
:101F7000C061FFF767B90D233572F3710227FFF7D0
:101F800037B9974840F62D6101F0A0FD306894F80C
:101F9000ECB0FFF78EB8924840F6596101F096FD1B
:101FA0003068FFF7B0B8D4F8B431002B7FF41EAC22
:101FB0000260C4E96C00C4F8B8011FE48949FFF766
:101FC0006ABA4FF4A4731946FFF7F3BBD4F8B421EF
:101FD000002A7FF4B8AEC8F80030C4E96C88C4F8B1
:101FE000B881BBE67E4840F6FD4101F06FFD3868E0
:101FF000B4F85EC0B4F86210FFF776BB7A49FFF719
:102000004ABA774840F63E0101F060FDFFF790BA0A
:10201000B4F8A421002A40F0248184F89931A4F86E
:10202000CC20FFF758BB94F8A82194F8A91191424D
:102030003EF401AE94F8AA1101F00300032800F069
:10204000F48100287EF4F7AD644802F0E9FD014612
:1020500000283FF4A8A994F8AA3194F8AC2194F888
:10206000AB71012060F30103C3F3820060F302024D
:10207000C3F3421060F30612C7F34007087984F8EF
:10208000AA3167F3C30284F8AC21C3F3820C40F099
:102090000300C3F34213032716220871CA7181F8A3
:1020A00008C04B724F710022204608F09FF858E696
:1020B0008A457FF413A803233371314607F062F990
:1020C000D4F80051002D00F0F2812868002800F0BB
:1020D000EE814368C4F8003103232B71294607F0D1
:1020E00051F907F059F9FEF7A6BD238E1D44AB1D2B
:1020F000A4F8EE3007F074F93B68D4F800215A6078
:10210000C4F8007107F06CF90368D4F800215A6034
:1021100094F8EC30B4F8EE10C4F80001C3F3820870
:102120005B09FFF7A2BA2E4840F61C3101F0CEFC45
:1021300094F8E80094F8E930FEF778BD274802F0FB
:102140006FFD00283FF42FA994F8252194F826313B
:10215000013A84F82521027943F00103062184F82D
:10216000263142F003024171D4F8B03102710B21E3
:102170006FF00E020C270172427205214FF0FF3200
:10218000C7718172C2720273002B00F0838094F8D1
:10219000522197077ED494F8AB21D1077AD4D4F892
:1021A000BC21934204BF1A68C4F8BC21D4F8B421FE
:1021B000002A00F0C481D4F8B8311A6802601860AF
:1021C000C4F8B8010368002B7FF4C7AEC4F8C0019F
:1021D000C3E6C4F8C001FFF714BB00BFF839002004
:1021E000685E01001131000049DA000007F0F8F8DC
:1021F0001023A28D87F81C803B7194F864303868F6
:10220000FA80C3F302037B7794F86530C3F30203CB
:10221000BB77394607F0B6F807F0BEF894F8EC3013
:10222000B4F8EE10C3F382085B09FFF71EBA94F806
:10223000723103F00703052B00F2948101A252F8DA
:1022400023F000BF411A0000A51900005519000035
:10225000370C0000370C0000370C0000C4F8C081B8
:102260007FE594F89A01B4F8A671A4F89E210023A2
:1022700063F3020084F89A01A4F8A431A4F8A271CF
:10228000FFF729BA1A68026018600368C4E96D0094
:10229000FFF73CB8D4F8B421002A8CD10360C4E91C
:1022A0006C00C4F8B8018DE71A6832601E603368AC
:1022B000C4E96D66FEF7C3BF1A6832601E603368FA
:1022C000C4E96D66FFF7A2B91A682A601D602B6821
:1022D000C4E96D55FFF74FB9D4F8B431002B7FF442
:1022E00031AE0860C4E96C11C4F8B81131E60323BB
:1022F0003371314607F046F807F04EF8FEF79BBC05
:10230000A54840F6FD4101F0E1FB386896E5136809
:10231000036010600268C4E96D00FFF76FBA1A68C5
:10232000C8F80020C3F80080D8F80030C4E96D88F0
:1023300014E59A4802F074FC014600283FF433A8E3
:10234000037943F003030B71112003220F23C8719B
:102350004A710B7294F873314B720022204607F0D9
:1023600045FF94F8703184F871310023C8F80030CB
:10237000FFF719B8B4F8A421002A40F0A58084F82A
:102380009971A4F8CC2050E54FF4A4731A46B7E530
:10239000C4F8C011E1E5814802F042FC0146002882
:1023A0003FF401A80379182243F00303037142713B
:1023B000B4F87421B4F87631B4F878010A81B4F82D
:1023C0007A214B8110238881CA81CB7194F87C31AA
:1023D0000B74B4F87E31B4F88001B4F88221A1F80E
:1023E0001130B4F88431A1F81300B4F88601A1F8D3
:1023F0001520B4F88821A1F81730B4F88A31A1F873
:102400001D30A1F81900A1F81B2020463A4607F01C
:10241000EDFE94F8703184F8713194F8E80094F886
:10242000E930C8F80070FEF701BC080784F8A9215C
:10243000C1F3820261D594F8AA21022161F38402DA
:1024400084F8AA2194F8AA2157064FEA52114CD5D4
:10245000022161F3471284F8AA2194F8AA1194F892
:1024600064C094F8650094F8AB21C1F382070CF0C6
:10247000070C00F00700C2F38002BC4508BF00272C
:102480005200B0EB511F42F001024FEA511108BF58
:10249000002142EA4112023B42EA8702062184F807
:1024A000E93084F8EC2084F8EA10FEF7EDBB3A48F6
:1024B00040F63C6101F00AFB28680AE6D2054FF4B9
:1024C000A47310D5A8221BE500200B4660F302037D
:1024D000A4F89E21B4F8A62184F89A31A4F8A401A6
:1024E000A4F8A221A1E41A460AE5C8070FD50121E4
:1024F00061F3471284F8AA21AFE7D10710D594F809
:10250000AA21012161F3840284F8AA219AE711F03B
:10251000040118BF042161F3471284F8AA219CE743
:1025200012F0040217D094F8AA21042161F3840266
:1025300084F8AA2186E7B4F87631FFF756BA1A680C
:1025400002601860C4E96D003CE603680B6001603E
:10255000C4E96D11FDE494F8AA1162F3840184F8D2
:10256000AA116FE70C4840F6294101F0AFFA94F840
:10257000E80094F8E930FEF759BB074840F62551CA
:1025800001F0A4FAFEF70FBF034840F6255101F011
:102590009DFAFEF779BB00BF685E0100F8390020A4
:1025A0002DE9F04F9C4695B05CF80C6B1D46136806
:1025B00086460C4660462E31174605F1080A03226E
:1025C000D3F80090CDF828E005F11C0812F064FA69
:1025D00004F12A010422504612F05EFA04F13A0195
:1025E0000522404612F058FA4046052102F0E6FC6A
:1025F00095F8213000F03F0060F30503012885F8CD
:1026000021300AD994F83F3003F01F02053AC3F392
:1026100004010B2A85F8221002D915B0BDE8F08F0D
:102620003A6896F8DC1000209060B4F83480A5F881
:10263000128094F8362094F837005B0942EA0022B1
:1026400063F38401AA82638E86F8DC10ADF8303023
:102650000DF0DAFD034696F8DC000B93C0F3820020
:102660000DF0D4FD0B9BDFF818C394F83110AA8A43
:1026700040F2E24B0BFB08F8184408FB00F000F5B1
:10268000742000F23F20ACFB00C04FEA580C800CD5
:102690000BFB01F1ACF1960CA862C5F82CC0E96304
:1026A000218FAF4BADF8361042F2107C0CFB01814C
:1026B000AC48434402F1060C0139B3FBF8F3B1FB1B
:1026C000F8F1A6F8C61099B261454044A6F8D210B8
:1026D000B0FBF8F0A6F8CA0002DD891A063989B203
:1026E000A6F8CE100422514606F1E00012F0D4F90B
:1026F000237F04F11E0A5146C3F38013062212A859
:102700008DF8403012F0C8F9237F4FF48072A28315
:1027100099F82A0097F812B0C3F340128DF83C20C4
:102720000B920CF057F90146062204F12B00002908
:1027300040F0E58012F0DBF904F12503BBF1FF0F57
:102740000E9304F11F0300F0E3801A4651465846E9
:102750000BF0A6FBA27F0E980232A27712A90622E6
:1027600012F09AF996F8DC30698AAA8AA286C3F335
:10277000820384F83830BDF83630E386618630460F
:1027800008F01EF821462882E0807C680A9806F04E
:10279000F9FD2B8AE3800F2323710B9B2068002B0C
:1027A00000F0B28095F809E02B7A95F80BC0A97A71
:1027B00095F8212041EA0C2143EA0E234B4042F0D8
:1027C000400201216B8485F821202177214606F003
:1027D000D9FD06F0E1FD95F84900012100F0070060
:1027E0000CF03CFD604A4FF0000A8346312300F2B2
:1027F0005240A0FB02013360C6E901AA56A3D3E907
:102800000023FDF77DFCFC68BDF83020AD6A20F0A8
:102810007F4040F2E24303FB023302215246F06064
:10282000A4F5AE7401201C4402F09EFA484607F05D
:1028300011FA821C4D4BCDF80090D2B250460121C6
:1028400003F0D4FE0128A8EB0508A4EB0B0477D015
:1028500099F82830DB076BD4304607F0B1FFDFF87A
:1028600008B1A8FB0B893CA3D3E9002305464946E0
:102870004046FDF745FC3E4A069620F07F4AAAFBFB
:102880000223072101FB0A3340F23D11BF68089182
:102890003849079138490591B8EB020069EB03010B
:1028A000F368049300264FF47A7200230396FDF731
:1028B00027FC29A3D3E900238446A4FB0B01CDE91F
:1028C00001ACFDF71DFC053520F07F40EDB2313F36
:1028D0003B4600902A463046012103F01BFE30F0B3
:1028E000020304D025484FF49F7101F0EFF8012254
:1028F0001046022102F038FA15B0BDE8F08F04F15D
:10290000240112F0C9F817E79DF83C3023775DE702
:102910000E9811930622002112F0E9F89DF840303C
:10292000A377119B12A91846062212F0B5F819E7F1
:102930000023012200931846114603F057FE8BE74F
:1029400006F0B6FD814583D00C484FF4EC7101F0E0
:10295000BDF87DE7AFF300808D49FD1A0700000048
:102960007FC3C901FF59620200CA9A3B4DD30000E0
:102970008D49FD1ABDD20000D1D20000B45E010025
:1029800083DE1B43000000002DE9F041D0E90BC7B6
:10299000D0F828800CEB07043034A0450E461546CD
:1029A00018D81B4F18A3D3E90023ACFB0701FDF790
:1029B000A7FBA4EB080420F07F40306012A3D3E90A
:1029C0000023A4FB0701FDF79BFB20F07F4028605C
:1029D000BDE8F0810E4C0CA3D3E90023A8FB040151
:1029E000FDF78EFB20F07F4307F130003360A0FB42
:1029F000040105A3D3E90023FDF782FB20F07F400B
:102A00002860BDE8F08100BF8D49FD1A0700000075
:102A100000CA9A3B000000002DE9F04F0E7F1746D8
:102A2000126891B00C464FF0000A1D46C2F808A08B
:102A3000C6F3C013D2F800908DF83430243106224A
:102A400080460EA82E6812F027F8237FA4F81CA059
:102A5000797C97F812A0C3F3401211F001018DF8B0
:102A600030200B9204F12B004FF0060200F0E780BB
:102A700004F11E0112F010F8BAF1FF0F04F1250362
:102A800004F11F0B00F0E5805A46504604F11E0188
:102A90000D930BF005FAA27F0D9B0232A2770EA9CF
:102AA0001846062211F0F8FF6B8AAA8A6386B9F8E5
:102AB0003030E386A2860DF0A5FB84F8380030465E
:102AC00007F07EFE034628822146E38040467C686C
:102AD00006F058FC2B8AE3800F2323710B9B2068A0
:102AE000002B00F0A88095F809E02B7A95F80BC030
:102AF000A97A95F8212041EA0C2143EA0E234B40A4
:102B000042F0400201216B8485F821202177214683
:102B100006F038FC06F040FC95F84800DFF868A1A4
:102B2000C0F3C00100F007000CF096FB00248346C0
:102B3000312300F252403360C6E901444CA3D3E98B
:102B40000023A0FB0A01FDF7DBFAB5F812C0FB6811
:102B500020F07F40F06022460221012040F2E2484E
:102B600008FB0CF8A3F5877502F0FEF8484607F05D
:102B700057FA021DD2B2404B00920121204603F0C9
:102B800035FD2346032201210094204603F02EFD4B
:102B9000304607F015FE069640F2C923BF68374A53
:102BA0000893374B07920593F368049388FB0A89CF
:102BB00000F1050C2EA3D3E90023404649465FFAF5
:102BC0008CF60394FDF79CFA104619464FF47A727E
:102BD0000023FDF795FA26A3D3E90023844649464E
:102BE0004046CDF808C0FDF78BFAA5EB0B058446EF
:102BF0001FA3D3E90023A5FB0A01CDF804C0FDF70C
:102C00007FFA313F20F07F403B460090324620461D
:102C1000012103F07FFC30F0020304D0194840F298
:102C2000CA2100F053FF01221046022102F09CF855
:102C300011B0BDE8F08F9DF83030237767E711F0D1
:102C400056FFBAF1FF0F04F1250304F11F0B7FF4C7
:102C50001BAF18460622002111F049FF9DF83430C1
:102C6000A3770EA95846062211F016FF1CE700BFF5
:102C70008D49FD1A0700000009D400000DD40000A2
:102C800021D40000F85E010000CA9A3B0000000059
:102C90002DE9F04F91B00446079090F93D00E468AB
:102CA0000B940028B8BF1434CDE9091205934FF0F6
:102CB000FF024FF00003B8BF0B94DDE91A7BCDE9AA
:102CC0000D3390461E468DF8332006921C469A46D8
:102CD00004931D4641E09DF83300FF2859D0B8F118
:102CE000FF0F09D00E9B534506D099484FF4BB7196
:102CF00000F0ECFE9DF83300831E122B00F29A8048
:102D0000042840F2A480069BFF2B40F08F800538FA
:102D100080B207F05DFD079B834200F08B8009992C
:102D200090F93D203B78002940F09F80002A12DB7B
:102D3000C268DDF83490DDF82480283208920A9ABF
:102D400012684A45C0F0A080089ADDF838A09DF8C6
:102D5000338004924D469C426FD20FAB02937D4B61
:102D600001930DAB022100930DF133020EAB002055
:102D70000F9103F081FC02286CD00F9B002BAAD08E
:102D8000734840F26D1100F0A1FE9DF83300FF285A
:102D9000A5D10A9B1A683B78954238BF1546A342D5
:102DA00042D9049BDFF8B481EB18A3FB0801072686
:102DB00006FB031164A3D3E90023FDF7A1F9664BD9
:102DC000A3FB0020059AC0F38F218A424FEA90208E
:102DD00040F2A9800FF2701ADAE9009A06930CE02B
:102DE000FDF78EF9069BA3FB0030059BC0F38F21F6
:102DF0008B424FEA902040F296800BEB440C0BF88C
:102E00001400090A8CF80110049997F800C00134E5
:102E1000283501EB050EE4B2AEFB0801A4454A4695
:102E2000534606FB0E11DBD80A9B1D603C7011B0A7
:102E3000BDE8F08F3B789C428FD39DF83330FF2B59
:102E4000F4D10A9B1B689D4238BF1D46ECE73B78D6
:102E5000069080E70F9B022B8FD10221002003F008
:102E600051FC0F9B022BF8D087E7002AC168DDF8E0
:102E700034904DDA01F13C0208920A9A12684A45F0
:102E80004FF01408BFF460AF954238BF15469C421E
:102E900037D2049B0B9A1A97134498441BE0FDF712
:102EA0002FF92D4B059FA3FB0030C0F38F26BE42A8
:102EB0000BEB440204F101034FEA16214FEA902084
:102EC00005F1280533D20BF8140051701A9A1278C4
:102ED000DCB2A24222D92946484603F02DFC049BCD
:102EE0001E4A2B448446C445A3FB02014FF007024F
:102EF00002FB03114FF0000A13A3D3E90023CED243
:102F00001A9F0A9B1D60059BB34215D93B781BE7AE
:102F100001F1280208924FF0000810E70A9B1A9F5F
:102F20001D603B7810E70A9B00251D607EE70A9B29
:102F30001A9FC3F800A055469DF83330FF2B7FF44D
:102F400075AF26E7AFF3008000CA9A3B000000008F
:102F50003C5F01002DDA00005917B7D18D49FD1AE9
:102F60002DE9F04F8FB01C4609934FF0FF0A002364
:102F70000431DFF8F890DFF8F8B0236004930446DA
:102F8000089115460C9305938DF82FA00DF1340888
:102F90000CAF0226CDE9019800972B460DF12F02C8
:102FA000214600200D9603F067FB022830D00D9BD0
:102FB000002B33D19DF82F00FF2837D00538C3B23E
:102FC0000F2BE7D880B207F003FC0028E2D090F97D
:102FD0003D30002BDEDBC3680C9ABAF1FF0F03F122
:102FE00004030CD0059907931046069203F0A4FB46
:102FF000049B089A99188842DDE9062319D8CDE97F
:1030000004329DF82FA0C5E72146002003F07AFB8B
:103010000D9B022BF8D00D9B002BCBD05846522194
:1030200000F054FD9DF82F00FF28C7D1BAF1FF0F23
:1030300010D0DDE904320C481344A3FB0001072241
:1030400002FB031106A3D3E90023FDF759F8099BFE
:10305000803018600FB0BDE8F08F00BFAFF3008084
:1030600000CA9A3B000000008D49FD1A2DDA0000CD
:103070003C5F01000000000070B51C4682B01546A0
:10308000064601AA02200195FFF76AFF23680BB3E9
:103090000198431B1B021FD4294603F04DFB1A4B1A
:1030A0000246A0FB0301072303FB021114A3D3E98B
:1030B0000023FDF725F8226802442260002A09DB7C
:1030C00040F2E24101FB06F0904203D2121A904214
:1030D000FCD3226002B070BD0146284603F02CFBF1
:1030E000094B0246A0FB0301072303FB021104A3C3
:1030F000D3E90023FDF704F82268121A2260DDE705
:1031000000CA9A3B000000008D49FD1A0000000033
:103110002DE9F041B0F8802188B0054640F2E24345
:10312000454805AE03FB02F3002783FB000106249C
:103130003FA3D3E9002377600597B7608DF80F4070
:10314000FCF7DEFF0DF10F020196B5F87631009223
:1031500004460121284604AA0494FFF799FD9DF82E
:103160000FC00CF1FF34E4B20DF11603394603EB46
:1031700044042F4605F10C0E4FF6FF7097F881318D
:1031800097F8802142EA03220FFA82F8BCF1000F7F
:1031900009D03346824203D01988914217D00121C9
:1031A00002339C42F6D10237BE45E7D1F1B9BDF8F2
:1031B0001430D5F8F01040F2E24202FB03F2180A94
:1031C000C5F810210B70487008B0BDE8F081D5F843
:1031D000F01040F2E24303FB02F3120AC5F810318B
:1031E00081F800804A7008B0BDE8F08195F8E820C9
:1031F00095F8703185F8E92085F871310AF058F8B2
:10320000D5F8F03013F8052C03252A4311240F209C
:10321000202103F8052C03F8045C03F8024C03F8A2
:10322000010C197008B0BDE8F08100BFAFF3008059
:103230008D49FD1A0700000000CA9A3B00000000FB
:103240002DE9F04F83B004460EF094F910F0FF0F13
:103250000AD10CF017F8A04821460EF041F803B04F
:10326000BDE8F04F0EF058B90EF0A4F95FFA80F8FF
:103270000EF02AFAC6B20EF031FA07460EF07CFCC8
:10328000C5B20EF067FC82460EF0E6F981460BF0FF
:10329000F9FF002E40F0AB80002D40F0BA80FF27F0
:1032A000B8F1000FD7D0A37D190700F1A880002E38
:1032B00040F0E781012006F051F98046002800F037
:1032C000F781A3685FFA89F6002B00F0D680A37D12
:1032D0001A0740F1E28198F81C0010F00F0340F04B
:1032E0009E8098F81D30252B00F2A481042006F062
:1032F00035F90028AFD00EF033FBA36A814643B9FD
:10330000E28C40F2712303FB02F3B0FBF3F203FB08
:10331000120923687148DB680722A3FB000102FB46
:1033200003116BA3D3E90023FCF7EAFEA0F24233BA
:103330004B4590D30EF06AF9D4F808A00EF048F986
:1033400098F81C200178C2F38012D20101F05001DC
:1033500042F025020A43222102704170834638461A
:103360000BF046FBE27D0090D20701460BF1020014
:1033700040F1AD81002900F0AA819BF8002042F0C5
:1033800040028BF80020062211F086FB062208F18D
:103390001E010BF1080011F07FFB04220AF1080165
:1033A0000BF10E0011F078FB03220AF10C010BF176
:1033B000120011F071FB0122BAF812308BF81520BF
:1033C00001930EF0CDFAD4F8109000F5DB62B9F15C
:1033D000000F00F0A281019B40F2E24101FB03F1EA
:1033E000B9F1000F01DB4A457AD98944F8E7A07D9D
:1033F000F9B2C0F3C0000BF019FB074650E7002EEE
:103400007FF458AF38460BF083FB00287FF452AFAF
:1034100021E75FFA8AF00BF049FB074640E7012BF2
:1034200040F0E08098F81D300C2B7FF414AF08F1C9
:103430002409C00949463A460BF000FC00287FF4F5
:1034400055AFE37DDB0700F1CE81A37D98F81C002A
:10345000C3F38012B2EBD01F00F0FF81C3F3C103AE
:1034600098070AD598F91C30002B06DA98F829300D
:1034700003F0C003402B3FF439AF98F81C0010F064
:103480000F0340F0AF8098F81D30252B3FF6E3AED8
:1034900094F91620002A03DAA268002A00F0548169
:1034A000252B98BF4FF0000900F2C480002B3FF499
:1034B000D2AEA368002B7FF4CEAE002D14BF3946E8
:1034C000FF214A4630460CF0DBFDC4E6AFF3008036
:1034D00000CA9A3B000000004DFE00008D49FD1A15
:1034E000CF489BF81510A9EB0202A0FB0232C2F3F1
:1034F0008F220131ABF816208BF81510BAF81200A4
:10350000BAF81410A28AABF81C20ABF81800ABF87C
:103510001A1005220AF11C010BF11E0011F0BCFA71
:103520009AF822109BF8232061F304028BF82320E1
:103530000CF068FE9BF8232060F347128BF82320E1
:1035400058460DF0BBFF0EF00BF8002840F0EB8062
:10355000B44821460DF0C4FE002E40F0F0802279E0
:1035600042F00101D307217100F1E38006F014F865
:103570000A22064602714FF6FF7298F81C80C2803C
:10358000594624221C3011F087FA337FB460C8F307
:10359000401868F3451333770EF086F90021306147
:1035A00008460DF09BFF002D08BFFF27B776E27D90
:1035B000A9EB000012F00102706103D0009B1A1EFB
:1035C00018BF0122737E62F30003737605F0E4FFF7
:1035D0003146F060306805F0F7FF03B0BDE8F04F0A
:1035E00006F002B8062B69D0022B6DD0012B21D139
:1035F00098F81D300C2B7FF42EAE08F1240AC00978
:1036000051463A460BF01AFB8146A8BBA37D98F8B9
:103610001C00C3F38012B2EBD01F00F0EB80C3F3A9
:10362000C103980704D598F91C30002BC0F2EB8039
:1036300098F81C0000F00F0004287FF40CAE98F8F6
:103640001D30252B3FF607AEA37DDA077FF503AECD
:103650000DF0BEFF98F81C300278C3F38013B3EB73
:10366000D21F7FF4F8AD0830062208F11E0111F0D8
:1036700003FA00287FF4EFAD98F81D304FF00009F1
:1036800014E7394628460BF073FA00287FF412AE8F
:10369000A37D1B077FF5DFAD0CE6FF2F26D0237E31
:1036A000DB1BB3FA83F35B09002B7FF414AEE4E673
:1036B0005D4840F2972100F009FA02E698F81D30C3
:1036C000252B7FF6E5AEB5E798F81D30E8E6A27D3C
:1036D0009BF80010C2F3801262F386118BF8001081
:1036E000062204F1190111F0D7F94FE698F81C00F1
:1036F000C3F34013C0F3801293427FF4C0AE06229E
:1037000008F11E0104F11F0011F0B6F9B0FA80F3C0
:103710005B09002B7FF4DFADAFE68BF816908BF8DA
:1037200017909146EAE640484FF4447100F0CEF914
:103730000EE73D4840F2363100F0C8F916E70DF0CB
:103740007DFF8AF8A5000AE796200DF0DDFF002036
:103750000DF042FF002D14BF3946FF2130460022F4
:103760000CF08EFC00287FF476AD0DF031FF98F858
:103770001C300278C3F38013DB01054602F07002AF
:1037800043F0030313430C222B7038466A700BF08E
:103790002FF9E37DDE0701464AD5002848D02B7873
:1037A000284643F0400300F8023B062211F074F96A
:1037B00008F11E01062205F1080011F06DF92846F6
:1037C0000DF07CFE0DF0CCFE002840D10EF0C0F8CC
:1037D000A37D164843F001032146A37503B0BDE85D
:1037E000F04F0DF07DBD38460BF002F900287FF454
:1037F00044AE2AE65146062204F1190011F03CF9C4
:10380000B0B3A37D0BE798F8293003F0C003402B39
:103810007FF40EAF98F81D304FF0010946E600BF67
:103820005917B7D1210001005C60010069FE00005A
:10383000A37D2A78C3F38013284663F3861200F829
:10384000022B04F11901062211F026F9B0E70A480B
:1038500040F2913100F03AF9B8E74946062204F106
:10386000190011F009F900283FF440ADA37DF5E5FA
:1038700098F81D301AE600BF5C60010038B5094DAC
:103880004FF0FF324FF0FF33284611F0E7F90446BE
:1038900001F084F910B120460EF0DCFB10F0C0F806
:1038A000EEE700BFE006002010B50F480F4C0FF008
:1038B000C7FC206098B110F0B6FC206810F0A8FC9E
:1038C0002068836823B19B6C13B109490022984793
:1038D000206883689B6A2BB19847002010BD6FF069
:1038E0001500FBE71846F9E7E8650100F00A00203B
:1038F000F53800002DE9F04F6B4D286883685B6B4D
:103900008DB043BB286810F088FC286810F085FC57
:1039100068B1664E336834460BBB6548002200230D
:1039200011F09CF93060D0B9286810F071FC28685B
:1039300083685B6B002B60D0984700285DD0DFF870
:1039400084A15C4E57469AF80030032B55D8DFE827
:1039500003F01D30799B98470028D6D1D2E728681C
:1039600083685B6983B121688A89896898470146C1
:103970002068083011F0B5F920688689002ED6D16C
:103980000EF068FB2660D2E71946F1E74A4C28683A
:103990000122214610F036FC78B323785A1E012A02
:1039A000D1D8012B0CBF03230423336001233B70C8
:1039B000C9E7DFF80491326899F80030DFF8FC803D
:1039C0002868012B0CBF03210421891A414410F0FF
:1039D00019FC33681B1A04463360002B50D10123B5
:1039E000CDE9009300220023062001F07BF8DFF8E8
:1039F000D8B0CBF8000018B938700DB0BDE8F08F22
:103A000099F80030CBB998F802203260012B0CBF36
:103A1000032204222949083011F051F9DBF8000093
:103A2000083011F06EF93368984209D2DBF80000D3
:103A30000EF010FB03233B7022E0B8F80220E4E70D
:103A40000223F8E7DFF880803268D8F80030286871
:103A500099899B68194410F0D5FBD8F800108B8920
:103A600003448B813368A3EB00080446C6F800804A
:103A7000B8F1000F04D1124811F00EF987F8008058
:103A8000002C7FF460AFB8E732682868212A28BF8D
:103A9000212203A910F0B6FB33681B1A04463360D9
:103AA000002BEDD1C7E700BFF00A0020EC0A002090
:103AB000F8060020F40A0020974A0020924A0020CD
:103AC000E0060020964A0020E80A0020F8B50546E6
:103AD0000F464FF02002EFF3118382F31188BFF3FA
:103AE0006F8F234C206810F09EFB206810F090FB35
:103AF000002D36D12E462068042110F099FB206855
:103B0000FF2110F095FBB11D2068C9B210F090FBA9
:103B10002068AA2110F08CFB36B1013D15F8011F79
:103B2000206809BB10F084FB2068F9B210F080FB1C
:103B30002068C7F3072110F07BFB2068C7F307411B
:103B400010F076FB2068390E10F072FBFEE70133AF
:103B50002F2A08BF1E46EA5C002AF8D135449E1B76
:103B6000C9E700263346F6E710F062FBD6E700BF50
:103B7000F00A002070B5184888B001F015F800224E
:103B80000023CDE9062300236FF00802CDE90323CB
:103B9000CDE9013300931149114B12484FF4806273
:103BA00010F04CF810490F480B4D104E104C11F00E
:103BB00005FD4FF0FF324FF0FF33284611F04EF86D
:103BC0000146304611F068F820688368DB69002BF5
:103BD000EFD09847EDE700BFC8060020E04E002078
:103BE0007D38000088070020EF650100F8060020FE
:103BF000F00A00202DE9F84FB0F8189019F00808E5
:103C0000044693460DD001290CBF49F0100949F034
:103C10002009A0F818908BF31188BFF36F8FBDE8CF
:103C2000F88F09F00709022907D1204610F030FB70
:103C30000028F0D00128238B50D16769218B002FF9
:103C400015DA256821F00701C4E9008841F0010177
:103C500021830026218B01F0070ACA4502D0A36800
:103C6000002B5CD10DB9002E74D0002358E001F078
:103C700007035A1F012A20D821F00701062B2568C7
:103C800089B2C4E900880CD1002D2B4638BF00232F
:103C90002BB1628B1B6801326283002BF8D141F09B
:103CA00002012183204610F0F3FA06460028D1D005
:103CB000238B43F020032383CBE7042B0CD121F08B
:103CC000070189B22183204610F0E2FA0546002858
:103CD000BFD041F0200121830025BAE7032809D194
:103CE000226923F00703166843F0060323830025A7
:103CF0002F46AFE7042806D1226923F00703566850
:103D000043F00403F2E7052806D1226923F00703F4
:103D1000966843F00503E9E700252E46E8E701230E
:103D200041F0080121838BF31188BFF36F8F03BB30
:103D3000002D33D116B121492046B0474FF0200362
:103D4000EFF3118B83F31188BFF36F8F238B23F075
:103D500008032383238BDA0628D523F0100323835B
:103D60000121B4F8189009F0070900297FF45BAF2E
:103D700051E7A1680029DBD00B68D1F804B0002B13
:103D800038BF0023994652463B462046D847B9F1F2
:103D9000000FCDD0D9F800304946EEE729463B4622
:103DA000524620462D6810F08FFAC1E713F020012B
:103DB0001EBF23F0200323830221D2E7F542010036
:103DC0000E4A70B5841AA3100D4C5C430546E4B24C
:103DD0000C2000FB04200E464021084410F08EFD0C
:103DE000011E05DB074B03EBC40463689847002101
:103DF00028463346BDE87040184700BF080B002036
:103E0000B76DDBB62C5C01002DE9F041104E841B30
:103E1000A310104C5C43E4B20C256543804605F1C9
:103E200040000F463044402110F081FD011E09DBA7
:103E3000094A7319C3E90E27084B53F83430BDE81B
:103E4000F041184740463B46BDE8F041184700BFE7
:103E5000080B0020B76DDBB6914901002C5C010016
:103E6000002270B501210446104600F0F9FA002046
:103E700000F0C4FA0F480FF0E9F80F4B984215D143
:103E800011F031F9E6680D49304610F050FA00287B
:103E90000BDB01253564E468084904F11C0010F0CF
:103EA00046FA002801DBE564002070BD6FF00400D5
:103EB000FBE700BFF53E00000000AD0B3C5C0100DD
:103EC00001460C2309484B4370B5C418D4E90E567B
:103ED00000224033A263184410F047FD2DB1324652
:103EE0002B460348BDE87040184770BD080B002002
:103EF0001406002010B1012804D07047034B1B6C3E
:103F00005B0701D1FFF7DCBF704700BF080B002043
:103F100008B54FF02003EFF3118183F31188BFF34D
:103F20006F8F124A136843F0020013F00103106010
:103F30000CD04FF08042D2F80C34D2F80C2413F09D
:103F4000010303D00A4810F010FD012381F311880A
:103F5000BFF36F8F23B1BDE808400020FFF7B0BF6B
:103F6000BDE8084001200FF081B800BF580B0020C9
:103F7000480B0020094BBFF35B8F53E8002F22F062
:103F8000020143E800100028F7D1BFF35B8FD3078D
:103F900002D401200FF09CB8704700BF580B0020DE
:103FA00010B58AB000230122CDE90632019308AA98
:103FB0000A4BCDE9082204AC01AACDE90444CDE9BD
:103FC000023410F00BFD002805DB4FF48042002383
:103FD00020460FF0BFFD0AB010BD00BFA34901008D
:103FE000024AC3B21C2003FB00207047080B0020CC
:103FF000094BBFF35B8F53E8002F42F0010143E808
:1040000000100028F7D1BFF35B8F930702D4012083
:104010000FF02CB8704700BF580B0020094BBFF3BE
:104020005B8F53E8002F22F0010143E800100028C5
:10403000F7D1BFF35B8F930702D401200FF048B88C
:10404000704700BF580B00202DE9F8433A49BFF3F1
:104050005B8F0646012251E8003F41E8002000281E
:10406000F9D1BFF35B8F33B9344935484B60CB602E
:104070008A6010F06FF9731E012B32D8012E07D120
:104080004FF08043D3F81C3403F00303012B28D0F6
:1040900011F08CFA044618B92A4B1B78002B44D136
:1040A0004FF02003EFF3118583F31188BFF36F8F77
:1040B0000124254FDFF89480DFF894904FF0804280
:1040C000D2F81834D2F81824D2030CD503F0030325
:1040D000012B01D0012E06D10CB385F31188BFF35B
:1040E0006F8FBDE8F883ACB1284600F043FA4FF07B
:1040F0008042D2F81835002BE0D139680029DDD094
:104100003B603B680123C2F81835C8F88031C9F814
:104110000030D3E7002121200FF0D0FCE7E74FF07B
:1041200080430222C3F80423DBE74FF080430222DE
:10413000C3F808230546BCE75C0B0020F80A002002
:10414000240B0020DC4E00200401004000E100E0D0
:1041500008000040821C084B22F07F42C3F8402533
:10416000D3F80425904200D17047D3F80405821C8F
:1041700022F07F42F2E700BF00100140074B00220F
:104180001A601B68064A074BD3F840051368C01A2B
:1041900020F07F40034413600FF014BF4011014032
:1041A000600B00200010014038B5104D104B00246A
:1041B000C5F808451C601B680E4B4FF40032C3F86D
:1041C00080214FF48033C5F80433224601211120A9
:1041D00000F046F9112000F011F9074A012313609D
:1041E00002202B60FFF730FF204638BD0010014051
:1041F0004011014000E100E008100140F8B52B4BF0
:104200002B4C1968D4F804252A4D521AB0F1FF3FFF
:1042100008BF284622F07F43120236D4013820EA34
:10422000E070A842A8BF284601331844A84294BFB2
:104230000D184D194FF48031C4F80813D4F8042533
:10424000D4F840351C4E00279B1A376023F07F437B
:104250003068012B22F07F40C4F84005C4F84413B5
:1042600004D10F2011F0A8F937603368134B4FF4D5
:104270000032C3F88021D4F804052B1A23F07F43C1
:10428000012B04D1FFF766FF0BE00020CCE725F0FF
:104290007F43C4F84035D4F804052D1A023D2B02A3
:1042A000F0D44FF48033C4F80433F8BD600B002021
:1042B00000100140FFFF7F004011014000E100E0DD
:1042C0004FF02002EFF3118382F31188BFF36F8F59
:1042D000064AD2F80405064A1268801A20F07F4088
:1042E00083F31188BFF36F8F704700BF0010014048
:1042F000600B002010B5114C114AA2610323C4E9E0
:104300000433104BE36122664FF480630E4A0F4979
:104310002362626600231022E01DA3626362E362EF
:104320002367E3666367A26610F090FB08492046A6
:1043300010F08CFB2023A37110BD00BF640B002084
:1043400014660100A84A0020984A00201D6601005A
:1043500021660100094A0A4993680968D967094931
:1043600098674B6843F080534B60002383F31188B8
:10437000BFF36F8F9368D86F704700BF484A002023
:10438000E465010000ED00E012498A684FF0380052
:104390001044EFF3098C80E8F01F202080F311888F
:1043A000BFF36F8F0C4F4FF000664A6A8A603E6021
:1043B000906F0023936780F3118804B5104600F0D6
:1043C0008DFABDE8044002F1380090E8F01F8CF34C
:1043D00009887047484A002004ED00E01EF0040FF1
:1043E0000CBFEFF30880EFF30980816911F8021C1C
:1043F0000229FFD001B510F01EFB01BD43B2002B16
:1044000008DB012200F01F0002FA00F05B09024AFB
:1044100042F82300704700BF00E100E043B2002BE8
:104420000DDB01225B0900F01F0002FA00F02033CF
:10443000034A42F82300BFF34F8FBFF36F8F7047DB
:1044400000E100E0054B420900F01F0053F8222074
:10445000012303FA00F01040704700BF00E100E0C4
:1044600043B2002BA8BF03F1604301F10101B8BFC3
:10447000064B4FEA4111ACBF03F5614300F00F005A
:10448000C9B2B4BF195483F80013704714ED00E0AB
:1044900008B572B6044B186A18B100221A6210F0FF
:1044A00055FE62B608BD00BF484A002042F8203CD5
:1044B000009B42F81C3C0A49019B42F8183C029BB5
:1044C00042F8143C21F001014FF0807342F8043CA3
:1044D00042F8081C0023203A82658367704700BFBA
:1044E000314401000B4A0346906890B113F1160F56
:1044F000806E05D0A0F120029A4206D8834204D2F1
:1045000081422CBF0021012100E00021002908BFC9
:1045100000207047484A002008B504460E4615465C
:1045200000F0C0F9084B20469C6000F0D7F92846FF
:1045300086F30988002163B681F31188BFF36F8F7A
:10454000002200230FF074FF484A00200149102286
:104550000A60704710ED00E072B6404080F31188A9
:10456000BFF36F8FBFF34F8F30BF62B6BFF36F8F54
:10457000704700BF72B6494081F3118820BF80F3B5
:10458000118862B6704700BF30BFFFF7FDBF00BFA4
:104590000E4A08B50E4B22F07F029A60BFF34F8F90
:1045A000BFF36F8FD3F8882022F47002C3F88820FD
:1045B000EFF3148323F0040383F314880EF082FED8
:1045C0000EF08AFE00F036F90EF0B8FE0000000092
:1045D00000ED00E001B572B60B4A106A00281EBF5C
:1045E0000021116210F0B2FD62B6EFF30580A0F178
:1045F00010004FEAC0000549014409C99847BDE8C9
:104600000140034908470000484A0020785A010049
:104610001948000010F08EFA202080F31188084815
:104620004FF40261401880F30988EFF314800221EF
:10463000084380F31488BFF36F8FFFF7A9FF0000D2
:10464000805C0020EFF30880EFF3098101B572462A
:1046500000F064F801BD00BF38B5174B14469A6AE4
:104660009A6A9A6A0546900716D5586B9A6A120696
:1046700004D519B19A6A22F080029A629A6A9A6AFB
:104680009A6AD2060BD400200B4A936A43F0FF03C8
:1046900093620023237038BD6FF01500EEE75B686E
:1046A0001B05F0D52946FFF71DFF0028EBD080F34E
:1046B00009880220E8E700BF00ED00E00D4B9A6A90
:1046C0009A6A9A6A920508D59A6B9A6A120404D576
:1046D00018B19A6A22F400429A62064B9A6A9A6A60
:1046E000D20558BF9A6A9A6A002042F47F429A62C1
:1046F0000870704700ED00E0074B9A6A9A6A9A6A60
:104700009A6A9A6A9A6A9A6A6FEA02426FEA12424F
:104710009A620020704700BF00ED00E070B5374B93
:104720005B688AB00E46C3F30803002585F3118841
:10473000BFF36F8F02F07F41B1F17F4F11D102F0D3
:104740000C0108290DD0110701D4064601250022CD
:10475000033B8DF80720032B48D8DFE803F0043F24
:10476000433C2E46F3E7254BDA6A92073ED4DC6AD7
:1047700014F0804409D028331B78F3B10DF10702FF
:1047800001213046FFF768FF04469DF8073093B9D2
:104790002022314602A810F07FF9099B45B3C3F3EC
:1047A000080222B96FEA53236FEA4323099302A94F
:1047B000204610F03EF90AB070BD114B1B782BB1AA
:1047C0000DF107010120FFF779FFDDE70D4B188898
:1047D00084B2002CD9D0FFF78FFFD5E70DF1070287
:1047E0000021CEE70DF107010020ECE70024CCE723
:1047F00023F4FF7323F00103D8E700BF00ED00E0CE
:1048000029ED00E02AED00E0024A536943F010036D
:104810005361704700ED00E0044B9968586A884284
:1048200003D003494FF080520A607047484A002085
:1048300004ED00E0044800232021C2180133302B8E
:1048400082F80013F9D1704700E100E010B504468A
:104850000EF0FCFF114B9B68A34207D1EFF30583D9
:1048600083B10F4A536843F0805353604FF02003E5
:10487000EFF3118083F31188BFF36F8FBDE8104011
:1048800010F0B2BD4FF02003EFF3118083F31188D5
:10489000BFF36F8FFFF75EFDE8E700BF484A0020D7
:1048A00000ED00E01FB5084B0193084B0293084B45
:1048B000039301AB0093074A074B0121684600F0C0
:1048C000A7F805B05DF804FB000000200000000020
:1048D00000000B0600000020000004201FB5836EBE
:1048E000203B0193064B2022CDE90223012101AB9D
:1048F0006846009300F096F805B05DF804FB00BF31
:1049000000000B15DFF884C0F0B5064600271046FE
:104910008F4200DBF0BD56F827E0DEF8044094B388
:1049200043B1651E2C4219D11F2C17D9DEF8002087
:10493000154213D1202CC2B2DEF80050DEF8080078
:104940000FD9B4F1004F0ED8013CB4FA84F4C4F18D
:104950001F046400072A44EA000406D96FF015001A
:10496000D8E70824F6E73E24F4E725F01F051543B1
:1049700045F0100544F00104CCF80820501CCCF898
:104980000C50CCF810400137C2E700BF90ED00E0BA
:10499000034B05225A60BFF34F8FBFF36F8F7047F1
:1049A00090ED00E0BFF35F8F014B00225A6070472B
:1049B00090ED00E013490868082810B51ED8FFF7ED
:1049C000F1FF114C49680022904201F10C0105D120
:1049D0000E4B1870FFF7DCFF002010BDA26051F8ED
:1049E0000C3C23F01F03134343F01003E36051F822
:1049F000043C43F0010323610132E5E74FF0FF304F
:104A0000EBE700BF485C010090ED00E0A84E0020FD
:104A100010B5034C01232278FFF774FF207010BDFE
:104A2000A84E002008B5084A00231278FFF76AFF55
:104A300010F1160F03D0054B0022072800DD08BD3A
:104A400098601A610130F8E7A84E002090ED00E070
:104A50004FF02003EFF3118283F31188BFF36F8FC0
:104A600006490123C1F840354FF08041C1F878353F
:104A700082F31188BFF36F8F0020704700E0014080
:104A800020B1034B800143F001031847704700BF7A
:104A9000105C0100074A0346106828B9D96831B193
:104AA000196921B1136070476FF0440070476FF0CF
:104AB000150070470C0C002070B500F0FD06012EAB
:104AC00005460BD1064810F0C4F8044620B1314623
:104AD000083010F0DDF82575204670BD0024FBE796
:104AE000600700202DE9F0410228DDE90667044651
:104AF00029D0062802D040B300251EE014490978C9
:104B00000129F9D13478012C1AD0022CF4D11148A2
:104B10000136013F10F09DF805460028ECD000F169
:104B200008080121404610F0B3F82C752EB127B1CA
:104B30003A463146404610F0C2F82846BDE8F081BA
:104B400005480024E4E70348E4E70348E2E700BF40
:104B500010060020100700203807002010B50D4B6C
:104B60001B78012B04460CD1037D012B04D0032BB1
:104B70000ED06FF0150010BD042104F1080010F0F4
:104B8000A7F8054B2146186810F086F80020F2E7D8
:104B90000221F2E710060020100C0020014B1B68D8
:104BA0001B6918470C0C0020044B054A1B68106059
:104BB0000BB1DB6818476FF0120070470C0C002037
:104BC000100C00202DE9F0411446C21D22F0030212
:104BD000671EBFB2186082B005460E4601FB070093
:104BE0001480002104220FF082FFB7B1023CA4B26E
:104BF00004FB066304FB06F71D44FF1A4FF6FF781B
:104C00000422013CE8190DEB0201A4B201950FF05A
:104C100043FF4445A5EB0605F2D102B0BDE8F081A3
:104C200070B5056882B095B1EB1D23F00303042233
:104C3000044629460DEB02001E880FF02DFF019B54
:104C400023B1DA1D22F00302013E168023602846BC
:104C500002B070BD0B6870B50C46054683B10733D2
:104C600023F003031E880136B6B2042221462846EB
:104C70000FF012FFEB1D23F003031E80256070BDB3
:104C80000126F2E702FB0100704700BF401A80B224
:104C9000B0FBF2F0704700BF531E11449BB242B10B
:104CA000DB43CA18013811F8013D00F8013F914279
:104CB000F9D17047014402E010F8013B1BB988426A
:104CC000FAD1002070470120704700BF10600860D3
:104CD000704700BF0A6803460068904205BF002283
:104CE0000A6000201A60704710B4146820601468CD
:104CF000616010BC10607047884203D01AB14368ED
:104D000013607047002070470B68834209D02AB1B6
:104D1000586810601A680A6018467047002BF9D16D
:104D2000FAE70023F8E700BF2DE9F041DFF834800F
:104D30000B4E0C2706F130044546221D214628461D
:104D40000C3CFFF7C3FFB442A5F10805F5D1043FC1
:104D50003B1DA8F12008A4F13006EBD1BDE8F0819D
:104D60001C0D00208C0C002030B403460C469AB178
:104D700001EB41010801144D03EB430100EB8101FC
:104D80002944487A0D7AA84204BF013008722146AE
:104D9000184630BC0CF004BF01EB41020A4D120171
:104DA00000EB400302EB83032B449D7ADA7AAA429C
:104DB00001D030BC7047054D01329A7201236B540B
:104DC00030BC0CF033BF00BF980C0020940C0020C6
:104DD00070B51C4606460D4622B363782278D21A77
:104DE00012F0030205D0012A40D00133DBB2237058
:104DF0000FE03022042112FB05110C2212FB0612D7
:104E000001331B496068DBB20A4423702146FFF777
:104E10006BFF184B3046012229465A550CF006FF0D
:104E2000002070BD0CF0E4FE0028D6D029463046A4
:104E30000CF0CAFE0028D0D005EB450211010C4849
:104E4000637806EB460201EB82020244917AD27A41
:104E50009142C3D12278D21A920702D00233DBB238
:104E60002370D4E902039847002070BD104670BD3E
:104E7000980C0020940C00204E490B5C002B00F095
:104E800098802DE9F04F4C4B4FF03C0B87B000223F
:104E90000BFB003B0A5400EB40070BF104010392AB
:104EA00003EB071701924FF0030988460290002395
:104EB000D7E9090105AA0593FFF71EFF07F12406AC
:104EC0008346002834D0059C25786378ED1A05F0D8
:104ED0000305012D06D1013B6370D4E90203984715
:104EE000059C637894F800C0B86AACEB030303F048
:104EF0000303012B4FF0000231465FFA8CFA0DD00C
:104F0000FFF702FF62782378C4F804B09B1A03F01D
:104F10000303012B84F801A044D0B86A014605AA16
:104F2000786AFFF7E9FE012D834629D00028CAD10F
:104F300097F82E3097F82F209A4203D087F82F3019
:104F40000123019397F82C3097F82D209A4203D033
:104F500087F82D300123039309F1FF395FFA89F9AE
:104F6000B9F1FF0FA7F10C07A1D1DDE9013AB3B107
:104F7000039BA3B91A46514650460CF011FE0EE0B1
:104F8000B9F1000F01D10028D2D0DDF808A0094AFC
:104F900001235146504602F80A300CF047FE07B094
:104FA000BDE8F08F6270214658464246FFF79CFEEE
:104FB000B3E77047940C0020980C0020A1B14B1E61
:104FC000DBB210B4411EC418002011F8013F3BB100
:104FD0005BB25A1E1340013013F0FF03C0B2F7D189
:104FE000A142F2D110BC7047084670472DE9F04F3E
:104FF000AD4D83B00446032701260421204609F065
:10500000FBFF6378E27894F802C020784CEA022C27
:1050100040EA03204FF0000840EA0C40C3464FEA44
:10502000DC3CC1461E234FF0010A1AE008F10101E1
:105030000E2BC9B25FFA83FC40F28A80CAB3944651
:10504000CE461C2B40F21D811B2B40F2F08019290B
:1050500039D088469246BEF10C0FF14633D0013B61
:1050600039D320FA03F202F001026245DED10AF1DF
:105070000102072BD2B240F2C480062A77D906FA81
:1050800003F2BCF1000F51D020EA0200CE464FF0EF
:10509000000C08F101010E2BC9B288BF0122D6D83D
:1050A000F14500F0A18019290DD088464FF0010A82
:1050B000D5E7CE460122052B75D9062A54D11929E8
:1050C0004FF0000CC5D1013306FA03F3BCF1000F19
:1050D00053D05B42184080EA050301930DF1040CA4
:1050E0000DF1080E00221CF8013B3BB15BB2591ECA
:1050F0000B40013213F0FF03D2B2F7D1F445F2D1E5
:10510000012A09D983B2B3EB104F4FEA104237D1CD
:10511000C3B2B3EB106F33D1013F17F0FF077FF439
:105120006CAF6FF00D0003B0BDE8F08F1043414647
:10513000CE464FF0010C8845ABD00E2B8BD8CE4518
:105140008DD141460EF1010E5FFA8EFE52467EE78A
:1051500009F1010EBCF1070F5FFA8EFE40F2948058
:10516000002A40F09A8001224FF0000C69E7BCF160
:10517000000F10D14146CE469FE7013B1843AAE7F6
:10518000C0F30721130A207000206170A270E37041
:1051900003B0BDE8F08F062A02D14146CE4658E75B
:1051A0004146CE464DE7BBF1000F0CD0BCF1040FD9
:1051B00083D8BBF1010F06D9BCF1030F3FF67DAFD9
:1051C000BBF1020F09D806FA03F210430BF1010BF1
:1051D0005FFA8BFB4FF0010CADE7062A3FF46FAF8F
:1051E00029B14FF0000C2FE74FF0010AAAE706FAA9
:1051F00003F2072B40EA020088BF4FF0010C9AD857
:10520000E4E7BCF1000F2AD00BF1010B062A5FFA8C
:105210008BFB1DD906FA03F220EA02004146CE4676
:105220000BF1FF3B5FFA8BFB4FF0000C83E701298A
:105230003FF60DAF06FA03F2BCF1000FD9D0072BF1
:1052400020EA020088BF4FF0000C3FF674AFE7E79A
:10525000A3D0B8F1000F0AD04146CE46F4E6062AA4
:105260000AD906FA03F210434146CE46AEE706FAE3
:1052700003F24146CE46E2E74146CE465FFA83FC62
:1052800019E70029D6D0DFE6002A3FF413AF0BF16F
:10529000010B5FFA8BFB9446D6E6012901D09446B8
:1052A000D5E601FA03F2CAE7D6BE898E2DE9F04FA2
:1052B000827F8DB001230492C377002A5BD1437FA4
:1052C000FF2B814656D00BF071FED9F8142099F8C7
:1052D0001C3099F81D60801AFF2B20F07F4B00F0E6
:1052E0003A81D9F818305B4594BF0023012301931C
:1052F000FF2ED9F800704FF0000866D0CDF8089066
:1053000006EB460607EB06143601A2685A455AD842
:1053100094F802A06378BE5DA3EB0A03DBB2012B15
:10532000ABEB020B90444CD1A06968B3019B002BFE
:1053300000F08D80E38B0393A36A3BB11A681AB126
:105340001A7A002A00F0F48000221A72039A94F864
:105350002C10013292B2E283002932D0A18B91420B
:105360002FD2002B00F0FA801A7A012A29D04FF0B0
:10537000010C0EE0C2770DB0BDE8F08FDDE909B891
:10538000DDF820A00B9E4C46A36A002B40D04FF0C6
:10539000000C00221A72E5685A600AF1FF33A3700C
:1053A0007DB1029B62695869616A2369A8EB0202B8
:1053B000104420F07F40BCF1000F39D04FF6FF724F
:1053C000A847FF2E9CD1DDF8089099F80B3099F88A
:1053D0000A209A420AD10132D2B2022A1CBF1346D5
:1053E0000493049A89F80B2008BF002309EB830378
:1053F000D9F82440C3F80C80002289F81F204B46BE
:10540000012204210320A4460DB0BDE8F04F6047FF
:10541000E5680AF1FF33A370002DD2D0029B6269C8
:105420005869616A2369A8EB0202104420F07F40AA
:10543000E28BA847A26900239A42019AE38318BF2E
:105440000122FF2E0192E3707FF45AAFBBE794F97B
:105450002D300593803397D0FF2E95D0E38BA28B10
:105460000393934228BF9B1A05996268CDF820A048
:10547000591A03FB02230693CDE909B80791334675
:105480000025A1460B9600922CE0009CAAEB080890
:10549000002C48D0069C0AFB0C8844458CBF4FF07A
:1054A00001084FF0000834BF4FF0010A4FF0000A26
:1054B000B14292F803B099F803200FD3934543D833
:1054C0001EF1800F40D0079AACEB0E0C944502DD24
:1054D000B8F1000F38D0059A724532D0FB5CFF2B33
:1054E0003FF44CAF1BB203EB430307EB03121B016A
:1054F000D2F808804544A842FFF440AF91690029E2
:10550000ECD0D18B968BD2F804A092F92DE0B14269
:105510008C4628BFA1EB060CBAF1000FB5D1009C58
:10552000D046002CB6D1DDF800A04FF00108BFE74F
:10553000A28B03998A423FF607AF4FF001021A721D
:1055400004E7BAF1000FC9D0DDE909B8DDF820A001
:105550000B9E4C46F0E6049B0193C9E6E5680AF110
:10556000FF33A370002D3FF42CAF029B60695A6992
:10557000616A2369A8EB0000104420F07F401DE71A
:10558000C27F002A40F01F862DE9F04F837AC17A4E
:105590008FB083464069059099424FF001008BF827
:1055A0001E0000F096800344DBB2022B08BF1346B6
:1055B0000BEB83028BF80A30D368059A0293D31859
:1055C00023F07F43CBF8143001230D939BF809306F
:1055D0009BF81D200692DBF80020DBF804100793EF
:1055E00004921A46013B0C91DBB2002A00F01583AD
:1055F00001EBC30600230893FF2301933746D946E6
:105600007B68079397F803C0BB78BA46079998461A
:1056100003EB430203EB8202581C634501EB820556
:10562000C3B200F082819AF80000984208BF0023BC
:105630008AF8023011F82220042A40F27481072AE5
:1056400000F286806978049C01EB410004EB0014B1
:105650000001A7780A906078C01B10F0FF0077D097
:10566000052A65D0012837D199F81DC0D9F8006006
:10567000BCF1FF0F17D00CEB4C00614506EB00109E
:1056800000F09080002301E0614570D0E64690F87C
:1056900000C0D0F80880BCF1FF0F0CEB4C00434475
:1056A00006EB0010F0D10026052AA66000F0268146
:1056B000677099F81C308B4222D0EB6A002028706A
:1056C000A8620BB1296B98479AF803C09AF8023088
:1056D0009CE70D92029279E704214B460122D9F80A
:1056E00024400846A0470C9A8AF8028057460123B6
:1056F000BA420893A7F1080300F01E811F467FE716
:10570000FF23072A89F81C3040F0DD816868D9F84A
:105710001430C21A140200F1CD8122F07F43029AA4
:105720001344D9F818209A4288BFC9F81830C4E742
:105730006E68002E96D1AE68002E93D1EE68002ED2
:1057400090D12E69002E8DD16E6936F07F4689D1B9
:10575000EA6A002101202970A862002A3FF456AFAE
:10576000296B90479AF803C09AF802304EE70EEB87
:105770004E07714506EB071716D00178D0F808C020
:105780003970FF2906D001EB410106EB0111886851
:10579000604488600CEB0306052AA66009D0A77850
:1057A000697885E707460023027889F81D202A7862
:1057B000E3E7D9F8147003970BF0F8FB029BA0EB1A
:1057C000070C2CF07F473B449E42804640F2A2806B
:1057D0006269F31A6668002E53D0A88A002850D058
:1057E000013880B29E42E18BA88225D206F1010BDE
:1057F0000B9211E000F1E87000F5D43000F5A570CF
:10580000DE46099A0139A3EB0E0389B2801A9E4243
:10581000E18360620ED2A88A884280F0B281D4E926
:105820000820DFF8D0E20992B14A86449645E1D8D3
:10583000B646E6E70B9AA88A884221D9206A0990E1
:1058400006F1010E0B9207E06062B346A88A0131AF
:1058500089B281425B4411D2099A606ADFF894B23E
:105860001044A34A83449345EED8A0F1E870A0F514
:10587000D430A0F5A5706062F346E7E70B9AE183A8
:10588000A083D5E9010EA66A03447244A360626155
:1058900036B1316821B1A0EB0E007060A368626977
:1058A0001CF4000F21D13B4493421BD99B1A0022C8
:1058B000A3606261E968A3692A690B44934288BFC7
:1058C0009B1AAA7D98BF0023A36102B1E270049BDA
:1058D0000A9A1946019B8B5463786A7801920133C6
:1058E0006370EAE6D21A0023E2E70399A1EB080706
:1058F00027F07F479F4213D2DB1BD5E7D9F81470FE
:1059000003970BF053FB029BA0EB070C2CF07F4797
:1059100080463B4461690B449A1B6261002359E74E
:105920003A44D21ADFE7984672E60C9A5746BA42D2
:10593000A7F108037FF4E2AE99F81D70069BDB1B0C
:1059400018BF012307930D9BCB46002B40F06D81C0
:1059500099F80920D9F80030D9F804100493531E9F
:105960000991DBB2002A00F0108101EBC3080D9B06
:105970000393D8F8043098F801600593019BFF2B3E
:105980005ED0DDF804A0049B0FFA8AF404EB440413
:105990004FEA041C03EB041413F80C3001930025A8
:1059A000FF222270DBF800709BF81D3007EB0C0023
:1059B0009342816818BF029211D193E0B1EB0C01C0
:1059C00006D1BEF81EE0B0F81E90F14500F2D68078
:1059D00017F802C00293BCF1FF0F77D0634603EBC8
:1059E000430C07EB0C1E4FEA0C12DEF808C08C4586
:1059F000E4D9029A8160FF2A03706CD18BF81DA054
:105A0000FF2B06D003EB430307EB0317BB68591AC0
:105A1000B960A37801336370002DAFD0EB6A039AAD
:105A20002A70AA6213B1296B002098476368002B83
:105A3000A4D1D5E90B23C4E90823019BFF2BA0D1F6
:105A400098F80230B3422ED0059F98F8000006EB7C
:105A5000460206EB8202013617F82210F6B2B04277
:105A600008BF0026042907EB82051AD195F801A08A
:105A7000049B0AEB4A0C03EB0C144FEA0C1C6178F4
:105A8000A378C91A11F0FF0136D0039B07F8223022
:105A9000EB6A0122AA6210460BB1296B984798F86D
:105AA0000230B342D1D1099A4245A8F108036AD025
:105AB00098465EE7029A1B1A23F07F439A428CBFF6
:105AC000D31A00232DE60BF071FA20E61A46816006
:105AD00080F800C0634612B202EB4202120107F8DE
