:10100000404E0020E9710000F192010019720000C9
:10101000197200001972000019720000000000002F
:10102000000000000000000000000000B16F0000A0
:1010300019720000000000005D6F0000D9920100ED
:10104000A9710000D5230100A9710000A971000059
:10105000A9710000A9710000A9710000A971000028
:10106000A9710000A9710000A9710000A971000018
:10107000A9710000A9710000A9710000A971000008
:10108000A9710000A9710000A9710000A9710000F8
:10109000A9710000A9710000A9710000A9710000E8
:1010A000A9710000A9710000A9710000A9710000D8
:1010B000A9710000A9710000A9710000A9710000C8
:1010C000A9710000A9710000A9710000A9710000B8
:1010D000A9710000A9710000A9710000A9710000A8
:1010E000A9710000A9710000A9710000A971000098
:1010F000A9710000A9710000A9710000A971000088
:1011000053B94AB9002908BF00281CBF4FF0FF316E
:101110004FF0FF3000F06EB9ADF1080C6DE904CE70
:1011200000F006F8DDF804E0DDE9022304B07047C2
:101130002DE9F047089D0E4604468C46002B40F0F2
:1011400081808A42174645D9B2FA82F24AB1C2F189
:10115000200106FA02F320FA01F1974041EA030C5C
:1011600094404FEA174E230CBCFBFEF6B9B20EFBBF
:1011700016CC43EA0C4306FB01F0984209D9FB1850
:1011800006F1FF3C80F01581984240F21281023E48
:101190003B441B1AA4B2B3FBFEF00EFB103344EA2F
:1011A000034400FB01F1A14209D93C1900F1FF33CE
:1011B00080F00181A14240F2FE8002383C44641A72
:1011C00040EA064000211DB1D4400023C5E9004398
:1011D000BDE8F08702B9FFDEB2FA82F2002A4FD1F1
:1011E000CB1B4FEA174E1FFA87F80121B3FBFEFC19
:1011F000260C0EFB1C3346EA034608FB0CF3B342F5
:1012000007D9BE190CF1FF3002D2B34200F2EB80D5
:101210008446F61AA3B2B6FBFEF00EFB106643EA54
:10122000064408FB00F8A04507D93C1900F1FF333C
:1012300002D2A04500F2D2801846A4EB080440EA8E
:101240000C40C0E78B4208D9002D00F0AF80002190
:10125000C5E900060846BDE8F087B3FA83F1002926
:1012600049D1B34202D3824200F2BB80841A66EBBA
:10127000030301209C46002DAAD0C5E9004CA7E736
:10128000C2F120039740D8409140DE404FEA174E0C
:1012900008434FEA104CB6FBFEF11FFA87F80EFB2D
:1012A00011664CEA064601FB08F3B34204FA02F465
:1012B00009D9BE1901F1FF3C80F08E80B34240F2A3
:1012C0008B8002393E44F31A86B2B3FBFEF00EFB6C
:1012D000103346EA034600FB08F3B34207D9BE19B0
:1012E00000F1FF3C74D2B34272D902383E44F31A83
:1012F00040EA01417AE7C1F1200703FA01F422FA3A
:1013000007F31C4320FA07F906FA01F34FEA144CDD
:10131000FE4049EA03094FEA1943B6FBFCFE1FFAF7
:1013200084F80CFB1E6643EA06460EFB08FAB2453B
:1013300002FA01F200FA01F308D9A6190EF1FF3002
:1013400048D2B24546D9AEF1020E2644A6EB0A06B3
:101350001FFA89F9B6FBFCF00CFB106649EA064659
:1013600000FB08F8B04507D9A61900F1FF3C2DD2C3
:10137000B0452BD90238264440EA0E40A6EB0806B9
:10138000A0FB02894E45C446CE4618D315D075B38E
:10139000B3EB0C0266EB0E0606FA07F722FA01F32E
:1013A000CE401F43C5E90076002111E729462846B3
:1013B0000EE76646EDE6184601E74345E7D2B8EB8F
:1013C000020C69EB04040138A646E0E76046D3E767
:1013D00060468CE78646B9E7614674E702383C44CC
:1013E0002BE7084647E7ACF1020C3E4411E72946DB
:1013F000EEE600BF704700BF2DE9F04FB34C94F804
:10140000D6608FB006F00106002800F0CA81CEBB7E
:1014100094F87C7094F8290094F82C204FF0270958
:101420002D2309FB074700F0030019FB0239FF23B6
:1014300084F82A3010F012F994F8D600410707F129
:101440007D0704EB090800F12A8114F809003146F0
:10145000C0F3801008F01EF806220146054608F188
:10146000020017F06FFF29460622B81C17F06AFF2A
:1014700014F809305A060AD413F00E0F40F0E78032
:10148000636A93B10C2630460FB0BDE8F08F062199
:1014900008F1020006F0A6FA002800F03C8214F8D9
:1014A000093013F00E0FEBD0D1E00AF0CFFF8246E7
:1014B000002800F057820AF0D5FF8346002800F08C
:1014C0006A820CF05FFB0546002800F061824FF64F
:1014D000FF73806FAB8505F11C030B93002800F0B0
:1014E0003D8205F16C0205F1680106F087FAB5F856
:1014F0006420774995F840C095F83DE095F8DC0008
:10150000744B2B660A4042F4887242F0010295F84F
:101510002611A5F86420002262F3000C20F00300DD
:1015200021F0030185F840C00EF03F0E4FF01B1C68
:101530006EF07F0E85F8DC0085F826117F20664965
:10154000C5F85CC04FF0060CC5E9132285F83F20B2
:101550006A866A636A65A5F8C820A5F8CC20A5F854
:10156000E82085F8EA20C5F80021A5F80421A5F8AF
:101570001821C5F82021A5F8242185F82F2185F808
:101580003DE085F8C100A5F8C4C0C5F81C11C5F838
:1015900030A1AA6795F872E195F89AC195F87E0096
:1015A00095F85211A5F87C2062F3C30C62F3041E77
:1015B00021F0070120F01F00A5F85021A5F87021A7
:1015C000A5F89821A5F8A42185F89AC185F872E1BB
:1015D00085F8521185F87E000CF022FEA5F8D600A1
:1015E0000CF024FED5F8A8313C49A5F8D8001940E4
:1015F000C5F8A8110CF020FE95F8AC1160F30201BB
:1016000085F8AC110CF01EFEC4E933AB0B9B636292
:1016100095F8AC1195F820C0ED610301002203F0AC
:10162000700321F078010B4362F3000CC5E96E22D0
:10163000C5E96C22C5E90522C5F8C02185F8AC31A1
:1016400085F820C011F0EEFA002840F0708194F87F
:1016500028300121C3F342030DA88DF8343006F081
:1016600045FB002800F0968014F8093003F00F03C2
:10167000022B00F1FF3233D0012B00F05C8178782F
:101680001030C100002B00F04881062B00F088814B
:101690004FF4DA704FF41B7100FB02102BE0C0F323
:1016A000C000324604F1D70110F0E6F9FF2884F8B3
:1016B0002A0002D0304610F09DF84146034810F051
:1016C00013F80248394610F00FF8D1E6B42D002087
:1016D00080F8FFFF48014801FF4901000000FFF6C4
:1016E00098F801301033DB0000FB03F000F5AA701E
:1016F000642303FB020094F82070B54AE4610025DE
:10170000312365F30007A0FB0201236084F82070F9
:10171000ADA3D3E90023C4E90555C4E90155FFF79A
:10172000EFFCB4F8D480E06007F0AEFE0746B8F1F5
:10173000000F08D114F8095005F00F05A5F10105B7
:10174000B5FA85F56D0994F82820E36865F3000281
:1017500012F0010584F8282000F08780DFF88492D9
:101760009C490493002002250DF130080193059156
:10177000CDE907980321CDE9020006942A4600909E
:101780003B460C9507F070FD41460AF0F3FE002839
:1017900000F0AE80636A002B3FF474AE0BF0FCF9EE
:1017A00070E6002E3FF46EAE20460AF0F1FE844251
:1017B0000CD0894A89498A484FF4E56317F063F8E9
:1017C000404080F311884FF0030002DF94F8283086
:1017D000D8070DAD0ED502220D920321814B009545
:1017E0000122002007F0ACFD29460AF0C3FE0028C4
:1017F00040F0E080022203217A4B009500200D92F8
:1018000007F09EFD29460AF0B5FE002840F0AC80A6
:1018100075480AF0F9FE002840F0928073480AF0FB
:10182000C3FE84420CD06C4A6C496D4840F24A7346
:1018300017F029F8404080F311884FF0030002DFD1
:10184000636A0BB10BF0A8F994F8D63000206FF35F
:10185000000384F8D6300BF071FD0646002844D012
:10186000002630460FB0BDE8F08F6148614ADFF8CE
:1018700074E1DFF860C10694A8FB00014FF0910904
:1018800009FB081103F24718C2F800804FF0020963
:10189000049309920DF130084BA3D3E900234FF6CE
:1018A000FF7ACDE907E80295CDF83090CDF814C065
:1018B000CDF80CA0FFF724FC4A46CDE900503B468A
:1018C0002846032107F07AFC41460AF053FE00281F
:1018D0007FF460AF94F8D63043F0010384F8D6303B
:1018E0000BF02CFD0028BBD101200FF095FECAE5BE
:1018F000414905914AF2D8320092CDE90798CDE9E5
:101900000300CDE9010006943B46012203210C951A
:1019100007F0AAFCD8E71226B5E598F801001030C8
:10192000C00000F54D73194400F59A70B4E60BF051
:1019300033F90326A7E54FF4F2704FF47F71ABE65D
:10194000254A2E49264840F2477316F09CFF404036
:1019500080F311884FF0030002DF5FE705F17000AC
:10196000A867BEE507268EE520480AF01DFE8442E2
:101970003FF488AD40F24173174A1849184816F0F1
:1019800082FF404080F311884FF0030002DF79E5C9
:1019900058460AF06DFD50460AF05EFD072672E5D6
:1019A00098F801301033DB0003F54D70014403F566
:1019B0009A7071E60D480AF0F7FD84423FF462AD7B
:1019C00040F23373D8E700BF8D49FD1A07000000CD
:1019D00000CA9A3B0DC90000F0AA0100E0AB01006B
:1019E0008CA7010069C50000D02D0020B42D002077
:1019F000002AE784942E002015CB000000AA0100E5
:101A0000F8B5194E9DF8184096F8485015F00107A2
:101A100021D196F832C0DFF854E0A6F84210E40075
:101A200004F018040CF0670C44EAC01463F3420598
:101A3000A2FB0E0144EA0C04912303FB021186F879
:101A4000485007A3D3E9002386F83240FFF758FB3C
:101A500070643846F8BD0C273846F8BDAFF30080F7
:101A60008D49FD1A07000000B82E0020002AE784E7
:101A7000F8B59DF81840104E0546E400807DEA84D4
:101A800004F01804A3FB066700F06700912244EA03
:101A9000C111014302FB0377A97505A3D3E9002314
:101AA00030463946FFF72CFBA862F8BDAFF3008043
:101AB0008D49FD1A07000000002AE784000000009D
:101AC0002DE9F04F90F83230044600F1350190F8DE
:101AD000480003F0F903C0F3400060F386138DB0B3
:101AE00084F8323007F0D6FCB4F8426094F8203025
:101AF0004F48E4610025A6FB000165F30003912235
:101B000002FB0611C4E9055584F8203046A3D3E949
:101B10000023FFF7F5FA636C656006460933A6F10A
:101B2000310293424FF03101A56028BF6564216006
:101B300034BFE360E26007F0A7FC656A80460DF100
:101B40002C09002D4ED03B4DCDF82090B4F842A08A
:101B500039493748E268DFF8ECC00492651BAD08EC
:101B6000A1FB0535AAFB0001912303FB0A11334BAE
:101B700005934FF0000A2CA3D3E900230227CDF8E8
:101B80001CC006940B97CDF80CA0FFF7B9FA1046CD
:101B900019464FF47A720023FFF7B2FA6D08043544
:101BA000EDB22A46029043460321CDF800A05046EC
:101BB000019607F059FB49460AF0DCFC054668B976
:101BC00094F8483043F0010384F848300BF092F960
:101BD0000446F8B128460DB0BDE8F08F0C200DB0DA
:101BE000BDE8F08FE1680A954B460AAA03200B95E1
:101BF00002F0A2FA0B990029A5D011480AA3D3E953
:101C00000023A1FB0001FFF77BFA0A9B20F07F482D
:101C1000984498E738460FF0FFFC20460DB0BDE829
:101C2000F08F00BFAFF300808D49FD1A0700000060
:101C3000002AE784B82E0020BD86F21ABDD000002D
:101C400000CA9A3B69C500002DE9F04F0446808D1B
:101C50004FF6FF7398428DB00D46164600F089800E
:101C600094F8E93094F8E80083420ED0C01A00F0EE
:101C7000030002281BD094F82D2194F82C319A42AD
:101C800030D100200DB0BDE8F08F94F8527117F0FC
:101C90000108F0D194F8051194F804218A4200F06B
:101CA0008B83981E012284F8E90084F8EA2094F8D6
:101CB000983194F899219A4206D094F89A2102F02A
:101CC0000601042900F0BD8394F8EA707B1E052B01
:101CD00000F26483DFE813F07000FB02A2026203EB
:101CE0002503C701304805F033FE58B394F82C3172
:101CF00084F82D310379022243F00303427103710A
:101D0000C271D4F8B03194F82E2102722BB394F83A
:101D10005221910721D494F8AB21D2071DD4D4F8D5
:101D2000BC21934204BF1A68C4F8BC21D4F8B42182
:101D3000B2B91A68026018600368C4E96D000BB993
:101D4000C4F8C001B4F8CC0000289AD1B4F8C63069
:101D5000012B1CD9A4F8CC3093E7D4F8B421E2B11C
:101D6000D4F8B8311A6802601860C4F8B801036882
:101D7000E5E70E4A0E490F4840F2F32316F083FDC3
:101D8000404080F311884FF0030002DF68E7013321
:101D9000A4F8CC300DB0BDE8F08F0360C4E96C004E
:101DA000C4F8B801CBE700BFEC3100203CAC010027
:101DB000A4AD01008CA70100DFF85C84D8F80030E6
:101DC000002B00F0CC84E78E628E94F80631174425
:101DD000374413F00303BFB240F08E83B4F8EC90A5
:101DE000A7EB09021FFA82FA12043FF544AF94F8F8
:101DF000701194F8712194F8040184F805018A4265
:101E000094F8E80084F8E90009D094F8722102F00F
:101E10000702052A04BF84F87111A4F8CC30D8F861
:101E200000309C4204BF0023C8F80030D4F8008181
:101E3000B8F1000F00F0C185D8F80000002800F0CC
:101E4000BC85B4F80831E28D4168C4F800119342B2
:101E5000B4F80A11B4F80CC100F0D286A28DA8F82B
:101E600006204FF00C0E0022A8F81E30A8F8201013
:101E7000A8F822C088F804E088F81C2041460AF03F
:101E8000FDFA0AF005FB2368002B09DAD4E90112F8
:101E900023F000438A422CBFAD186D182360ED1A61
:101EA000E38DB4F8088113FB0AF39BB2B3FBF8F19E
:101EB00018FB01F292B293421FFA81FB80F06B850E
:101EC000D31AC94840F2E24202FB03F3A3FB00012C
:101ED000C3A3D3E90023FFF713F920F07F400544A3
:101EE000638EA9EB07071E4494F93D305F443744E5
:101EF00040F2E249002B678609FB08F6C0F2B4867F
:101F0000D4F81001B849B6A3D3E90023A0FB01011E
:101F1000FFF7F6F820F07F4909F101093746B4F8D8
:101F20000C21B4F80A11B14BA4F82E8042F21070C3
:101F300000FB0262AE48218633443044B3FBF6F323
:101F4000013AB2FBF6F2B0FBF6F6A4F8C62098B25E
:101F50008A1D9042A4F8D200A4F8CA6002DD401A9B
:101F6000063880B294F80631A4F8CE005E0744BF6C
:101F70000023A4F8C8300221012013F05BFA0022EC
:101F800002218246012005F087FD9A494FF4E47250
:101F9000204605F013FD00F105085FFA88F8964B1E
:101FA000009442460121002007F0CAF930F00203F4
:101FB0000CD0924A9249934840F6581316F063FCAD
:101FC000404080F311884FF0030002DF864EA7FBEC
:101FD000066783A3D3E9002330463946FFF790F81C
:101FE000894A20F07F4BABFB02230721B01A01FB8B
:101FF0000B3367EB03014FF47A720023FFF780F88D
:10200000824A8349E668834F034694F93D00029370
:1020100011EA200138BF11460020CDE904612B46AA
:10202000CDF804B008940694CDF800904246079786
:102030000390012107F018F930F002030CD06F4A29
:102040006F49704840F6721316F01DFC404080F353
:1020500011884FF0030002DFBAF1000F40F0EA856B
:102060006FF047000EE6E38E628E94F8EC50134456
:102070001E44EF07B6B2AB4600F1E482B4F8EE209E
:10208000B61A37043FF5F7AD94F8DC2094F8648075
:1020900094F865A094F8E810B4F8627084F8E91038
:1020A000D60708F007080AF0070A40F1CC85D4F8F3
:1020B0001C21100540F1C785B4F8D890B9F5296FF7
:1020C00028BF4FF42969B9F5A47F4FF4296338BFBD
:1020D0004FF4A4790B9315F01C0F40F0BF86B4F8B1
:1020E000606015F0E00F0CD094F8652094F85E0065
:1020F000690961F3020284F865200B9A0BF0A2F9DA
:10210000074694F8AC2194F86410D4F80051C2F357
:10211000C00262F3C30184F86410002D00F0A287AE
:102120002868002800F09E8794F8641094F86520D1
:102130004368C4F800311BF0020FC1F3020EC2F372
:10214000020C01F0070102F0070202D1884501F0FC
:102150004080A38DEB801022002385F81DE085F8D8
:102160001EC02A712B7729460AF088F9D4F800514D
:10217000002D00F094872868002800F09087B4F8BC
:1021800060304268C4F80021B34209D34B4507D8F8
:10219000B4F86230BB4203D30B9A934241F22D80D4
:1021A000A4F86060A4F862702B7FA28DEA8043F0EF
:1021B00003030221092229712B776A77B4F85E3074
:1021C000B4F85C202B841523AA84EB7729466F840E
:1021D000EE840AF053F90AF05BF94CE5AFF30080A6
:1021E0008D49FD1A0700000000CA9A3B7FC3C90150
:1021F000FF596202182F0020C1D700003CAC01003B
:102200001CAD01008CA701008D49FD1AB509010024
:102210004108010069D70000E030002094F8EC305C
:1022200013F003057FF427ADAF4805F091FB064698
:1022300000283FF420AD94F93D30002B80F26885F2
:1022400094F8ED50002D00F05183037994F8DC20D0
:1022500043F00303D207037140F1FE86D4F81C312A
:102260005B0740F1F986112203234572C2710372A4
:102270007771D4F8B031002284F8ED20002B00F003
:102280007F8394F85221950700F17A8394F8AB216B
:10229000D00700F17583D4F8BC21934204BF1A68BB
:1022A000C4F8BC21D4F8B421002A01F08F80D4F8FE
:1022B000B8311A6832601E60C4F8B8613368002B08
:1022C00000F0C68694F8E83084F8E930D3E4E38E71
:1022D000618E94F8EC200B441E44D007B6B200F196
:1022E0000C82B4F8F230F61A31043FF5C4AC94F81D
:1022F000E83084F8E93004F13805052204F1ED01F5
:10230000284617F01FF82846052105F0EFFC94F841
:102310003D30012260F3050384F83D3084F8C42188
:10232000A9E4714805F014FB00283FF4A4AC94F82C
:10233000E83084F8E930012302794371D4F8B031F0
:1023400042F0030212210271C171002B00F0C3821E
:1023500094F85221910700F1BE8294F8AB21D20784
:1023600000F1B982D4F8BC21934204BF1A68C4F8C2
:10237000BC21D4F8B421002A01F01680D4F8B83179
:102380001A6802601860C4F8B8010368002B00F0F6
:102390006185B4F8CA30A4F8CC306CE4534A54498F
:1023A000544840F2793316F06EFA404080F31188B9
:1023B0004FF0030002DF5EE494F8192194F818C18D
:1023C000624555D194F8252194F824C1624500F066
:1023D0000583A2EB0C02D1077FF54DAC94F82631B2
:1023E000DA0740F147879A0740F12E870AF074F820
:1023F0000146002871D094F8243184F82531037FF8
:10240000A28DC28043F003030B77022006220C2327
:1024100008714A77CB7794F82701B4F82A31B4F8D9
:102420002821A1F8212081F82000A1F82330086894
:102430000AF024F80AF02CF894F8E80094F8E9304F
:1024400014E402F00701062901F2448101A050F8CA
:1024500021F000BF05280000C91C0000C91C0000B5
:10246000C91C00006727000067270000C91C000086
:10247000A2EB0C02D3077FF5FEAB94F8DC1011F051
:10248000010700F08C840AF027F8074628B394F877
:10249000183184F81931037FA28DC28043F0030301
:1024A0000922022041463B7738717A77FA7707F1A3
:1024B0002000082216F071FFD4F8203187F8203070
:1024C000C3F307221B0C87F8212087F822303946F6
:1024D000086809F0D3FF09F0DBFF94F8E80094F8EE
:1024E000E930FFF7C3BB00BFEC3100203CAC01007A
:1024F0000CA801008CA70100012009F0CFFF804645
:1025000000283FF4B8ABB94805F022FA0646002887
:102510003FF4B1AB09F0E0FFD8F80030D4F8002167
:102520005A6094F80631C4F8008103F00303012BCC
:1025300000F0ED85022B00F0C285AD4AAD49AE48F2
:1025400040F6830316F09FF9404080F311884FF066
:10255000030002DF0021238E94F806C132793B4448
:10256000063398B26FF3010C0C23A4F8EC0084F846
:1025700006C142F003027371D4F810319F4F3271DB
:102580000022F271A7FB032394F8147122683772BA
:10259000B4F80871A6F80B70B4F80A71A6F80D70BB
:1025A000C3F38F23B4F80C71A6F80F70002AA6F8B5
:1025B0001100A6F80930C4F8F4500ADAD4E901038E
:1025C00022F0004283422CBFEB182B189A1AC4F851
:1025D000F4208B4B06F109000122C4F8F000D96009
:1025E000104602219C6005F08BFA002840F092858D
:1025F000D4F8B031002B00F02C8394F852219007CE
:1026000000F1278394F8AB21D10700F12283D4F89D
:10261000BC21934204BF1A68C4F8BC21D4F8B42189
:10262000002A00F0E386D4F8B8311A6832601E60E0
:10263000C4F8B8613368002B7FF41DABC4F8C061E7
:10264000FFF719BB022009F029FF074600283FF4D5
:1026500012AB664805F07CF9054600283FF40BAB49
:1026600094F8EC306FF30003C3F38200C3F342121B
:1026700050EA020884F8EC30DBB240F0C78594F8E9
:10268000E820A4F8EE80980784F8E92000F140865D
:102690004346414605226A7185F808802A796B72A3
:1026A000D4F8B031698142F0030218212A71E9712E
:1026B000002B4AD094F85221910746D494F8AB21CC
:1026C000D20742D4D4F8BC21934204BF1A68C4F89C
:1026D000BC21D4F8B421002A00F08086D4F8B831A7
:1026E0001A682A601D60C4F8B8512B68002B7FF46B
:1026F000C2AAC4F8C051FFF7BEBA3C4805F028F999
:10270000054600283FF4B7AA238E027994F8EC100E
:102710001E44B31DA4F8F2306FF30001012342F010
:102720000302082084F8EC102A716871EB7105220D
:1027300004F1ED01281816F005FED4F8B031B4F814
:10274000F220A5F80D20002BB4D1D4F8B421002A32
:10275000C4D12B60C4E96C55C4F8B851C6E7C8F8B9
:102760000040FFF730BB02F00702B4F89CC1B4F898
:10277000A011B4F89E91B4F8A281A4F85EC0042A16
:10278000A4F8621000F01A8594F89A31062262F3D8
:10279000020384F89A31D4F80071002F00F0A3846A
:1027A0003868002800F09F843B7F4268B4F82CE032
:1027B000C4F8002143F0030302223B774FF0090ADB
:1027C0001523A7F806E0A7F820C079843A71FB77B3
:1027D0003946A7F82490A7F8268087F81DA009F0AD
:1027E0004DFE09F055FEFFF76FBA00BFEC31002037
:1027F0003CAC01000CA801008CA701005917B7D10F
:1028000068030020C04805F0A3F800283FF45CAA44
:1028100094F89A21B4F89E11B4F8A231A4F8D61015
:102820000127A4F8D83067F3020284F89A21092717
:102830000279477194F8DC70D4F81CE1818142F090
:10284000030202711B224FF0140C00210272FA07DE
:1028500080F807C0417240F135841EF4006F00F02B
:102860003184B3F5296F28BF4FF42963B3F5A47FF2
:1028700038BF4FF4A4734FF42961D4F8B0214181DB
:10288000C381002A00F0008494F852319B0700F1C4
:10289000FB8394F8AB31DF0700F1F683D4F8BC3149
:1028A0009A4204BF1368C4F8BC31D4F8B431002B89
:1028B00000F0AF85D4F8B8311A6802601860C4F827
:1028C000B8010268002A00F01F85B4F8CA30A4F8E5
:1028D000CC30FFF7F9B9D4F8B421002A7FF44EAD1B
:1028E0000360C4E96C00C4F8B8014FE504F17F0748
:1028F0003B462A4604F1EE0104F25D1011F0EAFFB6
:102900003946102204F1A00016F01CFD082204F143
:10291000980104F1B90016F015FD94F8972094F889
:10292000B81094F87E3084F88F5042F0010265F3BD
:10293000000143F00803012084F8972084F8B810C0
:1029400084F87E3084F8905084F8915084F8925046
:1029500084F8935084F8945084F8955084F89650F5
:10296000C4F8B050C4F8B45032797071D4F8B031B2
:1029700042F0030205213271F171002B7FF481AC2A
:10298000D4F8B421002A7FF492AC3360C4E96C66B9
:10299000C4F8B86193E408FB113340F2E2425B48AB
:1029A0009BB202FB03F3A3FB000155A3D3E9002371
:1029B000FEF7A6FB2D1AFFF793BA554A554956481C
:1029C00040F6B40315F05FFF404080F311884FF0EC
:1029D000030002DFD8F80000FFF733BA94F871C1A2
:1029E00094F87021944500F06182DFF83081D8F8C6
:1029F0000020002A00F0AD8494427FF43CA994F8B2
:102A0000722102F00702052A00F24E860FF2040C32
:102A10005CF822F0212B00007D2A00002D2A000006
:102A20006D1C00006D1C00006D1C0000BB073FF515
:102A300022A909F051FD014600283FF44EAD037F65
:102A400094F87221032060F30202034384F8722198
:102A5000A08D0B77022718230F714B77B4F87421E0
:102A6000B4F87631C880B4F878010A84B4F87A21D1
:102A70004B840F238884CA84CB7729E594F873713B
:102A8000002F40F0F58494F93D30002BC0F21585FD
:102A900094F8723194F87C01C4F81071052262F345
:102AA0000203012284F8723184F81421002800F016
:102AB000C485B4F87431B3FBF0F3134413FB00F393
:102AC0009BB294F8722194F80601A4F80831C2F37D
:102AD000C0039B0020F0070243F002031343B4F845
:102AE0007801B4F87A2184F80631013984F80511A7
:102AF000A4F80A01A4F80C21FFF7BDB8AFF30080D9
:102B00008D49FD1A07000000EC31002000CA9A3BF5
:102B10003CAC0100C0AD01008CA70100E0300020FA
:102B2000D948B4F83690B4F832A004F011FF074643
:102B300000283FF4D2AC027994F87211042060F3BB
:102B4000020142F00302182084F8721109EB0A0313
:102B50003A717871B4F87401B4F87611B4F8782148
:102B600038813344B4F87A017981BA810F21002287
:102B7000A7F811304FF0FF33F881F9713A74FA7405
:102B80003A757B75BB75FB753B767B76BB76FB76C2
:102B90003B777B77BB77394620460AF0A5FC226855
:102BA000B4F8CA30C8F80040002AC4F89051A4F81C
:102BB000CC300ADAD4E9011322F000428B422CBF58
:102BC000EB186B189B1AC4F89031B04B13370122E5
:102BD000C4F88C71104602219C6004F091FF00281B
:102BE0003FF47BACAA4AAB4940F66B33AA4815F0D8
:102BF0004AFE404080F311884FF0030002DF6CE48E
:102C0000228E8A427FF42AA940F2E24202FB03FBB1
:102C100042F21072B4F8C6E002FB0CB2013AB2FB09
:102C2000FBF292B296457FF419A9032388F8043089
:102C3000FFF724B901221046022104F02DFF6FF0A6
:102C40004700FFF71FB84FF4A479CDF82C90FFF799
:102C500042BAD4F8B421002A7FF4E5AC3360C4E969
:102C60006C66C4F8B861E6E4E26C636C8B4F03FBFE
:102C70001A23E36411F016F8804694F8DC00C0F3E0
:102C8000820011F011F808EB000306FB03F38448FF
:102C9000E26C94F8141103F5742303F23F23A0FBB4
:102CA00003034FEA934808FB0BF073080244963B7A
:102CB0009A4209FB01FC28BF1A464FF0000EC4E9F6
:102CC0001232C4F844806EA3D3E90023A0FB0701AD
:102CD000C4F854C0C4F8E4E0FEF712FAD4F8103196
:102CE00084467048A0FB0330800A09FB00F0A0FB7B
:102CF000070163A3D3E90023A5EB0C05FEF700FA57
:102D0000A6EB080720F07F49B4F80881FFF707B960
:102D100004F17F073B462A4604F1EE0104F25D1000
:102D200011F0D8FD3946102204F1A00016F00AFB7C
:102D3000082204F1980104F1B90016F003FB94F89D
:102D4000971094F8B82094F87E3084F88F5043F0B0
:102D5000080365F3000142F0010284F8971084F83B
:102D60007E3084F8905084F8915084F8925084F822
:102D7000935084F8945084F8955084F89650C4F891
:102D8000B050C4F8B45084F8B820311D20460AF081
:102D9000B5FDD4F8B031002B7FF473AAF0E53A48C2
:102DA00004F0D6FD804600283FF497AB94F8193123
:102DB0003D4AC4F81C21013B092284F819314271B3
:102DC00094F93D200379002AACBF08220E2243F07B
:102DD0000303C271082203713946104416F0DDFA6C
:102DE000D4F81C3188F80830C3F307221B0C88F88C
:102DF000092088F80A30D4F8B031002B00F0678140
:102E000094F85221970700F1628194F8AB21D00722
:102E100000F15D81D4F8BC21934204BF1A68C4F864
:102E2000BC21D4F8B421002A00F01883D4F8B831BA
:102E30001A68C8F80020C3F80080C4F8B881D8F830
:102E40000030002B00F09C82B4F8CA30A4F8CC30DB
:102E5000FFF743BBC4F8C001FFF79BBA94F86420A6
:102E600094F85C00C5F3820161F3020284F86420E7
:102E70004A460AF0E7FA0646FFF733B9AFF3008097
:102E80008D49FD1A07000000EC3100207803002076
:102E90003CAC010028AA01008CA7010000CA9A3BA3
:102EA00083DE1B435917B7D1FF49010094F898718D
:102EB00094F89921BA4200F03C8194F89A1101F0FB
:102EC0000702062A00F203840FF2040C5CF822F0D9
:102ED000792F00006D1C00006D1C00006D1C0000AF
:102EE000ED2E0000ED2E00006D1C0000B4F89C31AA
:102EF000A4F85E3001F00703B4F8A021B4F89E9165
:102F0000B4F8A281A4F86220042B00F09D820B4645
:102F1000062262F3020384F89A31D4F80071002F7C
:102F200000F07F823868002800F07B823B7F426897
:102F3000B4F82CC0C4F8002143F003033B7702220D
:102F400009237B773A71B4F85E10B4F862207A8472
:102F50001523FB77A7F806C03984A7F824903946D3
:102F6000A7F8268009F08AFA09F092FA94F8E800A6
:102F700094F8E930FEF77ABEB64804F0E9FC014661
:102F800000283FF4AAAA94F89A21B4F89E01B4F854
:102F9000A231A4F8D6000127A4F8D83067F30202C2
:102FA000092784F89A210A794F7194F8DC70888196
:102FB00042F0030214204FF0000C0A71FF07D4F80E
:102FC0001C21C8714FF01B0081F809C0087240F144
:102FD0003782100540F1BB82B3F5296F28BF4FF44B
:102FE0002963B3F5A47F38BF4FF4A4734FF429626B
:102FF000D4F8B001CB81B2F5A47F38BF4FF4A472EE
:103000004A81002800F0FA8194F852319B0700F1C0
:10301000F58194F8AB31DF0700F1F081D4F8BC31D1
:10302000984204BF0368C4F8BC31D4F8B431002B13
:1030300000F02D83D4F8B8311A680A601960C4F81A
:10304000B8110B68002B7FF4FFAEC4F8C011FBE68B
:10305000C4F8C061FFF736B90D233572F37102274A
:10306000FFF706B97C4A7D497D4840F62D6315F08F
:103070000AFC404080F311884FF0030002DF28680B
:1030800094F8ECB0FFF750B8D4F8B431002B7FF4CB
:1030900011AC0260C4E96C00C4F8B80112E46E4AD5
:1030A0006E496F4840F6596315F0EDFB404080F3E0
:1030B00011884FF0030002DF2868FFF760B8694904
:1030C000FFF749BA4FF4A4731946FFF7D6BBD4F8FB
:1030D000B421002A7FF4AAAEC8F80030C4E96C8895
:1030E000C4F8B881ADE65C4A5C495D4840F6FD43F2
:1030F00015F0C9FB404080F311884FF0030002DF58
:103100003868B4F85EC0B4F86210FFF74DBB56499A
:10311000FFF721BA504A5549514840F63E0315F091
:10312000B2FB404080F311884FF0030002DFFFF74D
:103130005FBA94F8A82194F8A91191423EF49BAD8E
:1031400094F8AA1101F00300032800F01D82002862
:103150007EF491AD3F4804F0FBFB014600283FF4AC
:10316000BCA994F8AA3194F8AC2194F8AB71012071
:1031700060F30103C3F3820060F30202C3F3421061
:1031800060F30612C7F34007087984F8AA3167F3A1
:10319000C30284F8AC21C3F3820C40F00300C3F3F4
:1031A0004213032716220871CA7181F808C04B72B6
:1031B0004F71002220460AF097F945E6B4F8A421A1
:1031C000002A40F0E08084F89931A4F8CC20FFF781
:1031D000E2BA92457EF4BDAF03232B71294609F074
:1031E0004DF9D4F80051002D00F0B781286800286F
:1031F00000F0B3814368C4F8003103232B712946E2
:1032000009F03CF909F044F9FEF735BD238E1E4460
:10321000B31DA4F8EE3009F05FF93B68D4F8002143
:103220005A60C4F8007109F057F90368D4F8002116
:103230005A6094F8EC30B4F8EE10C4F80001C3F30F
:1032400082085B09FFF726BA40F61C33024A084998
:10325000CCE400BFEC3100203CAC0100C0AD01006B
:103260008CA70100094300005D10010028AA01009D
:103270000CA80100C04804F06BFB00283FF42DA906
:1032800094F8252194F82631013A84F82521027911
:1032900043F00103062184F8263142F00302417114
:1032A000D4F8B03102710B216FF00E020C270172BD
:1032B000427205214FF0FF32C7718172C2720273F0
:1032C000002B79D094F85221970775D494F8AB214C
:1032D000D10771D4D4F8BC21934204BF1A68C4F852
:1032E000BC21D4F8B421002A00F0A181D4F8B8316F
:1032F0001A6802601860C4F8B8010368002B7FF4F4
:10330000A3ADC4F8C0019FE5C4F8C001FFF7DDBA62
:1033100009F0E2F81023A28D87F81C803B7194F825
:1033200064303868FA80C3F302037B7794F8653021
:10333000C3F30203BB77394609F0A0F809F0A8F8F7
:1033400094F8EC30B4F8EE10C3F382085B09FFF791
:10335000A1B994F8723103F00703052B00F2A481A0
:1033600001A252F823F000BF212B00007D2A0000AB
:103370002D2A0000771C0000771C0000771C00003D
:10338000C4F8C08160E594F89A01B4F8A671A4F875
:103390009E21002363F3020084F89A01A4F8A4316B
:1033A000A4F8A271FFF7F7B91A6802601860036801
:1033B000C4E96D00FEF7EABFD4F8B421002A95D124
:1033C0000360C4E96C00C4F8B80196E71A6832607B
:1033D0001E603368C4E96D66FEF771BF1A682A6023
:1033E0001D602B68C4E96D55FFF780B91A6832601B
:1033F0001E603368C4E96D66FFF71DB9D4F8B431B7
:10340000002B7FF417AE0860C4E96C11C4F8B81142
:1034100017E61368036010600268C4E96D00FFF7E7
:1034200051BA564A5649574840F6FD4315F02BFA13
:10343000404080F311884FF0030002DF386875E5E3
:103440004FF4A4731A46D3E5B4F8A421002A40F03F
:10345000DD8084F89971A4F8CC205EE51A68C8F87C
:103460000020C3F80080D8F80030C4E96D88E8E493
:10347000414804F06DFA014600283FF42EA8037974
:1034800043F003030B71112003220F23C8714A710B
:103490000B7294F873314B72204600220AF024F824
:1034A00094F8703184F871310023C8F8003094F832
:1034B000E80094F8E930FEF7D9BB2F4804F048FA49
:1034C000014600283FF409A80379182243F00303BA
:1034D00003714271B4F87421B4F87631B4F878010C
:1034E0000A81B4F87A214B8110238881CA81CB717B
:1034F00094F87C310B74B4F87E31B4F88001B4F8E0
:103500008221A1F81130B4F88431A1F81300B4F885
:103510008601A1F81520B4F88821A1F81730B4F875
:103520008A31A1F81D30A1F81900A1F81B2020460E
:103530003A4609F0D9FF94F8703184F8713194F863
:10354000E80094F8E930C8F80070FEF78FBBD205A8
:103550004FF4A47369D5A8224AE5084A08490948E6
:1035600040F63C6315F08FF9404080F311884FF02E
:10357000030002DF28683DE6EC3100203CAC01008E
:10358000C0AD01008CA70100080784F8A921C1F390
:1035900082025ED594F8AA21022161F3840284F8A4
:1035A000AA2194F8AA2157064FEA521149D50221BF
:1035B00061F3471284F8AA2194F8AA1194F864C020
:1035C00094F8650094F8AB21C1F382070CF0070C66
:1035D00000F00700C2F38002BC4508BF002752007C
:1035E000B0EB511F42F001024FEA511108BF002118
:1035F00042EA4112023B42EA8702062184F8E9309E
:1036000084F8EC2084F8EA10FEF75EBB00200B463D
:1036100060F30203A4F89E21B4F8A62184F89A313D
:10362000A4F8A401A4F8A22177E41A46E0E41A68F9
:1036300002601860C4E96D005FE6B4F87631FFF708
:1036400040BAC8070FD5012161F3471284F8AA21B7
:10365000B2E7D10710D594F8AA21012161F38402C1
:1036600084F8AA219DE711F0040118BF042161F339
:10367000471284F8AA219FE712F004020DD094F8B3
:10368000AA21042161F3840284F8AA2189E703684E
:103690000B600160C4E96D11D3E494F8AA1162F3E0
:1036A000840184F8AA117CE7124A1349134840F6B2
:1036B000294315F0E8F8404080F311884FF00300EB
:1036C00002DF94F8E80094F8E930FEF7CFBA40F64C
:1036D0002553BBE5074A0849084840F6255315F02D
:1036E000D2F8404080F311884FF0030002DFFEF76C
:1036F000EBBA00BF3CAC01000CA801008CA7010094
:103700002DE9F04F9C4695B05CF80C6B1D46136894
:1037100086460C4660462E31174605F1080A0322FC
:10372000D3F80090CDF828E005F11C0815F00AFE4A
:1037300004F12A010422504615F004FE04F13A0176
:103740000522404615F0FEFD4046052104F0CEFA64
:1037500095F8213000F03F0060F30503012885F85B
:1037600021300AD994F83F3003F01F02053AC3F321
:1037700004010B2A85F8221002D915B0BDE8F08F9C
:103780003A6896F8DC1000209060B4F83480A5F810
:10379000128094F8362094F837005B0942EA002240
:1037A00063F38401AA82638E86F8DC10ADF83030B2
:1037B00010F078FA034696F8DC000B93C0F3820011
:1037C00010F072FA0B9BDFF828C394F83110AA8A24
:1037D00040F2E24B0BFB08F8184408FB00F000F540
:1037E000742000F23F20ACFB00C04FEA580C800C64
:1037F0000BFB01F1ACF1960CA862C5F82CC0E96393
:10380000218FB14BADF8361042F2107C0CFB0181D8
:10381000AE48434402F1060C0139B3FBF8F3B1FBA7
:10382000F8F1A6F8C61099B261454044A6F8D21046
:10383000B0FBF8F0A6F8CA0002DD891A063989B291
:10384000A6F8CE100422514606F1E00015F07AFDEC
:10385000237F04F11E0A5146C3F38013062212A8E7
:103860008DF8403015F06EFD237F4FF48072A283F7
:1038700099F82A0097F812B0C3F340128DF83C2053
:103880000B920EF0E7FB0146062204F12B00002903
:1038900040F0ED8015F081FD04F12503BBF1FF0F31
:1038A0000E9304F11F0300F0EB801A465146584670
:1038B0000DF000FEA27F0E980232A27712A9062216
:1038C00015F040FD96F8DC30698AAA8AA286C3F317
:1038D000820384F83830BDF83630E386618630469E
:1038E0000AF05CF921462882E0807C680A9808F09A
:1038F000C5FD2B8AE3800F2323710B9B2068002BCF
:1039000000F0BA8095F809E02B7A95F80BC0A97AF7
:1039100095F8212041EA0C2143EA0E234B4042F066
:10392000400201216B8485F821202177214608F08F
:10393000A5FD08F0ADFD95F84900012100F0070054
:103940000FF0D0F8624A4FF0000A8346312300F2AC
:103950005240A0FB02013360C6E901AA58A3D3E993
:103960000023FDF7CDFBFC68BDF83020AD6A20F0E8
:103970007F4040F2E24303FB023302215246F060F3
:10398000A4F5AE7401201C4404F086F8484609F002
:1039900097FA821C4F4BCDF80090D2B250460121CD
:1039A00005F0CEFC0128A8EB0508A4EB0B047FD0A2
:1039B00099F82830DB0773D430460AF0EFF8DFF8C7
:1039C00010B1A8FB0B893EA3D3E900230546494665
:1039D0004046FDF795FB404A069620F07F4AAAFB39
:1039E0000223072101FB0A3340F23D11BF68089111
:1039F0003A4907913A490591B8EB020069EB030196
:103A0000F368049300264FF47A7200230396FDF7BF
:103A100077FB2BA3D3E900238446A4FB0B01CDE95C
:103A200001ACFDF76DFB053520F07F40EDB2313F75
:103A30003B4600902A463046012105F015FC30F047
:103A400002030CD0274A284928484FF49F7314F0EA
:103A50001AFF404080F311884FF0030002DF01227B
:103A60001046022104F018F815B0BDE8F08F04F1FB
:103A7000240115F067FC0FE79DF83C30237755E7EC
:103A80000E9811930622002115F087FC9DF8403016
:103A9000A377119B12A91846062215F053FC11E7D3
:103AA0000023012200931846114605F049FC83E7E4
:103AB00008F086FD81453FF47BAF0CF09DFE77E773
:103AC0008D49FD1A070000007FC3C901FF5962023A
:103AD00000CA9A3B250801008D49FD1AC90701005B
:103AE0004108010060AE01001CAD01008CA701007F
:103AF00083DE1B43000000002DE9F041D0E90BC735
:103B0000D0F828800CEB07043034A0450E4615464B
:103B100018D81B4F18A3D3E90023ACFB0701FDF70E
:103B2000EFFAA4EB080420F07F40306012A3D3E941
:103B30000023A4FB0701FDF7E3FA20F07F40286093
:103B4000BDE8F0810E4C0CA3D3E90023A8FB0401CF
:103B5000FDF7D6FA20F07F4307F130003360A0FB79
:103B6000040105A3D3E90023FDF7CAFA20F07F4042
:103B70002860BDE8F08100BF8D49FD1A07000000F4
:103B800000CA9A3B000000002DE9F04F0E7F174657
:103B9000126891B00C464FF0000A1D46C2F808A00A
:103BA000C6F3C013D2F800908DF8343024310622C9
:103BB00080460EA82E6815F0C5FB237FA4F81CA034
:103BC000797C97F812A0C3F3401211F001018DF82F
:103BD00030200B9204F12B004FF0060200F0EF8032
:103BE00004F11E0115F0AEFBBAF1FF0F04F125033D
:103BF00004F11F0B00F0ED805A46504604F11E01FF
:103C00000D930DF057FCA27F0D9B0232A2770EA9F7
:103C10001846062215F096FB6B8AAA8A6386B9F8C5
:103C20003030E386A28610F03BF884F83800304646
:103C300009F0B4FF034628822146E38040467C68B1
:103C400008F01CFC2B8AE3800F2323710B9B206858
:103C5000002B00F0B08095F809E02B7A95F80BC0A6
:103C6000A97A95F8212041EA0C2143EA0E234B4022
:103C700042F0400201216B8485F821202177214602
:103C800008F0FCFB08F004FC95F84800DFF880A180
:103C9000C0F3C00100F007000EF022FF00248346AD
:103CA000312300F252403360C6E9014450A3D3E906
:103CB0000023A0FB0A01FDF723FAB5F812C0FB6848
:103CC00020F07F40F06022460221012040F2E248CD
:103CD00008FB0CF8A3F5877503F0DEFE484609F0F3
:103CE00011FB021DD2B2444B00920121204605F087
:103CF00027FB2346032201210094204605F020FBE8
:103D0000304609F04BFF069640F2C923BF683B4A94
:103D100008933B4B07920593F368049388FB0A8949
:103D200000F1050C32A3D3E90023404649465FFA6F
:103D30008CF60394FDF7E4F9104619464FF47A72B5
:103D40000023FDF7DDF92AA3D3E900238446494681
:103D50004046CDF808C0FDF7D3F9A5EB0B05844626
:103D600023A3D3E90023A5FB0A01CDF804C0FDF786
:103D7000C7F9313F20F07F403B4600903246204655
:103D8000012105F071FA30F002030CD01D4A1E49E2
:103D90001E4840F2CA2314F076FD404080F311889B
:103DA0004FF0030002DF01221046022103F074FEEF
:103DB00011B0BDE8F08F9DF8303023775FE715F044
:103DC000ECFABAF1FF0F04F1250304F11F0B7FF4A5
:103DD00013AF18460622002115F0DFFA9DF83430A3
:103DE000A3770EA95846062215F0ACFA14E700BFD7
:103DF0008D49FD1A070000008109010085090100B5
:103E0000B5090100D4AE01001CAD01008CA7010072
:103E100000CA9A3B000000002DE9F04F93B0044621
:103E2000099090F93D00E4680D940028B8BF14345F
:103E3000CDE90B1207934FF0FF024FF00003B8BF1C
:103E40000D94CDE90F331C9EDFF8E4928DF83B20F2
:103E500092461F4606921C469B4605931D4603E06C
:103E6000069333789C4258D211AB0293AA4B01932C
:103E70000FAB022100930DF13B0210AB002011911A
:103E800005F0A4FA022800F0B880119B002B4FD156
:103E90009DF83B30FF2B5CD0BAF1FF0F11D0109A88
:103EA0005A450ED09D499E484FF4BB734A4614F0C4
:103EB000EAFC404080F311884FF0030002DF9DF8D8
:103EC0003B309A1E032A31D8052BC9D1069BFF2B04
:103ED00028D1002009F06AFE099B834226D00B9965
:103EE00090F93D203378002940F09380002AB9DB17
:103EF000C268DDF83C80DDF82CA028320A920C9ACA
:103F000012684245C0F094800A9ADDF840B09DF8EE
:103F10003BA005929C424546A6D39DF83B30FF2B23
:103F200000F0ED80347013B0BDE8F08F337899E77E
:103F30007C497B4840F26D134A4614F0A4FC404093
:103F400080F311884FF0030002DF9DF83B30FF2B18
:103F5000A2D10C9B1A683378954238BF1546A3420C
:103F600045D9059BDFF8C481EB18A3FB080107279F
:103F700007FB031166A3D3E90023FDF7C1F86A4BE1
:103F8000A3FB0020079AC0F38F218A424FEA9020BA
:103F900040F2A3801C960FF2781BDBE900AB1D9E5C
:103FA00099460BE0FDF7ACF8A9FB0030079BC0F386
:103FB0008F218B424FEA902040F28E8006EB440C1A
:103FC000090A06F814008CF801101C9991F800C039
:103FD00005990134283501EB050EE4B2AEFB08016A
:103FE000A44552465B4607FB0E11DBD81C9E0C9B7A
:103FF0001D60347013B0BDE8F08F119B022B7FF46D
:1040000044AF0221002005F027FA119B022BF8D0C3
:104010003BE7002AC168DDF83C8052DA01F13C023E
:104020000A920C9A126842454FF0140ABFF46CAF22
:10403000954238BF15469C423CD2059B0D9A1C9672
:1040400013449A44CDF820A0DDF874A01BE0FDF7DE
:1040500057F8354B079EA3FB0030C0F38F27B742BC
:104060000AEB440204F101034FEA17214FEA9020C2
:1040700005F1280535D20AF8140051701C9A1278FF
:10408000DCB2A24223D92946404605F0FFF9059B40
:10409000264A089E2B448446B445A3FB02014FF0F8
:1040A000070202FB03114FF0000B19A3D3E9002311
:1040B000CDD21C9E0C9B1D60079BBB4216D933784A
:1040C00022E701F128020A924FF0000A17E70C9B41
:1040D0001C9E1D60337817E71C9E0C9B00251D60FD
:1040E00087E70C9B1C9EC3F800B05D469DF83B30F3
:1040F000FF2B3FF42EAF347013B0BDE8F08F0C9B54
:104100001B689D4238BF1D4671E700BFAFF30080BA
:1041100000CA9A3B00000000411001000CA80100F9
:104120008CA701005CAF01005917B7D18D49FD1A6A
:1041300018AF0100000000002DE9F04F8FB01C46C1
:10414000FF26099304310023DFF81081DFF810B156
:10415000DFF810A1DFF8109123608DF82F6004962E
:1041600005930446089115460C9306930DAF0CAECB
:104170004FF0020CCDE9018700962B460DF12F027E
:1041800021460020CDF834C005F020F902282FD0B8
:104190000D9B002B32D19DF82F30FF2B3ED0052BED
:1041A000E6D1002009F002FD0028E1D090F93D3071
:1041B000002BDDDB0499C3680C9AFF2903F104038B
:1041C0000CD0069907931046049205F05FF9059B01
:1041D000089A99188842049A079B22D8CDE905329B
:1041E0009DF82F300493C3E72146002005F034F9F1
:1041F0000D9B022BF8D00D9B002BCCD052235A469E
:104200005146484614F03FFB404080F311884FF080
:10421000030002DF9DF82F30FF2BC0D1049BFF2B42
:1042200010D0DDE905320C481344A3FB000107223E
:1042300002FB031106A3D3E90023FCF761FF099BEE
:10424000803018600FB0BDE8F08F00BFAFF3008082
:1042500000CA9A3B000000008D49FD1A4110010080
:1042600018AF01005CAF01008CA701000000000046
:1042700070B51C4682B01546064601AA022001957B
:10428000FFF75AFF23680BB30198431B1B021FD48F
:10429000294605F0FBF81A4B0246A0FB0301072351
:1042A00003FB021114A3D3E90023FCF729FF2268C2
:1042B00002442260002A09DB40F2E24101FB06F0E1
:1042C000904203D2121A9042FCD3226002B070BD19
:1042D0000146284605F0DAF8094B0246A0FB030127
:1042E000072303FB021104A3D3E90023FCF708FF13
:1042F0002268121A2260DDE700CA9A3B0000000023
:104300008D49FD1A000000002DE9F041B0F8802130
:1043100088B0054640F2E243454805AE03FB02F390
:10432000002783FB000106243FA3D3E90023776025
:104330000597B7608DF80F40FCF7E2FE0DF10F0214
:104340000196B5F87631009204460121284604AA68
:104350000494FFF761FD9DF80FC00CF1FF34E4B247
:104360000DF11603394603EB44042F4605F10C0EFC
:104370004FF6FF7097F8813197F8802142EA0322C7
:104380000FFA82F8BCF1000F09D03346824203D005
:104390001988914217D0012102339C42F6D102378D
:1043A000BE45E7D1F1B9BDF81430D5F8F01040F2B0
:1043B000E24202FB03F2180AC5F810210B704870A4
:1043C00008B0BDE8F081D5F8F01040F2E24303FBFD
:1043D00002F3120AC5F8103181F800804A7008B063
:1043E000BDE8F08195F8E82095F8703185F8E9206E
:1043F00085F871310CF0E2F9D5F8F03013F8052C9E
:1044000003252A4311240F20202103F8052C03F84B
:10441000045C03F8024C03F8010C197008B0BDE805
:10442000F08100BFAFF300808D49FD1A0700000046
:1044300000CA9A3B000000002DE9F04F83B004460B
:1044400010F0ECFC10F0FF0F0AD10EF05FFBA0485B
:10445000214610F0A1FB03B0BDE8F04F10F0B0BC56
:1044600010F0FCFC5FFA80F810F082FDC6B210F08C
:1044700089FD074610F0AAFFC5B210F095FF8246ED
:1044800010F03EFD81460EF041FB002E40F0AB8067
:10449000002D40F0BA80FF27B8F1000FD7D0A37DE0
:1044A000190700F1A880002E40F0E781012008F0F4
:1044B000E9F88046002800F0F781A3685FFA89F6E2
:1044C000002B00F0D680A37D1A0740F1E28198F816
:1044D0001C0010F00F0340F09E8098F81D30252B33
:1044E00000F2A481042008F0CDF80028AFD010F02D
:1044F0006DFEA36A814643B9E28C40F2712303FB4F
:1045000002F3B0FBF3F203FB120923687148DB6886
:104510000722A3FB000102FB03116BA3D3E90023D5
:10452000FCF7EEFDA0F242334B4590D310F0C2FCF5
:10453000D4F808B010F0A0FC98F81C300278C3F34F
:104540008013DB0102F0500243F0250313432222C3
:1045500003704270824638460DF08AFDE37D00907C
:10456000DA0701460AF1020040F1B581002900F0A6
:10457000B2819AF8003043F040038AF800300622F6
:1045800014F0E0FE062208F11E010AF1080014F002
:10459000D9FE04220BF108010AF10E0014F0D2FE3C
:1045A00003220BF10C010AF1120014F0CBFE0123DF
:1045B0008AF81530BBF81230019310F007FED4F8DA
:1045C000109000F5DB63B9F1000F00F0AA810199AA
:1045D00040F2E24202FB01F2B9F1000F01DB4B4570
:1045E0007AD99144F8E7A07DF9B2C0F3C0000DF08C
:1045F0005DFD074650E7002E7FF458AF38460DF0BA
:1046000011FE00287FF452AF21E75FFA8AF00DF027
:10461000B7FD074640E7012B40F0E08098F81D30D9
:104620000C2B7FF414AF08F12409C00949463A461F
:104630000DF0A6FE00287FF455AFE37DDB0700F107
:10464000F781A37D98F81C00C3F38012B2EBD01F52
:1046500000F02882C3F3C10398070AD598F91C30EB
:10466000002B06DA98F8293003F0C003402B3FF402
:1046700039AF98F81C0010F00F0340F0AF8098F8A5
:104680001D30252B3FF6E3AE94F91620002A03DAFD
:10469000A268002A00F06C81252B98BF4FF000091A
:1046A00000F2C480002B3FF4D2AEA368002B7FF44D
:1046B000CEAE002D14BF3946FF214A4630460FF0DA
:1046C0000DFAC4E6AFF3008000CA9A3B0000000078
:1046D000313801008D49FD1ACD499AF81520A9EB12
:1046E0000303A1FB0313C3F38F230132AAF816308F
:1046F0008AF81520BBF81210BBF81420A38AAAF878
:104700001C30AAF81810AAF81A200BF11C01052277
:104710000AF11E0014F016FE9BF822209AF82330AE
:1047200062F304038AF823300FF0BAFA9AF82330C0
:1047300060F347138AF82330504610F013FB10F053
:1047400063FB002840F0F380B248214610F024FAC1
:10475000002E40F00881237943F00102DB0722712B
:1047600000F1F38007F0ACFF0A23064603714FF611
:10477000FF73242298F81C80C38051461C3014F02B
:10478000E1FD337FB460C8F3401868F34513337715
:1047900010F0C0FC00213061084610F0F3FA002D43
:1047A00008BFFF27B776E27DA9EB000012F00102F7
:1047B000706103D0009B1A1E18BF0122737E62F342
:1047C0000003737607F07CFF3146F060306807F035
:1047D0008FFF03B0BDE8F04F07F09ABF062B71D0F2
:1047E000022B75D0012B21D198F81D300C2B7FF4B2
:1047F0002EAE08F1240AC00951463A460DF0C0FD1C
:104800008146A8BBA37D98F81C00C3F38012B2EBCD
:10481000D01F00F01481C3F3C103980704D598F9A1
:104820001C30002BC0F2158198F81C0000F00F001E
:1048300004287FF40CAE98F81D30252B3FF607AE08
:10484000A37DDA077FF503AE10F016FB98F81C3055
:104850000278C3F38013B3EBD21F7FF4F8AD0830B6
:10486000062208F11E0114F05DFD00287FF4EFAD73
:1048700098F81D304FF0000914E7394628460DF02E
:104880000DFD00287FF412AEA37D1B077FF5DFAD81
:104890000CE6FF2F2ED0237EDB1BB3FA83F35B09DC
:1048A000002B7FF414AEE4E65B4A5C495C4840F2BE
:1048B000972313F0E8FF404080F311884FF0030086
:1048C00002DFFAE598F81D30252B7FF6DDAEADE767
:1048D00098F81D30E0E6A37D9AF80020C3F380131A
:1048E00063F386128AF8002004F11901062214F0FD
:1048F00029FD47E698F81C00C3F34013C0F380126B
:1049000093427FF4B8AE062208F11E0104F11F00A5
:1049100014F008FDB0FA80F35B09002B7FF4D7ADEB
:10492000A7E68AF816908AF817909946E2E63A4A7E
:104930003C493B484FF4447313F0A5FF404080F3DB
:1049400011884FF0030002DFFEE6334A364934484F
:1049500040F2363313F097FF404080F311884FF058
:10496000030002DFFEE610F0BDFA8BF8A500F2E6C8
:10497000962010F01DFB002010F082FA002D14BFCD
:104980003946FF21304600220FF0A8F800287FF4B6
:104990005EAD10F071FA98F81C300278C3F3801302
:1049A000DB01054602F0700243F0030313430C22BF
:1049B0002B7038466A700DF05BFBE37DDE07014625
:1049C00053D5002851D02B78284643F0400300F8F7
:1049D000023B062214F0B6FC08F11E01062205F186
:1049E000080014F0AFFC284610F0BCF910F00CFAE7
:1049F000002849D110F0E2FBA37D0C4843F00103ED
:104A00002146A37503B0BDE8F04F10F0C5B800BF54
:104A10005917B7D17D3A0100E4B2010030B301006B
:104A20008CA70100B4B2010000AA01004D380100BA
:104A300038460DF01DFB00287FF41BAE01E6514601
:104A4000062204F1190014F06DFC002835D0A37D76
:104A5000E1E698F8293003F0C003402B7FF4E4AE80
:104A600098F81D304FF001091CE6A37D2A78C3F3A6
:104A70008013284663F3861200F8022B04F1190113
:104A8000062214F05FFCA7E70D4A0E490E4840F2DB
:104A9000913313F0F8FE404080F311884FF003008B
:104AA00002DFA7E74946062204F1190014F03AFC98
:104AB00000283FF417ADA37DCCE598F81D30F1E553
:104AC000E4B20100B4B201008CA7010008B50020D7
:104AD00000F0BAFD20B10348BDE8084013F0D3BE92
:104AE0000148F9E7D0B60100E5B601002DE9F04F25
:104AF00087B00F461946109B9DF844B09DF848A01A
:104B00001F4C06461425104698464FEAE37950EAB2
:104B1000010319D1142D139C14BF013530232C44EB
:104B200008BF8DF81430152C1BD0153C002C1ADC56
:104B30001DF8050039460135B047152DF8D1002C78
:104B400019DC07B0BDE8F08F42464B46FCF7D8FAB7
:104B5000A25C0DF8052084460B4660461946013DCF
:104B6000D5E70024E4E7BBF1000FE1D03946504619
:104B7000B047013CDAE739465046B047013CDEE732
:104B800000B701000B6801330B60014B1B6818472D
:104B9000100000202DE9F04F002687B005468B4617
:104BA0001C4602F1FF3A4FF0FF3837464FF000093C
:104BB00007E0B9F1000F0BD1252800F00A81594612
:104BC000A8471AF8010F0028F3D107B0BDE8F08F0D
:104BD0007A280AD8622810D8302851D044D82528FD
:104BE00000F0F5802D2800F0FB8059462520A847CD
:104BF0009AF800005946A847D8E7A0F16303172B9D
:104C0000F3D801A252F823F0C74D0000C94C0000B0
:104C1000EB4B0000EB4B0000EB4B0000AB4C0000FB
:104C2000C94C0000EB4B0000EB4B0000AB4C00000C
:104C3000EB4B0000EB4B0000EB4B0000434D000042
:104C4000EB4B0000EB4B00008F4D0000EB4B0000E6
:104C5000C94C0000EB4B0000EB4B0000714C000016
:104C6000EB4B0000AB4C0000392815D95828BCD1BB
:104C70009AF80030702B6ED154F8042B002375E0A5
:104C8000B8F1000F0BDA002F00F0AC80A0F1300873
:104C9000002F08BF022794E7B8F1000FF6DB0A23C4
:104CA00003FB0808A8F13008F2E7682803D1682E52
:104CB00006D1482685E76C2802D16C2E00F094803E
:104CC000002E92D106467CE77A2E06D1A14659F8ED
:104CD000042BD317752823D10FE06C2EF6D04C2E61
:104CE00005D1073424F00709F9E80223F2E7752813
:104CF000226804F1040912D10023F81E18BF012014
:104D0000012F0CBF3024202401900A20CDE9024855
:104D1000009059462846FFF7E9FE4C4646E7D31770
:104D2000002A73F10001E8DA59462D20CDE9042369
:104D3000A847DDE90423524263EB430308F1FF383F
:104D4000DBE759463020A84759467820A8474FF05E
:104D5000080801278CE76C2E8ED04C2E8CD1E31DD9
:104D600023F007031C465B6854F8082BF81E18BF95
:104D70000120012F0CBF30212021CDE90218102184
:104D80000190009128465946FFF7B0FE0EE754F80F
:104D9000043B99464A4619F8010B78B9032F25D1EF
:104DA000A2EB0309A8EB0909B9F1000F7FF7FEAEEA
:104DB00059462020A84709F1FF39F5E759460493E1
:104DC000A847049BE6E754F8040B594613E75946F5
:104DD00011E74E464F464FF0FF384FF00109F0E61D
:104DE0000327EEE60127ECE64C26EAE68146E8E6F4
:104DF00007B50B46002102460191034801A9FFF7C0
:104E0000C9FE03B05DF804FB854B00002DE9F84FA7
:104E1000B0F8189019F00808044693460DD00129FF
:104E20000CBF49F0100949F02009A0F818908BF345
:104E30001188BFF36F8FBDE8F88F09F007090229C9
:104E400007D1204613F02CFD0028F0D00128238B39
:104E500050D16769218B002F15DA256821F00701F1
:104E6000C4E9008841F0010121830026218B01F073
:104E7000070ACA4502D0A368002B5CD10DB9002EE9
:104E800074D0002358E001F007035A1F012A20D8EC
:104E900021F00701062B256889B2C4E900880CD1EE
:104EA000002D2B4638BF00232BB1628B1B680132CB
:104EB0006283002BF8D141F002012183204613F0D8
:104EC000EFFC06460028D1D0238B43F02003238338
:104ED000CBE7042B0CD121F0070189B221832046B6
:104EE00013F0DEFC05460028BFD041F020012183ED
:104EF0000025BAE7032809D1226923F007031668C1
:104F000043F00603238300252F46AFE7042806D18C
:104F1000226923F00703566843F00403F2E70528EB
:104F200006D1226923F00703966843F00503E9E7F9
:104F300000252E46E8E7012341F0080121838BF389
:104F40001188BFF36F8F03BB002D33D116B12149F8
:104F50002046B0474FF02003EFF3118B83F3118805
:104F6000BFF36F8F238B23F008032383238BDA0691
:104F700028D523F0100323830121B4F8189009F0F9
:104F8000070900297FF45BAF51E7A1680029DBD056
:104F90000B68D1F804B0002B38BF00239946524665
:104FA0003B462046D847B9F1000FCDD0D9F80030A4
:104FB0004946EEE729463B46524620462D6813F007
:104FC0008BFCC1E713F020011EBF23F020032383D5
:104FD0000221D2E705890100F0B5104B104C114DAC
:104FE000E41AA4106C43104DD5F824C00025A54246
:104FF00002D16FF02200F0BD5F6867450AD31E69D9
:1050000046B197F802E00779BE4503D13346BDE8C3
:10501000F040184701352433E9E700BF7806002047
:105020009C060020398EE338180B00202DE9F04152
:10503000124B134C134DE41AA4106C43124DD5F8C7
:1050400024C00025A54203D16FF02200BDE8F08105
:105050005E6866450ED39F6967B196F8028090F846
:1050600004E0F04503D13B46BDE8F04118477679AE
:10507000012EF8D001352433E4E700BF7806002084
:105080009C060020398EE338180B00202DE9F843E8
:105090000F4C104B17461B1B0F4A9B1005460E4624
:1050A00002FB03F94FF00008C14502D16FF0220066
:1050B0000BE063691BB908F101082434F4E73A46B0
:1050C0003146284698470028F5D1BDE8F88300BF4F
:1050D000780600209C060020398EE33807B58378D7
:1050E0008DF800300379427943EA0223ADF80230AB
:1050F000C378684603F003038DF8043001F060FCC8
:1051000010F1450F04D018B1002003B05DF804FB86
:105110009DF8000001F0D4FC10F1450F01D00028EB
:10512000F2D1024B012083F8B900EEE7180B002002
:105130002DE9F14F254B264C264F1B1B9B105F433F
:10514000031F012B05460E4625D8234B93F8B920A3
:10515000984602B300F002FD042D1CD14FF0000967
:105160004F4515D0D4F820B04FF0000A227F5FFAE7
:105170008AF39A4203D809F101092434F0E70BEBD2
:10518000C3030AF1010A187901F0BEFC0028EDDA28
:10519000002388F8B9300E4C4FF00008B84508D10C
:1051A0000D4B1B6A7BB13146284601B0BDE8F04F7C
:1051B0001847E3681BB1324629462046984708F154
:1051C00001082434EAE701B0BDE8F08F9C06002016
:1051D00078060020398EE338180B00202DE9F04FB7
:1051E000B04DAB6985B006460C46904663B933783E
:1051F00003F01F03012B00F08880022B00F0D18008
:1052000043B16FF0150002E098470028EFD105B0D8
:10521000BDE8F08F72787088D8F80030092AF0D88D
:1052200001A151F822F000BF5152000003520000CA
:105230000352000003520000035200005D520000C0
:105240006752000003520000955200009F52000078
:105250000020012258701A7002236FE0C0B201F0E2
:105260009FFB0020D3E7020A131F012BC9D9072A8D
:10527000C7D86B6A0021C0B21D78002DC1D05E78FE
:10528000964203D1884200F0F58001312B44F3E7C8
:105290001B78F5E095F8BA201A700123F0E0C7B248
:1052A0008DF80F7077B14FF0FF086C6A0026C14689
:1052B000237853B9EB691BB10DF10F010320984717
:1052C000002E9ED085F8BA70CBE76378042B0DD002
:1052D000052B0ED0022B06D194F805809DF80F30D7
:1052E000434508BF012623781C44E1E794F8039066
:1052F000F9E79DF80F304345F5D1B9F1000FF2D130
:105300002046FFF7EBFE0646EDE795F8BA30002B96
:105310003FF477AF6F6A96F804903B4619780029FE
:105320003FF46FAF5A78022A03D11879484500F24A
:10533000A9800B44F2E7002018700123236066E780
:1053400096F802B0FF26B2464FF000083B783BB912
:10535000EB6913B14146072098470020206056E7CB
:105360007B78042B04D0052B0BD03B781F44EDE752
:10537000BE7897F803A0B145F7D1D34508BFB8462A
:10538000F3E7B145F1D1D34507D0B878019000F0EB
:10539000BDFB019801F0B8FBE7E73846FFF79EFE3A
:1053A000E3E73079D8F800808DF80F0030F0800CFA
:1053B0001CD03D4B3D4A3E49D21A92104A434FF011
:1053C000000E72457FF61DAF196A93F81C900027F6
:1053D00004395FFA87FACA4503D30EF1010E24336C
:1053E000EFE7013711F837A08245F2D17378012B2E
:1053F00013D0032B28D0002B7FF403AFBCF1000F98
:1054000004D095F8BA30002B3FF4FBAE414601F0D2
:105410003DFB002088F801001EE77388002B7FF415
:10542000F0AEBCF1000F04D095F8BA30002B3FF479
:10543000E8AE01F00DFBEB69002B3FF412AF0DF16C
:105440000F01092098470CE77388002B7FF4D9AE31
:10545000BCF1000F04D095F8BA30002B3FF4D1AE68
:1054600001F0D0FAEB69002B3FF4FBAE0DF10F0118
:105470000820E7E7022AC8F800307FF409AF5B880C
:105480002360EEE67078D8F800300A283FF453AF76
:105490000B283FF455AF00287FF4B3AE1870587056
:1054A0002260B4E6180B0020780600209C0600203D
:1054B000398EE33808B509480378C3F341130A333A
:1054C00050F823303BB100F1080200F11001984779
:1054D000C043C00F08BD1846FCE700BF180B0020F2
:1054E00013B50D4C237D7BB9E268A168019201AB35
:1054F000802013F032FD0199A268E3680A445B1A28
:10550000A260E36002B010BD00231A461946802055
:10551000237501F017FBF5E7180B002030B585B0B7
:105520000B46002102460191002856D1002B33D1B1
:1055300008220DEB020113F089FE002804DA802016
:1055400001F060FA05B030BD294CBDF80E3002996B
:105550002160802B03999DF80820616006D9D1094C
:1055600004D1802001F04EFA0020E9E721492361AF
:10557000C4E90213002121750BB1D309E2D0FFF772
:1055800099FF0028DBD0E28823699A42D4BFE26009
:10559000E360FFF7A5FFD5E7154CD4E90215002D10
:1055A00001AB04DC13F052FE0028CBDAC7E72A4631
:1055B00013F04CFE0028D4DB0199A268E3680A448A
:1055C0005B1AA260E360002BBCD104F13803A36036
:1055D000FFF770FF0028DCD1B1E78028B2D1044B7F
:1055E000DA68002AD5D11B7D002BD2D1AAE700BFF3
:1055F000180B0020500B0020054B064A9A62064A01
:10560000DA62064A1A63064A58629A6100207047B5
:10561000180B0020DD510000D94F00008D50000014
:105620002D500000074B10B593F8B84024B900F096
:10563000AFF918B1FFF7E0FF002010BD4FF0FF30C9
:10564000FBE700BF180B00202DE9F7430446374D58
:1056500037484FF0FF324FF0FF3312F013F995F84F
:10566000B860002E42D133482C62E86101F074FB2F
:1056700001F046F9041E3ADB00F0B4FA041E36DBF2
:1056800040236846ADF802308DF804608DF8006064
:1056900001F096F9041E2ADB802768468DF8007019
:1056A00001F08EF9041E22DB2349304601F042FB53
:1056B000041E1CDB2049384601F03CFB041E16DBAF
:1056C0001E4C1F4B1F4A1B1B9B1002FB03F9B145CD
:1056D00014D1002001F0F4F9041E08DB802001F051
:1056E000EFF9041E03DB012385F8B83000241048CD
:1056F00012F040F9204603B0BDE8F083D4F82080D2
:105700000027237FFAB2934202D801362434DEE721
:1057100008EBC20358F83210187901F00BFB01377F
:105720000028EED04FF0FF34E1E700BF180B002057
:10573000F4040020315100001D55000078060020BF
:105740009C060020398EE33830B51C4B89B003AA83
:1057500003F1100518685968144603C40833AB42B6
:105760002246F7D11B7823700822002101A813F0EC
:1057700014FE12220021124813F00FFE082101A886
:1057800013F073FD002816DD0D4901AA002012F860
:10579000013B08AC04EB131403F00F0314F8144C92
:1057A0000C7008AC2344013013F8143C4B700828EB
:1057B00001F10201EBD1024809B030BD11B701007F
:1057C000683B00202DE9F04F6C4A6D4B6D499B1AE8
:1057D00087B09B1000264B43044601934FF0011AFB
:1057E000B0463746B146934623783BB9664AA01C7B
:1057F000904200F0C080FFF7E5FF17E06378052BCB
:1058000005D8DFE803F07F04037F072BA146237848
:105810001C44E9E7E378002BF9D1A3789BB9574AF8
:105820001F46019BBB4204D14FF0FF3007B0BDE8DB
:10583000F08F53689C4202F1240209D1242303FB18
:1058400007B7BB6833B908F101085FFA88F8DEE7EB
:105850000137E6E7414620469847F4E7002FE3D0BA
:10586000002301213A7F9342DEDA3A6AA57802EBFF
:10587000C3021079854201D00133F3E7012594F882
:1058800003C094F805E00CF0030C8DF814C094F8F4
:1058900004C04CEA0E2CADF812C094F902C0BCF161
:1058A000000FE8B225DA05F1100C01FA0CFC1CEA35
:1058B0000A0F23D160F07F008DF8100004A8CDE915
:1058C000023213F0ABFCDDE902320121B0B99DF8E0
:1058D0001030A37013F0800F137118BF10350B46F2
:1058E00015BFAB4003FA05F54AEA030A4AEA050A7E
:1058F0008DE701FA05FC1CEA0A0FDDD00135102DF9
:10590000BDD1B9E7032E1ED1FFF71EFF054668B1D2
:1059100013F0F5FC029048B11C4813F0F0FC029A19
:10592000824203D12946A01C13F00CFD23786FF0AE
:105930000201E218091B04EB53030020D14213D5E6
:105940000136F6B263E7002EF0D1B9F1000F3FF453
:105950006BAFA4EB090389F80230C3F3072389F87E
:10596000033089F80480EBE702F8010C13F80159C1
:1059700002F8025DE2E7184658E700BF780600200B
:105980009C060020398EE3387706002011B701000D
:1059900008B50448FFF716FF0028024818BF00208A
:1059A00008BD00BFF8050020014600F10803BFF361
:1059B0005B8F53E8002F42F0010043E8000CBCF17C
:1059C000000FF6D1BFF35B8FD30702D4014814F068
:1059D0000FBA7047780A002073B5184C06460D467A
:1059E0000023442202FB03F0015DB14212D10444C2
:1059F0006B1E012B0CD894B9012D09D101AB0122EA
:105A00000DF10301304601F00DF9019B002BF5D19A
:105A100002B070BD0133042BE4D10024E8E714F098
:105A200018FB034604F134000BB1012D02D113F031
:105A3000B1FAEDE7FFF7B8FFEAE700BFD40B0020AB
:105A40002DE9F74F0546904699464FF02003EFF3B6
:105A5000118B83F31188BFF36F8FDFF8ACA00024A4
:105A60004427019107FB04F600220023504612F060
:105A700083FB019958B9234FBC19636813F1100FC8
:105A800014D10193504612F051FB019B06E0013402
:105A9000042C0AF1440AE4D16FF00B038BF3118854
:105AA000BFF36F8F184603B0BDE8F08F0C9B6361A6
:105AB0000D9BA3616FF00F032061C4E90218BD556F
:105AC000C4F840906360284601F04CF958B128466C
:105AD00001F048F9B8FBF0F202FB108018B1236C1A
:105AE00043F00403236419F0020F06D006F13400DA
:105AF0003844FFF759FF0023D0E7284601F0D8F8D3
:105B00000346CBE7D40B0020F00B002070B54FF01C
:105B10002003EFF3118483F31188BFF36F8F0E49D5
:105B20000022442505FB02F35E5C86420BD1CA18B5
:105B3000506810300AD16FF0470034335060C818F5
:105B4000FFF732FF02E00132042AEBD184F311881F
:105B5000BFF36F8F70BD00BFD40B0020F8B50F4CA2
:105B600000256FF047074FF02003EFF3118683F312
:105B70001188BFF36F8F6368103304D104F13400D0
:105B80006760FFF711FF86F31188BFF36F8F013550
:105B9000042D04F14404E6D1F8BD00BFD40B00206D
:105BA000F0B504468BB00D4616461F460122002173
:105BB00004A814F03EFA03AB0193094B009332465C
:105BC0003B4629462046FFF73BFF38B94FF0FF32EE
:105BD0004FF0FF3304A812F0CFFA03980BB0F0BDDA
:105BE0008B8F0100F8B50025094C0A4F2E46C4E9F9
:105BF0000D67E663012204F11C001146013514F023
:105C000018FA042D04F14404F1D10020F8BD00BFBE
:105C1000D40B0020958F0100014B9970704700BF95
:105C20001306002007B50B68019313680093002248
:105C30000023002001F07EFD014630B1044813F03E
:105C400081FC002003B05DF804FB6FF00B00F9E766
:105C50003805002013B50C1E13DD01F02DFE0F4B8F
:105C60000093012801944FF0FF324FF0FF330CBF37
:105C70000620022001F05EFD014668B1084813F0DD
:105C800061FC002301930748074B00930349007B05
:105C900001232022FFF7D4FE02B010BD7A3B002082
:105CA0003805002014000020555C000070B5124E2D
:105CB000124D4FF0FF324FF0FF33304613F024FC0B
:105CC000044601F0F9FD012806D103232375A289BA
:105CD000A168287D02230CE0237D012B05D0032B36
:105CE000F5D020460FF020FEE3E7A289A1682879CD
:105CF0000623FFF755FFF4E75005002014000020AD
:105D000038B5084D4FF0FF324FF0FF33284613F0FF
:105D1000FBFB044601F06AFD0028F3D020460FF09B
:105D200003FEEFE73805002038B504214FF6104098
:105D300013F0C0FB00F1080504460221284613F0C9
:105D40000EFC0223002143700170284613F016FC5C
:105D50000121284613F012FC0248214613F0F2FB01
:105D6000FF2038BD50050020032910B502D00429BA
:105D700008D010BD094B0022BDE81040187B114629
:105D8000FFF768BF054C2079FFF7C0FE207DFFF7C5
:105D9000BDFE207BBDE81040FFF7B8BE1400002018
:105DA000F0B51A4889B001F097FD044658BB184871
:105DB000022101F087FD002600276FF00705CDE9DD
:105DC0000667CDE90245CDE90044124B124904941F
:105DD0004FF48062114812F043FA11490F4814F051
:105DE00040F9104B10490094CDE90667CDE9035402
:105DF000CDE901444FF400720C4812F031FA0C491D
:105E00000A4814F02EF9204609B0F0BD50050020D4
:105E10002C000020015D0000E03B0020A0060020D7
:105E200022B70100AD5C00000040002020070020E8
:105E30002CB701000E4A70B5841AA3100D4C5C43B8
:105E40000546E4B20C2000FB04200E464021084425
:105E500013F03CF9011E05DB074B03EBC404636838
:105E60009847002128463346BDE87040184700BFD8
:105E7000F40C0020B76DDBB6DCA601002DE9F04183
:105E8000104E841BA310104C5C43E4B20C256543F8
:105E9000804605F140000F463044402113F02FF9B1
:105EA000011E09DB094A7319C3E90E27084B53F891
:105EB0003430BDE8F041184740463B46BDE8F0416C
:105EC000184700BFF40C0020B76DDBB661910100EC
:105ED000DCA60100002270B501210446104601F045
:105EE000A9F8002001F074F80F4810F083FA0F4B66
:105EF000984215D110F08EFAE6680D49304612F03E
:105F00001EFD00280BDB01253564E468084904F117
:105F10001C0012F014FD002801DBE564002070BDB8
:105F20006FF00400FBE700BF695F00000000AD0BED
:105F3000ECA6010001460C2309484B4370B5C41878
:105F4000D4E90E5600224033A263184413F0F5F84A
:105F50002DB132462B460348BDE87040184770BD4E
:105F6000F40C00206804002010B1012804D0704710
:105F7000034B1B6C5B0701D1FFF7DCBF704700BF11
:105F8000F40C002008B54FF02003EFF3118183F3E8
:105F90001188BFF36F8F124A136843F0020013F0A9
:105FA000010310600CD04FF08042D2F80C34D2F8CC
:105FB0000C2413F0010303D00A4813F0BEF80123A8
:105FC00081F31188BFF36F8F23B1BDE80840002033
:105FD000FFF7B0BFBDE80840012010F029BA00BFAC
:105FE000440D0020340D0020094BBFF35B8F53E8B4
:105FF000002F22F0020143E800100028F7D1BFF380
:106000005B8FD30702D4012010F044BA704700BF61
:10601000440D002010B58AB000230122CDE90632DC
:10602000019308AA0A4BCDE9082204AC01AACDE9E4
:106030000444CDE9023413F0B9F8002805DB4FF42D
:1060400080420023204612F097F80AB010BD00BF2E
:1060500073910100024AC3B21C2003FB0020704769
:10606000F40C0020094BBFF35B8F53E8002F42F084
:10607000010143E800100028F7D1BFF35B8F9307BD
:1060800002D4012010F0D4B9704700BF440D0020A5
:10609000094BBFF35B8F53E8002F22F0010143E867
:1060A00000100028F7D1BFF35B8F930702D40120C3
:1060B00010F0F0B9704700BF440D00202DE9F843FF
:1060C0003A49BFF35B8F0646012251E8003F41E8A1
:1060D00000200028F9D1BFF35B8F33B9344935482C
:1060E0004B60CB608A6012F03DFC731E012B32D8EE
:1060F000012E07D14FF08043D3F81C3403F0030383
:10610000012B28D013F0A5FF044618B92A4B1B78A1
:10611000002B44D14FF02003EFF3118583F3118856
:10612000BFF36F8F0124254FDFF89480DFF8949040
:106130004FF08042D2F81834D2F81824D2030CD58C
:1061400003F00303012B01D0012E06D10CB385F31C
:106150001188BFF36F8FBDE8F883ACB1284600F01B
:10616000F3FF4FF08042D2F81835002BE0D13968A8
:106170000029DDD03B603B680123C2F81835C8F820
:106180008031C9F80030D3E70021212011F0A8FFA9
:10619000E7E74FF080430222C3F80423DBE74FF028
:1061A00080430222C3F808230546BCE7480D0020BF
:1061B000E40C0020100D0020CE3B00200401004024
:1061C00000E100E00800004000F07F03082B42B22D
:1061D00004D010F0780F01D000207047002A00F0A2
:1061E0000F0300F0080006DA68B90948242202FB10
:1061F00003004030704740B903F10900044B2422EA
:1062000002FB0030F5E7034870470348704700BFC2
:10621000441F0020A4200020E8210020014601485E
:1062200013F0E6BD6805002008B5044810F0ACF98D
:10623000034810F0EDF9002008BD00BF3FB7010092
:10624000F8A6010010B51149BFF35B8F01F11803E7
:10625000002253E8000F012803D143E80024002C5A
:10626000F7D1BFF35B8F0CBF012010460CD14C69F6
:106270000431204612F0E4FB10F1450F04D1204612
:10628000BDE8104012F0B7BB10BD00BF441F002096
:106290000949BFF35B8F51E8003F43F0010241E839
:1062A00000200028F7D1BFF35B8FDB0703D403483E
:1062B000083913F09DBD70476C1F0020A007002017
:1062C00010B5064C00220023204611F099FB18B1AE
:1062D000043014F0CAF8F5E710BD00BF68050020CF
:1062E000DFB50026002702ACCDE90067144818226C
:1062F000214613F0E1FC00281BDAFFF7E1FFCDE9AE
:1063000000670F481822214613F0D6FC00280CDB4A
:10631000029B94E803001A1D82E8030004221A7508
:106320001846FFF77BFFFFF7B3FF0023184604B0C2
:10633000D0BD94E80300029B1A1D82E80300F5E734
:1063400048000020817870B506460846FFF73CFFFC
:106350000B06F578044613D5002D45D1FFF7C0FF95
:106360000346002840D0012284F8225002750322FF
:106370000274DC60FFF752FFBDE87040FFF788BF92
:1063800055B1012D30D1FFF7ABFF034660B384F860
:10639000215005750574ECE7FFF7A2FF20B3B37831
:1063A000124A13F0800F03F0080111D041B1D2F866
:1063B000A836E3600123037502230374C460D9E7A0
:1063C00003F00F03142101FB0323D3F80836F0E791
:1063D00011B1D2F8A837ECE703F00F03142101FB49
:1063E0000323D3F80837E4E770BD00BF0070024014
:1063F000F0B5064689B01822002102A812F0CDFFA0
:106400003378013B052B21D8DFE803F0780314141F
:10641000681603238DF814300024FFF761FF03464C
:10642000A0B1047500F10C02DDE9050182E803006A
:1064300018461EE00423EDE7B1780846FFF7C4FED6
:10644000837A044623B1013B022B43D909B0F0BD46
:106450000B06F57812D5002DF8D1FFF741FF034662
:106460000028F3D0012284F822500275032202741E
:10647000DC60FFF7D3FEFFF70BFFE7E75DB1012D0F
:10648000E4D1FFF72DFF03460028DFD084F8215028
:1064900005750574ECE7FFF723FF07460028D5D004
:1064A0000123037502230374C46004F10C01B07866
:1064B00013F043FB124AE168B2F8C8328B4206D9A6
:1064C0005B1AA2F8C83210F00DFE3846D1E7A2F8E8
:1064D000C852FAE73046FFF735FFB7E7684610F0D5
:1064E000DBFD9DF80130052B04D19DF8003013F041
:1064F000600FABD0034B059301248EE702248CE799
:10650000441F0020C8200020022810B510D8094BD5
:106510001C5CFFF7E5FE58B1002202750473FFF71B
:106520007DFE054B1B7F1BB1BDE81040FFF7B0BEE1
:1065300010BD00BF3CB70100441F00202DE9F3410E
:10654000DFF8CC8000250026002765F07F00C0B270
:10655000FFF73AFE0369044673B900F11001CDE973
:1065600000674022404613F0A7FB002804DA6FF0D2
:106570000B0002B0BDE8F0812046013512F036FE76
:10658000082DE2D1DFF88880002500260027E8B238
:10659000FFF71AFE036904464BB900F11001CDE97B
:1065A00000674022404613F087FB0028DFDB2046CF
:1065B000013512F01BFE082DE9D11449D1F87031D4
:1065C0000C4663B900220023CDE9002310484FF4A4
:1065D000806201F5B87113F06FFB0028C7DB0D482E
:1065E00012F004FED4F8B4325BB900220023CDE9E6
:1065F0000023094906484FF4806213F05DFB002830
:10660000B5DB064812F0F2FD0020B2E7441F00207F
:1066100044000020A4200020F8210020E8210020D0
:106620002DE9F043DFF8D482AE4C85B00746002256
:106630000023404611F0E4F910B905B0BDE8F0833D
:10664000637F027D00F1040933B9002A00F08580E0
:10665000484613F00AFFEAE7042AF9D8DFE812F007
:106660007D000500010117013201037CC568032B81
:10667000EED8DFE803F00238595EAE690822002147
:10668000304612F08AFE984BD3F880243270D3F84B
:1066900084247270D3F88824D3F88C1442EA01223F
:1066A0007280D3F89024D3F8941442EA0122B28085
:1066B000D3F89824D3F89C3442EA0323F3800823C8
:1066C000EB60687A2B68002198473378DB0906D1A4
:1066D000F38823B1A4F8C83210F004FDB8E7002312
:1066E000A4F8C832B4E795F82130002BB0D095F863
:1066F0002030002BACD0002685F821604FF0FF320F
:1067000085F820604FF0FF33784812F085FDAB69C3
:1067100001936B68CDE9023601A9687A10F0DEFAC0
:10672000724812F061FD93E72B680121687A98475F
:106730008EE7AB7A73B995F823305BB94FF0FF322F
:106740004FF0FF33694812F067FD10F0F7FC67481F
:1067500012F04AFD2B680221E8E7027B042A3FF68B
:1067600077AFDFE802F05A032567730010F06AFA8A
:10677000054600287FF46CAF10F0AEF9BFF35B8FD5
:106780005B49012351E8002F002A03D141E8003082
:106790000028F7D1BFF35B8F7FF45AAF41F8105C4C
:1067A00041F8085C6069E360143912F0DBF84FE7E8
:1067B000002565F07F00C0B2FFF706FD037A13B134
:1067C000407A10F0ADFE0135082DF2D194F8683111
:1067D0001BB194F8690110F0A3FE0025E8B2FFF7A1
:1067E000F3FC037A13B1407A10F09AFE0135082DBC
:1067F000F4D194F8AC321BB194F8AD0210F090FED5
:10680000012010F001FA012363772368002B3FF485
:106810001FAF0021022098471AE70025657710F086
:106820000BFEFFF70FFD2368002B3FF411AF294645
:106830000420F0E7002B3FF40BAF10F015FE2368A7
:10684000002B3FF405AF00210520E4E72268002A71
:106850003FF4FEAE002B3FF4FBAE00210620904734
:10686000F6E607F10C054FF0FF334FF0FF322846F4
:1068700012F0D2FCFFF762FE284612F0B5FC57F882
:10688000203C002B3FF4E4AE00210120C3E794F844
:10689000AC327BB1012584F8C55284F8C452FFF7AD
:1068A0001FFD38B1134A05750574C260FFF7B6FCC9
:1068B000FFF7EEFC57F8203C002B3FF4C9AE002157
:1068C0000A20A8E713F0AFF810F0B6FD10F0FAF8C0
:1068D000FFF7F6FCFFF732FE13F09EF8064810F0C3
:1068E000BBF9B5E6441F002000700240701F002075
:1068F0005C1F0020E8210020F163000068050020F3
:1069000038B5204C257F002D36D11F491F484FF048
:10691000FF334FF4806211F02DFD1D4B2562C4E959
:10692000093504F12C0013F0E4F92846FFF792FB37
:106930002A4660610121272000F07CFB154810F0F9
:106940008BF9154B984219D113F066F8FFF7F6FD55
:10695000054608B901232377104B1B680BB1FFF7DD
:1069600097FC4FF08043D3F83834DB0702D5002082
:10697000FFF7CAFD284638BD0025FBE76FF0040588
:10698000F8E700BF441F002020420020A00700209D
:1069900021660000F16300000000AD0B68050020D7
:1069A000064B1A7F32B15B7F002B0CBF6FF01200D9
:1069B000002070476FF01200704700BF441F002096
:1069C0000F4B1B7F10B50146B3B104782046FFF78B
:1069D000FBFB10B96FF0150010BD44720B79837288
:1069E00049884160230702D44B1E0B42F2D1204656
:1069F00013F09EF80020EFE76FF01200ECE700BF05
:106A0000441F0020114B1A7F10B50146C2B15B7FB5
:106A1000B3B1FFF7D9FB0446A8B1837A012B12D09A
:106A200007D9023B012B07D9A369E3610020E0608D
:106A300010BD10F08BFBF7E7084610F0FFFAF3E704
:106A40006FF01200F4E76FF01500F1E7441F00202B
:106A500038B50D4B1A7F05467AB15B7F6BB1FFF7F6
:106A6000B3FB68B115F008040AD1284610F008FB02
:106A7000284610F0A7FD204638BD6FF01200FBE756
:106A80006FF01500F8E700BF441F002038B50B4B2E
:106A90001A7F05460C465AB15B7F4BB1FFF794FB5A
:106AA00048B141B1284610F0D1FA2070002038BD1D
:106AB0006FF01200FBE76FF01500F8E7441F0020AD
:106AC000F8B5104E327F04469AB1FFF77DFB0546BC
:106AD00090B1230702D4204610F0D2FA2F7A77B96A
