:100000008084002009570000F1CF0100DD56000078
:10001000DD560000DD560000DD5600000000000047
:100020000000000000000000000000009D500000E3
:10003000DD5600000000000031500000DD560000D9
:1000400059510000811E0100595100005951000012
:1000500059510000595100005951000059510000F8
:1000600059510000595100005951000059510000E8
:1000700059510000595100005951000059510000D8
:1000800059510000595100005951000059510000C8
:1000900059510000595100005951000059510000B8
:1000A00059510000595100005951000059510000A8
:1000B0005951000059510000595100005951000098
:1000C0005951000059510000595100005951000088
:0C00D00059510000595100005951000026
:0400DC00FFFFFFFF24
:1000E00053B94AB9002908BF00281CBF4FF0FF319F
:1000F0004FF0FF3000F00CB8ADF1080C6DE904CE04
:1001000000F008F8DDF804E0DDE9022304B07047F0
:10011000704700BF2DE9F04F07468C460846099E00
:1001200015463C461946002B40F0C6808242B2FA82
:1001300082F746D94FB1C7F1200E24FA0EFE00FA1D
:1001400007F3BD404EEA030CBC404FEA15481FFAC6
:1001500085FEBCFBF8F9220C08FB19C309FB0EFA5B
:1001600042EA03439A4528D9EB1809F1FF3004D23B
:100170009A4502D9A9F102002B44A3EB0A03A4B2C9
:10018000B3FBF8F208FB123302FB0EFE44EA034411
:10019000A64514D92C1902F1FF3303D2A64501D983
:1001A000931E2C44A4EB0E0443EA00401EB1FC4015
:1001B000002334607360BDE8F08F4846DDE71346E6
:1001C000F0E702B9FFDE87BB831A01214FEA154E23
:1001D000AAB2B3FBFEFC200C0EFB1C330CFB02F896
:1001E00040EA0343984563D9EB180CF1FF3004D281
:1001F000984502D9ACF102002B44A3EB0803A4B24A
:10020000B3FBFEFC0EFB1C330CFB02F244EA03447E
:10021000A2424FD92C190CF1FF3304D2A24202D9C9
:10022000ACF102032C44A41ABEE7C7F1200C20FA5B
:100230000CF800FA07F324FA0CFCBD404CEA030268
:100240004FEA154EABB2B8FBFEFC110C0EFB1C8046
:100250000CFB03F941EA0040814504FA07F423D975
:1002600028180CF1FF3104D2814502D9ACF102010A
:100270002844A0EB090092B2B0FBFEFC0EFB1C0070
:100280000CFB03F842EA004398450FD9EB180CF138
:10029000FF3204D2984502D9ACF102022B44A3EB01
:1002A000080342EA014191E76146E2E76246F6E768
:1002B0006046A2E76346B6E7834205D90EB1C6E9B8
:1002C00000700021084676E7B3FA83F181B98342D2
:1002D00001D3BA420AD8BC1A60EB030301209C4642
:1002E000002E68D0C6E9004C002164E70846F7E715
:1002F000C1F1200C8B4022FA0CF41C4302FA01F5E8
:1003000000FA01F327FA0CF220FA0CFB4FEA144929
:100310001343BBFBF9F81FFA84FE09FB18BB1A0C48
:1003200008FB0EFA42EA0B42924507FA01F73ED962
:10033000A21808F1FF3004D2924502D9A8F10200B8
:100340002244A2EB0A029BB2B2FBF9F809FB182285
:1003500008FB0EFE43EA024296452AD9A21808F18C
:10036000FF3304D2964502D9A8F10203224443EA9E
:100370000040A0FB0593A2EB0E029A42CE4698469F
:1003800002D306D14F4504D2B9EB050E63EB040846
:10039000013886B1B7EB0E0362EB080707FA0CFCD5
:1003A000CB404CEA0303CF40C6E900379CE7404608
:1003B000C7E74346DBE73146FDE6000000000000EA
:1003C0002DE9F041D0E90B35866A5C193034A6423C
:1003D0008846174618D81C4DA3FB050118A3D3E97E
:1003E0000023FFF77DFEA41B20F07F40C8F800002B
:1003F00013A3D3E90023A4FB0501FFF771FE20F04E
:100400007F403860BDE8F0810F4C0DA3D3E9002395
:10041000A6FB0401FFF764FE05F1300120F07F40E8
:10042000C8F8000006A3D3E90023A1FB0401FFF7ED
:1004300057FE20F07F403860BDE8F081AFF30080C8
:100440008D49FD1A0700000000CA9A3B0000000019
:1004500000284FD02DE9F04F6B4C94F86A5015F0FE
:10046000010591B040F0BF8094F82500FF2300F013
:10047000030084F8263011F0D3F894F86A0042079C
:1004800029D494F8292094F8353004EB820204EB47
:100490008303D76AD3F8389087B15B4839460AF0AE
:1004A00053FD3B785B0605D5062105F055FC002879
:1004B00000F00482544849460AF046FD3B7813F0A8
:1004C0000E0F19D1236A002B00F0AA800C252846B4
:1004D00011B0BDE8F08F2A4604F16B01C0F3C000F3
:1004E00011F034FAFF2884F82600CAD0284611F00B
:1004F000DDF8C6E70AF094BA94F824300121C3F37A
:1005000042030CA88DF8303005F0ACFD00286FD008
:1005100099F80110024638460AF012FB3B49B4F83C
:10052000689031230026A360A0FB010134A3D3E926
:100530000023C4E9056626706660E660FFF7D0FD1B
:10054000206106F083FF8046B9F1000F07D13E78A5
:1005500006F00F06A6F10106B6FA86F6760994F8BB
:100560002400236966F3000010F0010684F82400DB
:1005700040F07481264A2748049303F24713A9FBED
:100580000001069402961360912303FB0911224B8C
:100590000793224B05934FF6FF7309924FF0020920
:1005A00003930EAF16A3D3E90023CDF83890089734
:1005B000FFF796FD4346CDE900604A4630460321E9
:1005C00006F0C4FD394609F045FD88B994F86A3053
:1005D00043F0010384F86A300AF0C8FE18B901201C
:1005E00011F000F873E70025284611B0BDE8F08F40
:1005F000236A002B3FF46AAF0AF0E6F90C2566E7A0
:100600008D49FD1A070000004447002000CA9A3BAC
:10061000BC470020002AE7841D970000B5AB00000E
:1006200009F094FC8246002800F0508109F09AFC01
:100630008346002800F047810BF054FD0646002851
:1006400000F03E814FF6FF73406F338506F11C03C7
:100650000B93002800F03C8106F1680206F164016A
:1006600005F086FBB6F86030DFF86CC223F4EF6368
:1006700023F0070343F4887343F00103A6F86030C6
:1006800096F8393003F03F0363F07F0386F8393082
:1006900096F87A3023F0070386F87A3096F83C30E3
:1006A00023F0070386F83C3096F8D6304FF0000868
:1006B0004FF01B10C6E9160C68F300037F2086F884
:1006C000D63086F8BD00FF2306220DF1310106F178
:1006D000D700A6F8C020C6E91288C6F87480A6F82C
:1006E0007880A6F82E80C6F8308086F83B80C6F861
:1006F0005080A6F8C480A6F8C880A6F8D080A6F8D6
:10070000CC808DF831308DF832308DF833308DF863
:1007100034308DF835308DF830808DF836301CF05F
:10072000B7FC96F8D61068F3410186F8D610FF237F
:1007300006220DF1390106F1DD008DF839308DF812
:100740003A308DF83B308DF83C308DF83D308DF8E7
:100750003E308DF838801CF09BFC96F8E430A6F80B
:10076000F08023F0070386F8E43086F8F280C6F8BC
:100770001481A6F81881A6F8308108F08FFF96F84A
:100780004A31A6F8488123F0030386F84A3196F8E7
:100790007A30A6F8508123F0180386F87A3096F85C
:1007A000763186F8538123F0070386F8763196F880
:1007B0009631C6F854A168F3451386F8963196F839
:1007C000BE31A6F8748168F3C303002286F8BE31F7
:1007D0000023C6E94E01C6E9502386F8E580A6F855
:1007E0009481C6F8EC80A6F8BC81A6F8C8810CF00C
:1007F000AFF8A6F8D2000CF0B1F8D6F8CC21374B00
:10080000A6F8D4001340C6F8CC310CF0ADF896F839
:10081000D03160F3020386F8D0310CF0ABF806F16A
:100820001C03236296F8D031C6F8D48160F3C50367
:10083000C4E918ABC6E97888C6E97688C6E90588B0
:1008400086F80080F66186F8D03111F0A3FF002809
:100850003FF452AE0AF0B8F8032538E60020204AEB
:10086000DFF88090049302260EAF019305920321D6
:10087000CDE902000694434600900897CDF81C90FD
:1008800032460E9606F0B8FC394609F0E3FB002824
:100890007FF4AEAE144A05924AF2D8320092CDE906
:1008A0000300CDE90100CDF81C900897069443465B
:1008B000012203210E9606F09FFC83E6122506E630
:1008C000584609F055FB504609F046FB0725FEE562
:1008D00006F16C007067BFE6480148010000FFF6B2
:1008E000B5AB00001D97000015A900000000000036
:1008F00070B590F824308AB0C3F342030D46044625
:1009000001210DF1230016468DF8233005F0AAFBD6
:100910007178024628460AF013F91D491AA3D3E953
:100920000023A0FB0101FFF7DBFB2369984205468A
:1009300020D21B1A00220192164A0293164BA21AC9
:10094000A3FB02320221920900230A4409AE099155
:1009500012490591CDE903330321D2B206960093E3
:10096000184606F0BBFC314609F074FB48B9256116
:100970000AB070BD02D9C21A0023DCE700200AB019
:1009800070BD0C200AB070BD8D49FD1A0700000033
:1009900000CA9A3B44470020898888881D97000038
:1009A00038B5194C9DF810E094F844C01CF00105CE
:1009B00022D163F3420C400194F83230A1874FEA10
:1009C000CE0E0EF0180E00F0200040EA0E0023F0CC
:1009D000380303430D4884F83230A2FB0001912311
:1009E00003FB021106A3D3E9002384F844C0FFF7F8
:1009F00077FB2064284638BD0C25284638BD00BF4B
:100A00008D49FD1A07000000E0470020002AE78416
:100A100010B59DF808C0044649014FEACC0000F02B
:100A2000180001F0200CA17D22844CEA000C0C4837
:100A300021F038014CEA010C9122A3FB000102FBDA
:100A4000031184F816C004A3D3E90023FFF748FB81
:100A5000606210BDAFF300808D49FD1A07000000F1
:100A6000002AE784000000002DE9F047044600F169
:100A7000350190F8440094F83230C0F3400060F340
:100A800086138CB084F8323006F018FD94F83220CA
:100A9000A38F4D48E46102F079020025A3FB000119
:100AA00084F83220912202FB0311C4E9055544A3C6
:100AB000D3E900232570FFF713FB3123C4E9015369
:100AC000236CE5600933A0F13102934232BF236108
:100AD00022612564064606F0B9FC236A07460DF13B
:100AE0002C08002B4CD0394D394BCDF82080069482
:100AF000651BA3FB05353448A38F4FF0000AA3FB09
:100B000000019122CDF80CA002FB0311236904938C
:100B1000304B0793304B05934FF0020928A3D3E9DC
:100B20000023CDF82C90FFF7DBFA104619464FF45E
:100B30007A720023FFF7D4FA2D090435EDB22A4664
:100B4000CDE901603B460321CDF800A0504606F0F8
:100B500053FB414609F07EFA054668B994F84430E3
:100B600043F0010384F844300AF0C4F90446F8B1B4
:100B700028460CB0BDE8F0870C200CB0BDE8F0872B
:100B8000CDE90A33216943460AAA032001F058F946
:100B90000B990029A7D0114809A3D3E90023A1FB91
:100BA0000001FFF79DFA0A9F20F07F4007449AE773
:100BB000484610F017FD20460CB0BDE8F08700BF96
:100BC0008D49FD1A07000000002AE784E047002055
:100BD000398EE3381D9700006DB1000000CA9A3BC2
:100BE0002DE9F04FC38D458E1D4490F81A310D4408
:100BF000174613F007028BB00446ADB20AD0531E5D
:100C0000042B00F25583DFE813F0AD011C028B01C9
:100C100042011F02B0F8F480A5EB080318041FFA84
:100C200083FB00F15F8194F93930002B0E46C0F24E
:100C30004D8294F8F03084F8F13094F8942194F8CF
:100C4000953194F8181184F8191193420AD094F848
:100C5000963103F00F03062B04D1002384F895216D
:100C6000A4F8C830B44BD4F814911A68944204BF65
:100C700000221A60B9F1000F00F04A81D9F8000093
:100C8000002800F04581B4F81C31B4F82AC042684D
:100C9000C4F814216345B4F81E21B4F8201100F003
:100CA0001D82B4F828C0A9F81E30182389F8043032
:100CB0000023A9F806C0A9F82020A9F8221089F875
:100CC0001C30494609F05AF909F062F9A368002B73
:100CD00009DAE168626823F0004391422CBF7F1873
:100CE000BF18A360FF1A608DB4F81C9110FB0BF0C5
:100CF00080B2B0FBF9F119FB01F39BB298421FFAE5
:100D000081FA80F0F4801B1A40F2E2418B4803FB29
:100D100001F1A1FB000186A3D3E90023FFF7E0F96D
:100D200020F07F400744E18D94F93930A8EB0508A5
:100D3000D0440E444644002B40F2E248E68508FBCE
:100D400009F6C0F2ED81D4F824117C4878A3D3E9E8
:100D50000023A1FB0001FFF7C3F920F07F48B34651
:100D600008F10108764AB4F82031B4F81E1175482C
:100D7000A4F82A903244B2FBF6F2A4F8C62042F25C
:100D8000107202FB03633044013BB0FBF6F0B3FB8F
:100D9000F6F683B2881D8342A185A4F8C260A4F848
:100DA000CE3002DD5B1A063B9BB2A4F8CA3094F841
:100DB0001A311B0744BF0023A4F8C43002210120CC
:100DC00014F09EFA002202218146012005F020F84D
:100DD0005D494FF4F872204604F0AAFF00F1050ABD
:100DE0005FFA8AFA594B009452460121002006F01E
:100DF0008DFA30F0020304D0554840F6B44101F0BA
:100E000017FE4E4EABFB066B49A3D3E900233046D9
:100E10005946FFF765F920F07F454E480723A5FBAB
:100E20000001301A03FB05116BEB01014FF47A72DC
:100E30000023FFF755F9CDE9015008940694CDF849
:100E40000080216994F93950434804914349444C46
:100E5000079411EA250138BF014605914FF6FE714E
:100E60003B46039152460121002006F0C5F930F0BF
:100E7000020304D0364840F6CE4101F0D9FDB9F165
:100E8000000F40F0478100200BB0BDE8F08F838D4C
:100E900090F81A01D4F8D4211D440635D4F8F8305E
:100EA000ADB26FF30200A4F8F450A3F109011D8163
:100EB00084F81A01D4F8D80122B194F87651AD071C
:100EC00040F17C81002800F09081D4F8DC2110688A
:100ED00043F8090C116053F8092CC4F8DC11002AFE
:100EE00000F080816FF076000BB0BDE8F08F09FB59
:100EF000110140F2E243114889B203FB01F1A1FB69
:100F000000010BA3D3E90023FFF7EAF83F1A0AE731
:100F10000F4840F6094101F08BFDD9F80000B2E618
:100F20006FF00F000BB0BDE8F08F00BFAFF3008093
:100F30008D49FD1A070000003C48002000CA9A3B7A
:100F4000FF5962027FC3C901800D0020E5B5000092
:100F500050E101008D49FD1A2505010091030100B2
:100F6000B5B50000DFF81883012009F017F8064630
:100F7000002800F04B81C34804F0A4FE0546002879
:100F800000F04481C04B1A68002A00F0158109F076
:100F900023F83368D4F814215A60C4F814612E1D64
:100FA00000F037812B79B94A03F01C0343F00303A7
:100FB0002B710C236B710023AB71EB7194F828310A
:100FC0002B72D4F82431A2FB03239B0AA5F8093025
:100FD000B4F81C31A5F80B30B4F81E31A5F80D306B
:100FE000B4F82031A5F80F3094F81A31C4F8FC7029
:100FF000032262F3020384F81A31A368002B0ADA91
:10100000E168626823F0004391422CBF7F18BF184B
:10101000FB1AC4F8FC309E4B01220935C4F8F85085
:1010200002211046C3E9024804F024FF00283FF4DF
:1010300059AF984840F65C3101F0FAFC6FF0760049
:1010400022E7DFF854828FE7D0F8F820D0F8D431C7
:1010500090F8F00084F8F10094F818018A4984F8B7
:10106000190194F8940184F8950100200860D4F8DF
:10107000D801A2F10901B3B194F87651AF0712D4A7
:1010800094F8CF51EE070ED4D4F8E051AB4200F003
:10109000DD8058B9187900F00300032800F0E580DE
:1010A000C4F8D83104E0002800F0A980D4F8DC317D
:1010B000186842F8090C196052F8093CC4F8DC11B0
:1010C000002B00F0AC806FF08B00DDE694F8E5308B
:1010D000002B3FF4AEAD84F8E520AEE5B4F82CC0AB
:1010E00094457FF4DEAD40F2E24C0CFB03FE42F28D
:1010F000107C0CFB01EC0CF1FF3CBCFBFEFCB4F8DB
:10110000C2E01FFA8CFCE6457FF4CBAD012389F8E1
:101110000430D6E501220221104604F079FEB2E641
:10112000226CA36C02FB1B33A36411F09FFB0546EA
:1011300094F8E400C0F3C20011F09AFB054406FBEA
:1011400005F5564B94F8282105F5742505F23F2541
:10115000A3FB0535AD0C08FB02F2A36C226505FB71
:101160000AF072080344963A934228BF1346256456
:10117000A6EB050B4A4DC4E911230023C4F8EC305B
:10118000A0FB05013CA3D3E90023FEF7A9FF3F4BD9
:101190003F1AD4F82401A3FB0030800A08FB00F0BA
:1011A00035A3D3E90023A0FB0501FEF799FFB4F8AE
:1011B0001C9120F07F48D5E51C60E8E694F8CF51FB
:1011C000EF073FF57FAED4F8E051AA422CD00028BB
:1011D0007FF47BAE107900F00300032862D0C4F8DE
:1011E000D82174E6C4F8E4117CE643F8092CC4E97C
:1011F0007511C4F8DC11002A7FF474AEF2E742F8EE
:10120000093CC4E97511C4F8DC1159E76FF06800B6
:101210003AE6204840F60C0101F00AFCC2E6C4F8A8
:10122000E4116FF08B002FE61568C4F8E051002838
:101230007FF44BAE106843F8090C116053F8092C89
:10124000C4E97611002A7FF44DAECBE71D68C4F8DF
:10125000E05100287FF42AAF186842F8090C1960A1
:1012600052F8093CC4E976112AE7D8790328F3D06B
:101270000A287FF415AFEFE78D49FD1A070000003B
:10128000B90A0100644900203C4800205917B7D131
:101290009806002050E10100E91F000083DE1B4397
:1012A00000CA9A3BD0790328C4D00A2897D1C1E755
:1012B00003484FF43B6101F0BBFB4FF0000853E6DD
:1012C00050E10100000000002DE9F04F0B68D2F85A
:1012D00000B01B6897B08A460A93037F00F11E0195
:1012E000C3F380130446154614A806228DF8473030
:1012F0001BF0CEFE9AF811000C90FF280DF1480962
:1013000000F083804A460DF147010FF085FE9DF8FD
:1013100047600236F6B28DF847600A9B277FD4F803
:1013200000C0CDF82CC003F17108FF094B4606F050
:101330000102414638460BF023FB00284BD19BF8B5
:10134000D6200D9066F341028BF8D620494606223E
:101350000BF1DD001BF09CFE9BF8D62067F300022A
:1013600041468BF8D6200BF1D70006221BF090FEE9
:101370002F1D032204F12E0105F108001BF088FE49
:1013800005F11806042204F12A0138461BF080FEFC
:10139000052204F13A0130461BF07AFE3046052161
:1013A00004F060FE6A7F94F83F1000F03F0060F3A5
:1013B00005026A77C1F30402AA77A68EEE8101289E
:1013C000B6B201F01F0206D91B3202F01F020B2A2F
:1013D00001D80D9B0EBB0A9BE6680B9800225A6150
:1013E00095F82030012762F3000385F8203021466C
:1013F000277108F0C3FD30683771314608F0BEFD33
:1014000008F0C6FD17B0BDE8F08F062214A94846C3
:101410001BF03EFE9DF847607FE7DAF8002053603E
:1014200094F8372094F8363043EA02232B829BF855
:10143000E430628E0E92490961F3C5038BF8E43003
:1014400011F014FA0D909BF8E400C0F3C20011F003
:101450000FFA0D9BB44A298A40F2E24808FB06F6CF
:10146000034406FB03F303F5742303F23F23A2FBBB
:1014700003239B0C6B6294F83130AC4A08FB03F3F6
:10148000AB637308963BAB62B4F83880A84B42F26A
:1014900010703244B2FBF6F2ABF8C6201FFA88F2A5
:1014A00000FB02623344013A881DB2FBF6F2B3FB43
:1014B000F6F3ABF8C2209AB28242ABF8CE2002DD3E
:1014C000521A063A92B2ABF8CA20394604220BF1FE
:1014D000E8001BF0DDFD234613F81C2FC2F340117A
:1014E000DA070F910D9100F1F7804FF48073A38319
:1014F0000A9B93F8260010F06FFB0146062204F1C8
:101500002B00002900F0E08004F124011BF0C0FD55
:101510000C9BFF2B04F1250000F0D98014A90622B2
:101520001BF0B6FD9DF84730A3774946062204F12B
:101530001F001BF0ADFD9BF8E430EA896286C3F31F
:10154000C2032A8AA28684F83830A4F83680584626
:101550000AF0D4FD2146A881E080DAF804400B9817
:1015600008F00CFDAB89E3801B2323710D9BD4F89D
:101570000080002B40F0BD809DF83C302377214651
:10158000404608F0FBFC08F003FD95F84500B5F86F
:101590004040B5F84270012100F0070010F0A4FFB0
:1015A000274407F5E177391881466248002731233F
:1015B000CBF80830A1FB000159A3D3E90023CBF8F5
:1015C0000470CBF80C70FEF78BFD6B6A0E9ADAF89C
:1015D0000C4020F07F40F61A40F2E24303FB024445
:1015E00002213A46CBF81000012004F011FC0A9DBC
:1015F000284609F065FC821C4F4B0095D2B2384654
:10160000012105F083FE04F2B2440128A4EB090491
:101610007AD00A9B93F82430DB0762D458460AF04C
:101620006DFDDFF81091A6FB09863DA3D3E90023E9
:10163000054631464046FEF753FDDAF80830CDF84E
:1016400018B0A3F13A0A3D4B07933D4B05934FF475
:10165000E4730893DBF81030049320F07F47394897
:101660000023A7FB000103930723B8EB000003FB53
:10167000071166EB01014FF47A720023FEF730FD8B
:1016800027A3D3E90023CDE90170A4FB0901FEF7EC
:1016900027FD053520F07F40EDB2009053462A46E5
:1016A0000121002005F0A8FD30F0020304D02648F7
:1016B00040F2C91101F0BCF901220221104604F0E8
:1016C000A7FB17B0BDE8F08F1BF0EDFC20E706226A
:1016D00000211BF0E8FC25E71B48F12101F0A8F9E7
:1016E00003E70023012200931846114605F00EFE81
:1016F00094E76B7F43F040036B7738460FF08AFA2C
:101700000123E88323773AE708F0D6FC0A9B83425B
:101710003FF47FAF0C4840F29F2101F089F978E750
:101720008D49FD1A0700000083DE1B43FF5962024A
:101730007FC3C90100CA9A3B690301005503010038
:10174000910301008D49FD1A00E201000000000034
:101750002DE9F04F8BB0CDE904011F460020BDF804
:1017600060309DF85490BDF858A0BDF85CB003936C
:10177000164609F009FE002800F0BE8109F00108B4
:101780000546404605F08AFE0290B8F1000F6AD186
:10179000149B02993A4640460BF0F2F8002840F0BC
:1017A000BC812B6A05F11C020692002B62D02B6AC9
:1017B0001C6807F0010A93F844000293C0F3C001CB
:1017C00000F0070010F08EFE029BB3F8401000F509
:1017D000E1700144B3F842000144D948D6A3D3E9EB
:1017E0000023A1FB0001FEF77BFC20F07F4020617D
:1017F00030460FF037FF95F833306FF3410385F82B
:101800003330FF2385F83430002E00F07981A9F1C0
:101810000203012B40F2858195F84430149969F355
:10182000420385F8443095F833306AF3000385F8B5
:101830003330062205F124001BF02AFC039B2B8683
:1018400005F11C00DDE9042300210096FFF7E0F814
:1018500010F0A0FF002840F07F812846FFF704F930
:101860000BB0BDE8F08F062104F076FA00288FD186
:101870001220F5E708F06AFB0690002800F0988136
:101880000AF030FC0446002800F0A081203004F06B
:1018900001FC04F11C03002840F07F81032104F1C6
:1018A0002400079310F0EAFC606F079BA4F82CB0AB
:1018B0004FF6FF72A4F82AA02285002800F0748158
:1018C00004F1640104F16802079304F051FAB4F8DA
:1018D00060209C4B22F4EF6222F0070242F48872EF
:1018E00042F00102A4F8602094F87A2022F0070266
:1018F00084F87A204FF01B124FF0000BC4E9162336
:101900007F2284F8BD20C4F874B0A4F878B0A4F89D
:101910002EB0C4F830B004F134000FF02FF994F871
:10192000392060F3050284F8392001210DF12700E8
:1019300010F0A4FC9DF82710834AA08D84F83BB0DA
:10194000A2FB0132D20802EB4202A1EB8202053275
:1019500084F83A2094F83920039BA4F8C4B002F02C
:101960003F0240F2E24184F8392094F83C20A4F888
:10197000C8B001FB0AFA7549A4F8D0B022F00302FE
:10198000514484F83C20B1FBFAF1714AA4F8C61026
:1019900042F2107101FB03A152440139B2FBFAF289
:1019A000B1FBFAFA0621A4F8C01000F1060C91B2BE
:1019B0006145079BA4F8CCB0A4F8C2A0A4F8CE104F
:1019C00002DD091A063989B294F8E420A4F8CA1095
:1019D0004FF0000B22F0070284F8E420A4F8F0B0E6
:1019E00084F8F2B0C4F814B1A4F818B1A4F830B176
:1019F000079307F053FE94F84A21069BC4F854312C
:101A000022F0030284F84A2194F87A20A4F848B11D
:101A100022F0180284F87A2094F87621A4F850B1C4
:101A200022F0070284F8762194F8962184F853B1C5
:101A30006BF3451284F8962194F8BE21A4F874B192
:101A40006BF3C302C4E94E0100210020C4E9500138
:101A500084F8BE21A4F894B1A4F8BCB1A4F8C8B12C
:101A60000AF076FFA4F8D2000AF078FFD4F8CC117F
:101A7000384AA4F8D4000A40C4F8CC210AF074FF14
:101A800094F8D02160F3020284F8D0210AF072FFAA
:101A900094F8D0211499C4F8D4B160F3C50284F845
:101AA000D02194F8D620C4F804B007F0010A6AF3F4
:101AB000410284F8D6203122A260C4E978BB062214
:101AC000C4E976BBC4F80CB004F1DD001BF0E0FA09
:101AD00094F8D620029969F3000284F8D62004F124
:101AE000D70006221BF0D4FA079B2B62C4E905BB82
:101AF00084F800B0E4615EE60C200BB0BDE8F08F26
:101B000010F0B6F900283FF482AE149938463246F8
:101B10000FF01CFF85F8340079E60B200BB0BDE810
:101B2000F08F00200FF0C2FD95F8333043F0020330
:101B3000C14685F833306FE68D49FD1A0700000075
:101B400000CA9A3B48014801ABAAAAAAFF596202FF
:101B50007FC3C9010000FFF62C6AA36D23B11E48A4
:101B600040F2B44100F064FF04F14C0104F148007C
:101B700004F002F9064618B32768A665D7F8544161
:101B8000C4B1204608F0E8F938460AF0B1FA00235B
:101B900003202B620BB0BDE8F08F0F480793BF21E5
:101BA00000F046FF079B79E604F16C00606787E66A
:101BB000072055E6084840F2BD4100F039FFE0E754
:101BC000054840F2B64100F033FFD5E7069808F02B
:101BD000C3F9072044E600BF5CE2010000000000FA
:101BE0002DE9F04F80468FB004460F46154600F1B0
:101BF000240106220CA818F81C6F1BF049FA94F86F
:101C00001C9018F0010FC9F3401BC6F3C016D9464B
:101C100040F0F4800023A383B97C97F8118011F081
:101C2000010104F12B004FF0060200F0D18004F115
:101C30001E011BF02DFAB8F1FF0F04F1250304F18A
:101C40001F0A00F0CF805246404604F11E010B935C
:101C50000FF0E2F90B9B1846A37F02330CA9A37780
:101C600006221BF015FA3B68D3F800A0EB896386C7
:101C70002B8AA386BAF83030E38610F0F5FD84F89D
:101C80003800D5F8008040460AF038FA7E68A8810E
:101C90002146E080206808F071F9AB89F3801B23AE
:101CA00034683371B9F1000F40F0AE8086F81CB093
:101CB0003146204608F062F908F06AF9D8F8043095
:101CC000D8F8086095F84400B5F80E90FC689E427C
:101CD00038BF1E46C0F3C00140F2E24300F00700E7
:101CE00003FB09F910F0FEFB203400220221241A24
:101CF000012004F08DF8504609F01EFB021D4A4BEE
:101D0000CDF800A0D2B20121002005F0FFFA30F09A
:101D1000020304D0454840F2C53100F089FE4FF07F
:101D2000000A534603220121CDF800A0504605F0D9
:101D3000EDFA40460AF0E2F9BB68CDF81880093B9D
:101D40009E1B3B4B07933B4B059340F2F5333A4FB9
:101D50000893D8F81030A9FB0798CDE903A3451DD7
:101D60002FA3D3E9002348464146FEF7B9F91046B0
:101D700019464FF47A720023FEF7B2F928A3D3E98B
:101D80000023029041464846FEF7AAF924A3D3E96E
:101D900000230190A4FB0701FEF7A2F9EDB220F0A9
:101DA0007F40009033462A460121504605F024FA30
:101DB00030F0020304D01D4840F2F63100F038FE46
:101DC00001220221104604F023F80FB0BDE8F08F85
:101DD0001BF069F9B8F1FF0F04F1250304F11F0AA4
:101DE0007FF431AF1846062200211BF05CF9A6777C
:101DF0000CA9504606221BF04BF934E70B484FF470
:101E0000517100F015FE05E76B7F43F040036B77DF
:101E1000281D0EF0FFFE0123E883337748E700BF5B
:101E20008D49FD1A070000000D0501005CE201006C
:101E3000110501002505010000CA9A3B00000000C1
:101E40002DE9F04F8FB04FF0FF0A1546DFF8F09004
:101E5000DFF8F0B009930A1D0021044608928DF8BE
:101E60002FA019600C91049105910DF134080CAF6D
:101E70000226CDE9019800972B460DF12F0221464D
:101E800000200D9605F084FA02282ED00D9B002B21
:101E900031D19DF82F00FF2835D00538C3B20F2B64
:101EA000E7D880B20AF032F90028E2D090F9393050
:101EB000002BDEDBBAF1FF0F02690C9B0CD00599F9
:101EC00007921846069305F0C3FA049B089A9918DE
:101ED0008842DDE9063219D8CDE904239DF82FA008
:101EE000C7E72146002005F099FA0D9B022BF8D098
:101EF0000D9B002BCDD05846732100F099FD9DF825
:101F00002F00FF28C9D1BAF1FF0F10D0DDE904324C
:101F10000D481344A3FB0001072202FB031106A393
:101F2000D3E90023FEF7DCF8099B803018600FB07E
:101F3000BDE8F08FAFF3008000CA9A3B00000000BC
:101F400031080100B4E201008D49FD1A00000000D3
:101F500070B582B01C4601921546064601AA0220C1
:101F6000FFF76EFF23680BB30198431B1B021FD4BE
:101F7000294605F06DFA1A4A03460721A0FB020222
:101F800001FB032114A3D3E90023FEF7A9F822687B
:101F900002442260002A09DB40F2E24006FB00F026
:101FA000904203D2121A8242FCD8226002B070BD65
:101FB0000146284605F04CFA094A03460721A0FBD2
:101FC000020201FB032104A3D3E90023FEF788F8F2
:101FD0002268121A2260DDE700CA9A3B0000000066
:101FE0008D49FD1A000000002DE9F041B0F8A41160
:101FF00088B0044640F2E2434748002603FB01F163
:1020000005AD0623C5E901668DF80F30A1FB00017F
:102010003FA3D3E900230596FEF762F80DF10F0305
:1020200001950093B4F89A31049004AA2046012146
:102030000EF000FC9DF80F8008F1FF3C5FFA8CFC6D
:102040000DF11603304604F5D27703EB4C0C04F582
:10205000D8764FF6FF7E3A88B8F1000F0AD02B46AB
:10206000724504D0198891424FF001001DD002330F
:102070009C45F5D10237BE42EDD1D4F8F83048BBCB
:10208000BDF8142040F2E24102FB01F1100AC4F84D
:1020900024111A70587094F81A31042262F3020362
:1020A00084F81A3108B0BDE8F081D4F8F81040F295
:1020B000E24302FB03F3100AC4F824310A704870AB
:1020C00094F81A31042262F3020384F81A3108B03A
:1020D000BDE8F081032203F8042C13F8052C94F8D2
:1020E0001A11052542F00302112003F8020C03F82F
:1020F000052C65F302010F20202203F8010C1A7051
:1021000084F81A1108B0BDE8F08100BFAFF3008079
:102110008D49FD1A0700000000CA9A3B000000002C
:1021200038B5044611F070F9A27DC2F341030133C2
:1021300003F00303032B34D063F34202A27503F1CF
:10214000250010F099F963680BB32369FBB112F015
:1021500069FF054605F07AF9C11C002012F012FF54
:1021600012F0ACFF12F05EFF294605F071F912493A
:1021700003460722A0FB010102FB03110CA3D3E9D4
:102180000023FDF7ADFF23691B1A236138BD05F05D
:102190005DF9C11C002012F0F5FEBDE8384012F0D8
:1021A0008DBF6FF34202A2752520CAE7AFF300800E
:1021B00000CA9A3B000000008D49FD1A0000000093
:1021C0002DE9F04F89B0044612F0ECFCC0B250B9D2
:1021D00010F09EF9B848214612F0B6FB09B0BDE8F0
:1021E000F04F12F0B5BC12F0FDFC054612F01CFEDB
:1021F000834612F023FE814613F05AF8064613F088
:102200003BF8824612F0D4FDEDB2804612F0B6FDE6
:1022100010F07EF9002DDDD0012007F0F9FF054612
:10222000002800F085811BF0FF0BF6B240F07781AB
:10223000002E40F0D380FF275A463B4631462046C9
:1022400011F0ACFA0028C5D02B7F626800218DF810
:102250001B105FFA88F803F00F01002A00F0DA8003
:10226000626892F82020900700F1D4800729B1D04D
:10227000A27D120740F16281002940F0B5806B7F9A
:10228000252B00F22A81042007F0C2FF0028A1D0EC
:1022900012F01CFF636A814643B9238C40F271221D
:1022A00002FB03F3B0FBF3F203FB120923681A6984
:1022B000824B0721A2FB030301FB02317CA3D3E97C
:1022C0000023FDF70DFFA0F242334B4582D312F0FD
:1022D00047FD6368059338460FF08CFCE37D9B0750
:1022E000814640F1CE81002800F0CB8101464FF0BD
:1022F000010B049112F084FC2B7F049907AA03922E
:1023000005F11E02CDE901B182460146C3F38013F7
:1023100000922046002211F05BFA504612F0F6FBC4
:1023200012F036FC002840F0C1816548214612F0C9
:102330000BFBB8F1000F40F0BF816168A37D91F8FD
:10234000202043F0800342F0010281F82020A37591
:1023500007F07CFF1623804603714FF6FF732D7F35
:10236000C380514624221C301AF092FE98F81C308B
:10237000C8F80840C5F3401565F3451388F81C30CC
:1023800012F050FE0021C8F810000120079D12F045
:10239000CDFB002E08BFFF2788F81970E37D2D1AAA
:1023A00013F00203C8F8145003D0B9F1000318BFAA
:1023B000012398F81A2063F3000288F81A2007F026
:1023C00045FF03464146D8F80000C8F80C3007F036
:1023D00053FF07F061FF09B0BDE8F08F5FFA8AF0A4
:1023E0000FF06CFC074627E7012915D16B7F0C2BFA
:1023F0007FF4F0AE2A7F009700230193D20905F104
:102400002403204611F03CF900287FF43CAF297FDB
:1024100001F00F01002955D0062953D0022900F000
:10242000A080012959D16B7F0C2B7FF4D3AE2A7F7A
:1024300000970DF11B030193D20905F1240300213C
:10244000204611F01DF9002847D06B7F002B3FF488
:10245000C1AE63682BB12B7F03F00F03072B7FF412
:10246000B9AE03209DF81B9007F0D2FE0546002868
:102470003FF4B0AE07F0EAFE4FF6FF73EB800523A2
:102480002B71B8F1000F68D17F20AB7E2876002E2B
:1024900008BFFF2769F341032868AB7629466F76AA
:1024A00007F0EAFE07F0F8FE94E600BFAFF3008005
:1024B00000CA9A3B00000000A93401008D49FD1AB2
:1024C000493601006B7F252B07D8A27D920602D5E5
:1024D0006268002A47D0252BB8D92B7F03F00F0361
:1024E000042B7FF477AE6B7F252B3FF673AEA37D75
:1024F000D9077FF56FAE12F083FB2B7F0278C3F311
:102500008013B3EBD21F7FF465AE0830062205F1CD
:102510001E011AF0ACFD00287FF45CAE95E7A07DAB
:102520005FFA89F1C0F3C0000FF088FB074683E62D
:1025300067484FF4307100F07BFA74E6FF2F8DF896
:102540001C70C3F3801978D0237EDB1BB3FA83F3AE
:102550005B09002B7FF490AE5CE712F01BFCC0B26D
:1025600093E76B7FB7E7962012F07EFC002012F015
:102570004FFB032007F04CFE814600283FF42AAEB3
:1025800007F064FE4FF6FF73A9F80630052389F8BB
:102590000430B8F1000F70D17F23002E89F8183075
:1025A00014BF3B46FF2389F8193099F81A30D9F83F
:1025B00000006FF3410389F81A30494607F05CFECA
:1025C00007F06AFE12F01CFB2B7F0646C3F3801354
:1025D0003278DB0102F0700243F0030313433370DF
:1025E0000C23384673700FF005FBE37D9F074ED533
:1025F00000284CD033780146304643F0400300F8C1
:10260000023B06221AF044FD062205F11E0106F1E6
:1026100008001AF03DFD304612F078FA12F0B8FAD0
:1026200000284FD112F04AFDA37D2A4843F0010350
:10263000A375214612F088F9CDE605F11E0A07AA16
:10264000514648460FF0B8FB00283FF4E0AEE37D6A
:1026500003F001034B457FF4DAAE5146062204F144
:1026600008001AF004FD297FB0FA80F35B0901F03D
:102670000F01002B7FF400AECCE612F08BFBC3B24F
:102680008BE7A27D04F11901C2F3801B31E6A37D23
:102690003278C3F38013304663F3861200F8022BBE
:1026A00004F1190106221AF0F3FCADE7084840F2E4
:1026B000A24100F0BDF938E612F06CFB059B83F8EF
:1026C000A1003AE6024840F2275100F0B1F9A9E72B
:1026D00080E50100BD34010070B50F4B0F4C104E6A
:1026E000E41AE408A40144F001044FF0FF324FF073
:1026F000FF33304613F0FAF8054603F079FA014645
:1027000030B1084822461AF08CF9284613F080F9B7
:1027100018F014FBE9E700BFF4DA0100E4DB010084
:10272000A8080020BCEB0100022808B501460FD024
:1027300005280DD001280DD0074B084A0848D21AA9
:10274000D208920142F001021AF06BF9002008BD94
:102750000420FCE70320FAE7F4DA0100E4DB0100DF
:10276000D4EB010010B5154C20461AF0ECFE68B908
:10277000134B144A14482168D21AD208920142F02D
:1027800001021AF04EF96FF0150010BD204619F045
:10279000E4FE204619F0E9FEA3682BB19B6C1BB147
:1027A0000A49002220469847A3689B6A1BB1034848
:1027B00098470020E9E71846E7E700BFA4D90100E1
:1027C000F4DA0100E4DB0100E5EB0100D1270000B1
:1027D0002DE9F04F844CA5686B6B8FB02BB1204670
:1027E000984710B9204619F0B1FE7F4819F0AEFEA7
:1027F00060B17E4C2368DBB97D480022002313F0D2
:1028000075F82060A0B9784819F0AFFE6B6B33BB48
:10281000784F7949DFF8E481794D7F1AFF0898F8FD
:102820000030032B00F2D380DFE803F0203DA7C285
:10283000236899689A896B6973B16B489847014618
:102840002068083013F0A8F920688689002EDDD1B1
:1028500013F0DEF82660D9E76FF05701F0E7624821
:1028600098470028D4D10FB0BDE8F08F654C5E4882
:102870000122214619F063FE0028F4D021784B1E76
:10288000012B01D9052907D10846FFF74DFF012388
:10289000286088F80030C2E7BA015B4842F00202C3
:1028A0001AF0BFF8BBE7DFF85CA1DFF860B19AF877
:1028B0000000FFF739FF2A68811A59444A4819F085
:1028C0003EFE2B681E1A04462E60002E6CD101239A
:1028D000CDE900A300220023062003F0FDF8DFF875
:1028E0003091C9F8000050B9B901039041F00101DD
:1028F00048481AF089F8039B88F80030B3E79AF843
:10290000001002292DD0052926D001292CD19BF8B1
:1029100002609AF800002E60D9F80060FFF704FF0B
:102920003A49024606F108001AF088FCD9F800007E
:1029300008301AF07BFC2B6898421CD2B90136484B
:1029400041F001011AF060F8D9F8000013F060F8C6
:10295000032388F8003027E0BBF80230C3F30D06EC
:10296000D7E7BBF80260D4E7BA012C4842F0010275
:102970001AF057F8CDE70223EBE7254E2A683368B3
:10298000194899899B68194419F0D9FD31682E6856
:102990008B89361A034404468B812E6026B9204861
:1029A00013F002F888F80060002C7FF438AF5AE783
:1029B0002A680D48212A28BF212205A919F0BFFD48
:1029C0002B681B1A04462B60002BEDD1C1E7154A7A
:1029D00015491648C82319F0F6FD1248C8210FB052
:1029E000BDE8F04F19F0D9BFA4D90100842F002011
:1029F000C4080020E4DB0100F4DA0100C25F00201B
:102A0000882F0020C35F0020FEEB0100BE5F002086
:102A1000802F002010EC01002EEC0100D4EB01000F
:102A2000A808002049EC01003C08020082EC0100EB
:102A300070B504460E464FF02002EFF3118382F387
:102A40001288BFF36F8F234819F087FD214819F0D2
:102A50008CFD002C37D125461E48042119F082FD3B
:102A60001C48FF2119F07EFDA91D1A48C9B219F0B2
:102A700079FD1848AA2119F075FD3DB1154D013CAD
:102A800014F8011F11BB134819F06CFD1148F1B285
:102A900019F068FD0F48C6F3072119F063FD0D48D2
:102AA000C6F3074119F05EFD0A48310E19F05AFDD0
:102AB000FEE701332F2A08BF1D46E25C002AF8D149
:102AC0002C445D1BC8E700252B46F6E7284619F085
:102AD00049FDD5E7A4D9010070B5184888B003F0C6
:102AE0008DF800220023CDE9062300236FF00802B1
:102AF000CDE90323CDE9013300931149114B12486D
:102B00004FF4806216F002F910490F480B4D104E39
:102B1000104C15F009FF4FF0FF324FF0FF332846FD
:102B200012F0E4FE0146304612F03EFFA368DB6976
:102B3000002BF0D020469847EDE700BF8C0800201E
:102B400020700020D9260000800900209FEC0100A1
:102B5000C4080020A4D90100436803F00303022B3A
:102B600070B504460E46816010D0032B04D0012BB3
:102B70000FD10025284601E005680020002363608E
:102B800010B1314619F01CFC284670BD00680025C4
:102B9000F4E7064A06490748452319F014FD03489F
:102BA000452119F0FAFE0025E7E700BFB4EC01006B
:102BB0003C08020082EC0100014B1860704700BF26
:102BC0001000002030B585B0CDE901010446002594
:102BD00001A90548039500F097FCDDE90230984211
:102BE000B8BF255405B030BDA1C501002DE9F74F90
:102BF000B0F81C90009219F0080F044622D0012969
:102C00000CBF49F0100949F02009A0F81C901434B9
:102C1000204615F0A7FE68B99B4A9C499C48AC2306
:102C200019F0D1FC9B48214619F0CDFC9648AC2107
:102C300019F0B3FE009B83F31188BFF36F8F03B0CD
:102C4000BDE8F08F944FDFF8488209F007090229A8
:102C500006D1204619F0D1FC0028D8D0012864D133
:102C6000D4F818B0A38BBBF1000F19DA0026256841
:102C700023F00703C4E9006643F00103A383A38B99
:102C800003F007024A45019203D0A268002A40F0EF
:102C9000138115B9002E00F059814FF0000A0DE1A3
:102CA00003F00702511F012920D8002123F0070358
:102CB000062A25689BB2C4E900110AD13DB1E28B16
:102CC00029460968013292B20029FAD1E28343F021
:102CD0000203A383204619F090FC06460028CED0BC
:102CE000A38B43F02003A3830026C8E7042A0DD159
:102CF00023F007039AB2A283204619F07EFC054612
:102D000088B142F02002A2830025EDE7634940F23A
:102D10001B133A46404619F056FC40F21B11384648
:102D200019F03BFE00252E46A9E7032834D1B9F15E
:102D3000000F0BD05A4940464FF4AB733A4619F096
:102D400042FC4FF4AB71384619F027FE23685BB99B
:102D50005449404640F257133A4619F034FC40F2C9
:102D60005711384619F019FE23691E685EB94E499D
:102D700040464FF4AD733A4619F025FC4FF4AD715F
:102D8000384619F00AFEA38B23F0070343F006032D
:102D9000A3830025AB4672E7042831D1B9F1020FB5
:102DA0000BD04249404640F25D133A4619F00BFC05
:102DB00040F25D11384619F0F0FDE38B5BB13C4900
:102DC00040464FF4AF733A4619F0FDFB4FF4AF7134
:102DD000384619F0E2FD23695E685EB93249404623
:102DE00040F261133A4619F0EEFB40F261113846A9
:102DF00019F0D3FDA38B23F0070343F00403C7E7C7
:102E0000052831D1B9F1010F0BD02A4940464FF4C2
:102E1000B2733A4619F0D7FB4FF4B271384619F045
:102E2000BCFD23685BB91F49404640F265133A4632
:102E300019F0C9FB40F26511384619F0AEFD23695F
:102E40009E685EB9184940464FF4B4733A4619F08B
:102E5000BAFB4FF4B471384619F09FFDA38B23F0F1
:102E6000070343F0050393E70C4940F26B133A461E
:102E7000404619F0A8FB002540F26B11384619F0C6
:102E80008CFD2E4686E700BF7AED0100A0ED010023
:102E900082EC0100B7ED0100D7EC01003C08020014
:102EA000F9EC010005ED010028ED01003FED010006
:102EB00055ED010064ED01004FF0010A43F00803F5
:102EC00004F11409A383484615F04CFD68B9384A4B
:102ED0003849AC23404619F076FB3748494619F08B
:102EE00072FB3348AC2119F058FD009B83F3118825
:102EF000BFF36F8FBAF1000F37D1002D47D116B154
:102F00002E492046B0474FF02003EFF3118B83F397
:102F10001288BFF36F8F4846CDF800B015F014FD4E
:102F200068B9234A26498123404619F04CFB2548BD
:102F3000494619F048FB1E48812119F02EFD4846EC
:102F400015F020FDA38B23F00803A383A38BDA06DF
:102F500025D523F01003A3830121B4F81C9009F0B8
:102F6000070900297FF473AE51E6A1680029C4D097
:102F7000D1F800A04B68019A9C4620465B46E0478A
:102F8000BAF1000FB9D05146DAF800A0F2E72946AD
:102F9000019A2D685B46204619F04BFBADE713F014
:102FA00020011EBF23F02003A3830221D5E700BF29
:102FB0007AED0100A0ED0100B7ED0100C92F00007E
:102FC000CCED0100E1ED0100F8B504460D4600F13D
:102FD00014064FF02003EFF3118783F31288BFF339
:102FE0006F8F304615F0B0FC68B90C4A0C490D489B
:102FF000812319F0E8FA0C48314619F0E4FA074841
:10300000812119F0CAFC304615F0BCFCA5613A4696
:1030100020460121BDE8F840FFF7E8BD7AED010048
:10302000CCED010082EC0100E1ED01002DE9F0475B
:1030300004460F4619F013FB051E5EDB04F114096C
:103040004FF02003EFF3118A83F31288BFF36F8FE1
:10305000484615F079FC68B9384A3949394881231E
:1030600019F0B1FA3848494619F0ADFA33488121D0
:1030700019F093FC484615F085FCE38BA28B4FF6C4
:10308000FF718B4202F0070650D0022E24D101338B
:10309000E38335464FF00108484615F063FC68B9F4
:1030A000264A2A492748AC2319F08DFA2848494670
:1030B00019F089FA2148AC2119F06FFC8AF31188C4
:1030C000BFF36F8FB8F1000F17D000233246394697
:1030D000204619F0AEFA10E0930701D0062E0FD16A
:1030E00000233B606368F3B9C4E900773546FEB955
:1030F000524602212046FFF779FD2846BDE8F087B9
:10310000052E18D0012E0BD012490E48124A40F25B
:10311000C91319F058FA104840F2C91119F03DFCD2
:103120006FF0040504E01F606760DFE76FF00A05D9
:103130004FF00008B0E76FF08505F9E77AED010080
:10314000CCED010082EC0100E1ED0100A0ED0100F9
:10315000B7ED010064ED0100D7EC010070B5044645
:1031600000F114054FF02003EFF3118683F312886A
:10317000BFF36F8F284615F0E7FB68B9274A284947
:103180002848812319F01FFA2748294619F01BFA0D
:103190002248812119F001FC284615F0F3FBA38B8E
:1031A00003F00703022B1CD0012B0CBF6FF00404AB
:1031B0006FF08504284615F0D5FB68B9174A1B49FE
:1031C0001848AC2319F0FFF91948294619F0FBF902
:1031D0001248AC2119F0E1FB86F31188BFF36F8F21
:1031E00018E0E38B5BB913490E48134A4FF4F873A8
:1031F00019F0E9F910484FF4F87119F0CEFBE38BA0
:10320000013B9BB2E3833BB9204632460221FFF7E4
:10321000EDFC0224204670BD0224CBE77AED0100CC
:10322000CCED010082EC0100E1ED0100A0ED010018
:10323000B7ED0100F9ED0100D7EC0100F8B50D463E
:10324000002939D006680C1FA41BE70824F00704E6
:1032500034446388DB070DD4184A19491948A3235D
:1032600019F0B1F91848294619F0ADF91348A3210E
:1032700019F093FB3946304619F01DFA384436F8F8
:103280003030C01A87420DD00C4A10490D48AB238C
:1032900019F099F90E48294619F095F90748AB211C
:1032A00019F07BFB638823F00103638039463046C5
:1032B000BDE8F84019F0BBBAF8BD00BF07EE010049
:1032C00028EE010082EC010039EE010071EE0100F0
:1032D00097EE01004B422DE9F04703EA010731EA7E
:1032E0000303066814461FD0042F3D46B94628BF85
:1032F0000425CF1B07F1FF3A1AEA070F0ED0334916
:10330000334A344840F2271319F05DF9324819F076
:103310005AF92F4840F2271119F03FFB7CB94FF0C2
:1033200000094846BDE8F087042904D8BDE8F04705
:10333000114619F0ADBA4FF000090425DAE7B36879
:10334000B3EBD40FEBD904F10B013944491BC90885
:10335000304619F006FA80460028E0D009F104054D
:1033600005EBC005354455447F422F40A7EB0909C2
:103370004C44A9F1040307349B1B24F00704A41B4D
:10338000B0EBD30F4FEAD3074FEAE40408D201466B
:103390003A46304619F031FA4146304619F090F974
:1033A0003946304619F087F93844844207D230460E
:1033B000224619F022FA2146304619F081F906EB2F
:1033C000C706738843F001037380AAE7D3EE0100B8
:1033D00007EE010082EC0100EEEE0100B2F5802F55
:1033E0002DE9F04104460E4617466AD33E493F4A4E
:1033F0003F4840F2A51319F0E6F83E4819F0E3F80B
:1034000040F2A511394819F0C8FA043FF51D3E44B1
:1034100025F0070526F00706761B172E4FEAD6077C
:103420000ED83549314A324840F2B51319F0CBF87D
:10343000324819F0C8F82D4840F2B51119F0ADFA2C
:103440002560B7FA87F4C4F12008C4F12404A4006D
:1034500007340023E408EB60631CBB42AF600ED965
:103460002749224A224840F2C51319F0ACF82348F4
:1034700019F0A9F81D4840F2C51119F08EFA05F1AE
:10348000100303EB88080022984529D1630043F01C
:1034900001036B8005EBC4013B1B58002A80488068
:1034A000A91925F834404A80AB5305EBC7032146E0
:1034B0005A8842F0010228465A80BDE8F04119F0CE
:1034C000FFB8042AA1D80F49084A09484FF4D67317
:1034D00019F079F8094819F076F84FF4D67191E7A8
:1034E00043F8042BD0E700BF0BEF010007EE01000B
:1034F00082EC010021EF010072EF010059EF0100A1
:103500009BEF010038EF01002DE9F04F91B08B46A1
:10351000029092461C4600259AF8000008B92846F9
:103520005FE325280AF1010707D0029B5946984717
:103530000028C0F25683013512E2182200210AA8A1
:1035400019F0B1FD9AF80130252B78D000221046F1
:10355000964694461646394617F8013B2B2B00F049
:103560009D8000F29480202B00F09B80232B00F0A4
:103570009B802EB19DF8306046F004068DF83060D7
:10358000BCF1000F05D09DF8306046F008068DF8BC
:103590003060BEF1000F05D09DF8306046F0100697
:1035A0008DF8306028B19DF8300040F020008DF893
:1035B00030002AB19DF8302042F040028DF83020D2
:1035C0009DF8302002F04400442803D16FF38612A6
:1035D0008DF830209DF830202A2B42F080028DF8A3
:1035E00030207BD19DF8312042F001024B1C8DF838
:1035F00031201A782E2A9DF831200CBF012100219C
:1036000061F341028DF8312074D15A782A2A6AD0A8
:10361000013300210A26184610F8012BA2F13007C9
:10362000092F40F28E809DF830200E91C2F34000A9
:1036300040EAD17161F341028DF830205AE00AF17D
:1036400002078DF833309DF83130D90740F14981B8
:1036500054F8049BB9F1000F07DA9DF8302042F0CE
:1036600004028DF83020C9F100095A0740F1428167
:1036700054F8048BB8F1000F80F241819DF831308D
:103680006FF341038DF831304FF0FF3837E12D2BC8
:103690000CD0302B7FF46DAF01225CE74FF0010CB2
:1036A00059E74FF0010E56E7012054E7012652E793
:1036B0000CFB0202303A33461E4616F8010BA0F10D
:1036C0003007092FF4D9994293D09DF830100D920C
:1036D000D20F62F341018DF830108AE70B460022C9
:1036E0004FF00A0CE8E79DF8312042F004028DF813
:1036F000312002331F4617F8012B6C2A41D025D800
:10370000682A2BD06A2A46D04C2A4CD01F4617F87C
:10371000012B9DF831308DF83320782A00F2D980C2
:10372000572A4DD8412A03D0453A022A00F2D180C7
:103730009DF83230042262F302038DF83230012307
:103740009EE006FB01213039034664E7742A26D047
:103750007A2ADBD19DF8313006220DE05A78682AAA
:103760009DF8312006D1012161F3C6028DF8312088
:103770009F1CCCE71346022262F3C6038DF831305A
:10378000C5E75A786C2A9DF8312001D10421EBE776
:1037900013460322F0E79DF831300522ECE79DF84F
:1037A00031300722E8E7BDF8303023F4F04323F04E
:1037B000020343F4804343F00203ADF83030A6E740
:1037C000A2F15801202900F2848001A050F821F0D4
:1037D00095380000D3380000D3380000D3380000FB
:1037E000D3380000D3380000D3380000D3380000AD
:1037F000D338000031370000D3380000953800007E
:1038000055380000313700003137000031370000F3
:10381000D338000055380000D3380000D3380000FA
:10382000D3380000D33800009D38000095380000E0
:10383000B9380000D3380000D3380000B938000090
:10384000D338000095380000D3380000D33800008A
:10385000953800009DF83210012003F0780360F3E2
:103860000201402B8DF8321002BF9DF8301041F05C
:1038700001018DF83010632A31D1003B18BF0123BC
:103880009DF83020C2F340010B4363F341028DF8F1
:103890003020D8E69DF832100220DEE79DF8322075
:1038A00003F07803A3F14000032161F302024342D5
:1038B0008DF832204341E3E79DF83220032113F0D5
:1038C000780F61F302028DF8322014BF0123002328
:1038D000D6E79DF8303043F001038DF830300023F7
:1038E000CEE79DF93020002AB4BFDDF834904FF0C8
:1038F000FF39BAE69B077FF5C7AEDDF838809DF843
:1039000031100023CDE90D339DF8323003F0070369
:10391000012BC1F3C30138D1CB1E042B22D8DFE821
:1039200003F003090921210054F8043BDA17CDE91B
:103930000A3206E0073424F00704F4E80223CDE954
:103940000A239DF8303013F0030656D002983B4608
:103950005246594619F00BF80028C0F2428105443E
:10396000BA46D9E554F8043B01294FEAE372CDE9A0
:103970000A3205D19DF828300A9300230B93E0E723
:103980000229DED1BDF92830D0E7022B23D1CB1E8E
:10399000042B13D8DFE803F0030A0A12120022688E
:1039A0000A920023201D0B930446CAE7E01D20F075
:1039B0000700F0E80223CDE90A23F5E754F8043BB9
:1039C0000A9301294FF000030B93D3D00229B8D1F9
:1039D000BDF82830D0E7042B09D1E31D23F00703FD
:1039E00003F10804D3E90023CDE90A23A9E7032B57
:1039F00004BF54F8043B0A93A3E79DF833007828EA
:103A0000AED8622822D825283FF48FAD5828A7D1F8
:103A10000DF126030093DDE90A0104AB0CAA18F0AE
:103A200060FF8246B8F1000F0DF126000CDB9DF817
:103A30003020A0EB0A036FF3861298458DF83020F2
:103A400002D9A8EB03030D9380463DE063381528A7
:103A500086D801A252F820F0D93A00003D3B000080
:103A600061390000613900006139000061390000EE
:103A70003D3B000061390000613900006139000000
:103A800061390000973B0000653B0000693B000086
:103A90006139000061390000B13A0000613900006D
:103AA000653B00006139000061390000653B0000A2
:103AB000B8F1000FDDF828A00ADB4146504619F0A6
:103AC000C1FA0AEB00080026BAF1000F0CD147E753
:103AD000504619F0B0FAF4E70A9B8DF81030002632
:103AE0000DF1100A0DF11108A8EB0A0306B101331C
:103AF0009DF83220D00668D5023352060D9948BF92
:103B00000E9A0B4448BF9B18B9F1000F76DD9DF863
:103B10003020A9EB0309C2F38003039353076DD44C
:103B2000500661D546B1029B594630469847002859
:103B300057DB039B01351E46302356E01E070FD48A
:103B400013F0100618BF2026DDE90A23002BBFF66C
:103B50005FAF524263EB4303CDE90A232D2657E7BB
:103B60002B26F1E7002653E70A9840B30DF1260310
:103B700000930CAA04AB002118F0B3FEBDF832305C
:103B800003F0EF0343F4F04343F010038246ADF833
:103B90003230002646E70A9B07293FF6E1AEDFE810
:103BA00001F00C04060C08080C0C1D70D8E61D80F2
:103BB000D6E6EA17C3E90052D2E61D60D0E6DFF888
:103BC000C8A006460AF105088EE7110748BF013371
:103BD00093E7184603935946029B98470028039B96
:103BE00004DA11B0BDE8F08F20234D444A46002A84
:103BF000A5EB090109F1FF39EBDC0D4636B1029B5B
:103C00005946304698470028EBDB01359DF83230A5
:103C1000D90601D41A0706D5029B59463020984789
:103C20000028DEDB01359DF83230DB0607D59DF834
:103C30003300029B594698470028D2DB01350D9E80
:103C40002E44731B002B16DC0298434652465946FD
:103C500018F08DFE0028C4DB0544A944A9EB050338
:103C6000002B7FF77DAE029B594620209847002805
:103C7000B7DB0135F2E7029B594630209847002810
:103C8000AFDB0135DDE700BFC6EF0100F0B58FB057
:103C9000D0F8A87005460E4619F092FC044608B10B
:103CA000037833B91C4A2B460B2107A818F098FC5F
:103CB00007AC01A9284619F087FC024660B11749F4
:103CC000174B18485B1ADB089B0143F0030321469E
:103CD00018F0BBFE00230193019BCDE90A4704A91C
:103CE000FF1A28460C9719F07FFC044602A815F02D
:103CF000EBF854EA00030BD10498059D6424A0FB63
:103D00000401DDE9022304FB0511FCF7E9F90D903C
:103D10000AA8B0470FB0F0BDCCEF0100F4DA010003
:103D20001CDC0100CFEF010070B58368114C6426E4
:103D300073434668B3FBF6F60F4B86B00546006842
:103D4000E41A00F079F9D5E90132E408A401991ADE
:103D5000CDE9033644F00304EB680090CDE901128D
:103D60000593064823460622694618F0A3FE06B0CE
:103D700070BD00BF1CDC0100F4DA0100F6EF0100A9
:103D80000146014814F006BE8D3C000008B5074905
:103D9000074B0848C91AC908890141F0030118F006
:103DA00033FEBDE808400448FFF7EABF1CDC010011
:103DB000F4DA010035F00100293D000030B510496A
:103DC000104889B0002219F01BFD0F4D0F49002249
:103DD0000023CDE9062300240E23CDE90334CDE9E9
:103DE00001440B4B00944FF48062284614F08EFF80
:103DF0000849284614F098FD204609B030BD00BFA0
:103E0000193E0000000B0020380B002060780020D5
:103E10000D42000055F00100014815F0B9BB00BF8C
:103E2000400800202029F8B505460C4609D9144958
:103E30001448154A872318F0C6FB1348872118F049
:103E4000ACFD002003460246012715F8011B09B10D
:103E5000A34200D3F8BD252902D182F00102F4E784
:103E6000002AF2D041F02006613E192EEDD87329C8
:103E700004BF07FA03F2104301330022E5E700BF55
:103E80008AF0010082EC01005DF001000C4A002381
:103E900010B513700B4A13600B4B0C4A1A604FF4A9
:103EA000004000F0D5FD00F0C1FA094818F086FD89
:103EB000BDE81040074908481423482219F05EBBAA
:103EC000C55F0020902F00201400002001CA0100CF
:103ED000982F002040900020A02F002070B5194B93
:103EE000194CE41A902C0BD918491948194A40F278
:103EF0004A2318F068FB174840F24A2118F04DFD9C
:103F0000BFF35B8F144B53E8006F721C43E8002132
:103F10000029F8D1BFF35B8F1EB92511094CAE42C1
:103F200000DB70BD237B53B123689B690BB1204636
:103F30009847636804221968204600F053FA013656
:103F40001034ECE724DC010034DC0100A2F00100B5
:103F500082EC01005DF00100942F002010B54FF0BD
:103F60002003EFF3118483F31288BFF36F8F0448AB
:103F700018F034FD84F31188BFF36F8F10BD00BFBC
:103F8000982F002010B5044C237813B9034815F07E
:103F9000FFFA0123237010BDC45F002040080020F9
:103FA0000C4BBFF35B8F53E8002F013243E8002135
:103FB0000029F8D1BFF35B8FBFF35B8F064B53E84B
:103FC000002F013A43E800210029F8D1BFF35B8FAD
:103FD000704700BF902F00208C2F00200020064B40
:103FE000BFF35B8F024653E8000F43E8002100292E
:103FF000F9D1BFF35B8F7047902F0020F8B5FFF722
:10400000EDFF0B4C0B4D2D1B07462D110026AE422C
:1040100000DBF8BD204618F0E7FC28B123681B69D7
:1040200013B139462046984701361034EFE700BFF8
:1040300024DC010034DC0100164B984237B50446FD
:1040400002D3154B984220D314480022002301A923
:1040500014F09AFB0546D8B90122019BBFF35B8F90
:1040600053E8001F43E800200028F9D1BFF35B8F1D
:10407000019821464122043018F0CBFF019C7E2399
:1040800084F8453084F846500434204603B030BDEF
:10409000034CFAE7ECD80100B4080200A02F00207E
:1040A000C6F0010050B1064B984206D303F5B46345
:1040B00098422CBF0020012070470020704700BFAD
:1040C000409000202DE9F84F424B1B78044603B97D
:1040D000A0B1FFF743FF054618B194B1284618F088
:1040E00093FD2CB93C4B1B68002B01DDFFF786FFCD
:1040F0003A4818F071FC041E18BF01242046BDE8A0
:10410000F88F374BBFF35B8F53E8002F013A43E83A
:1041100000210029F8D1BFF35B8F324B1B7893B994
:104120002B7ADB070FD418F082FD8046284618F062
:1041300049FD01464046FFF775FEDFF8ACB0DFF8F9
:10414000ACA0064636B92A4E2A4FBF1B3F114FF08E
:1041500000083CE0B6FA86F7C7F11F073946284643
:1041600018F033FD244B9842024602D3234B984269
:104170001BD31046FFF796FFB8B95A4515D0698989
:10418000C1F3891100F020F91D498146D8231D484B
:10419000524618F018FA1C48394643464A4618F069
:1041A00012FAD821504618F0F8FB012303FA07F75A
:1041B00026EA0706C6E7304618F016FC20B1336839
:1041C00029465B683046984708F101081036B84523
:1041D000F1DB83E7C45F0020902F0020982F0020A0
:1041E0008C2F0020C55F0020C6F001005DF00100AB
:1041F00024DC010034DC0100ECD80100B40802002A
:104200003C08020082EC0100E0F00100164B174A66
:104210009B1A002B10B50BDC15491648164A40F2C4
:10422000F14318F0D0F9144840F2F14118F0B5FB11
:10423000FFF754FE16F004FF104B186030B1104B1E
:104240001B68092B02DD0F4815F0A2F90D4C002068
:10425000FFF738FF0028FAD14FF0FF324FF0FF335D
:10426000204615F0D9F9F2E734DC010024DC010026
:1042700022F1010082EC01005DF00100C02F00205E
:104280008C2F002040080020284B37B51B68418147
:1042900004469847E0604FF02003EFF3118583F365
:1042A0001288BFF36F8F2248214618F08BFB85F3ED
:1042B0001188BFF36F8FBFF35B8F1E4B53E8002F46
:1042C000511C43E800100028F8D1BFF35B8F1A4B54
:1042D0001B7883B14FF02003EFF3118483F312882E
:1042E000BFF36F8F0020FFF7EDFE84F31188BFF35B
:1042F0006F8F03B030BD114B1B68002BF9D052B942
:1043000000220023CDE900230D484FF40042002392
:1043100017F092FCEDE70A2AEBD1094819F07CFA74
:10432000084803B0BDE8304015F032B91400002051
:10433000982F00208C2F0020C55F0020C02F002068
:10434000000B002040080020F8B50F4F3D7875B9EC
:104350000E4C0F4EFFF7C2FD361B3611B54207DB80
:104360000020FFF7AFFE0028FAD101233B70F8BD13
:10437000204618F039FB18B1236820465B6998473E
:1043800001351034EAE700BFC55F002024DC0100DE
:1043900034DC010007B504380190BFF35B8F50E8AF
:1043A000003F5A1E40E800210029F8D1BFF35B8F7F
:1043B000012B03D1034801A914F052FA03B05DF8B0
:1043C00004FB00BFA02F0020044A054B9B1AB1EB51
:1043D000D30F34BF52F8310000207047F4DA0100E7
:1043E00024DC010070B50D4C041B2411013405467A
:1043F0000E46E4B248B90A490A480B4AD12318F0DC
:10440000E2F80948D12118F0C8FA6B6801221C7142
:104410001E605A71BDE87040FFF7B4BD24DC010096
:10442000CBF1010082EC01009AF10100024903483E
:104430008023202219F0A2B8E0950020C42F00208C
:1044400037B50023094D01930120FFF73BFE0446D9
:10445000FFF7A6FD0022002301A9284614F094F9D5
:1044600008B1002CF0D1019803B030BDC42F00205A
:1044700007B50023019307480022002301A914F087
:1044800083F910B1FFF7DCFF0190019803B05DF8EC
:1044900004FB00BFC42F0020F0B5037A85B0DC0711
:1044A00001901ED4457A2D091BD000242646019880
:1044B000314618F08AFB0746FFF7F4FD70B134B9B6
:1044C000019B29461869FFF7ADFC044648B124FA60
:1044D00006F3D90702D53846FFF75CFF0136AE4236
:1044E000E5D3019B1A7A920704D55B69084C0393C4
:1044F000039B2BB9064801A914F0B2F905B0F0BD31
:104500001D6803A9204614F0ABF90395F0E700BF3E
:10451000C42F00200E2A2DE9F84F80460F4615467D
:104520000BD931493148324A40F23B1318F04BF86D
:104530002F4840F23B1118F030FAFFF799FF04467C
:1045400058B301234FF0000A032D4360A0F808A0E0
:104550000CD9037AC0F814A043F002030372A5F14A
:10456000020900F1140BB9F1000F0EDC637AC4F8F4
:10457000108065F30713032D637219D8AA0039461A
:1045800004F1140018F084FD07E0FFF771FF064600
:1045900030B92046FFF780FF34462046BDE8F88F4B
:1045A000CBF80000A9F10709C0F800A08346DAE7BC
:1045B0003946082204F11800D4F8148018F068FD78
:1045C000023D0837072D2E4628BF07264FEA8609E9
:1045D000394608F104004A4618F05AFDAD1BD8F8D8
:1045E00000804F44EED1D8E70EF2010082EC0100CA
:1045F000E2F101000EB403B503AB014653F8042BFE
:1046000004480193FEF780FF02B05DF804EB03B0AD
:10461000704700BF794800002DE9F0471D46089B10
:104620001746DA0604460E4605D499064CBF2A49B9
:104630002A49FFF7DFFFDFF8A8904FF00008A845F0
:104640002ADBDFF8A080DFF8A090DFF894A0002537
:10465000BD422FD2725D49462046FFF7CBFF0135A0
:10466000102D20D12149DFF87880DFF88490204692
:10467000FFF7C0FF0025AF4228D9725DA2F12003E9
:104680005F2B28BF2E2249462046FFF7B3FF013596
:10469000102D14D1BDE8F08749462046FFF7AAFF48
:1046A00008F10108CBE76A07D2D151462046FFF74F
:1046B000A1FFCDE741462046FFF79CFFCFE76B0700
:1046C000D9D141462046FFF795FFD4E74146204621
:1046D000FFF790FFDBE700BF8AFB010019F2010042
:1046E00024F2010022F201001CF2010026F2010076
:1046F00028F201002DE9F04F87B01C4601F00103BC
:1047000005929DF84090BDF948A00493074688465D
:1047100001F0020B01F0080618F0EFF9024600283C
:1047200044D03A493846FFF765FF0546BBF1000F14
:1047300008D018F0440F3BD1354922463846FFF7E0
:1047400059FF0544049B53B1324B334953F8292098
:10475000324B3846002A08BF1A46FFF74BFF3EB1DE
:104760002F4B304953F829203846FFF743FF0646C0
:10477000BAF1000F16DB059B002B45D0012303FA8D
:1047800009F9294B294C19F0100F18BF1C46514646
:104790009DF84400FFF718FE214602463846FFF711
:1047A00029FF0644701907B0BDE8F08F0546BDE744
:1047B0001F4B18680028C4D01E4B4FF47A781B6832
:1047C000B4FBF3F44FF46161B4FBF0F300FB13446A
:1047D00008FB04F44FF03C0CB3FBF1F201FB123187
:1047E000B4FBF0FEB1FBFCF300FB1E440CFB131109
:1047F00008FB04F40091B4FBF0F00F49CDE901E0AF
:104800003846FFF7F7FE9CE7084CC0E739F2010095
:104810003DF2010068DC010062F201002BF20100B0
:104820007CDC010065F2010035F2010030F201008C
:10483000E42F0020E82F002046F2010038B50C4696
:10484000E107054603D5084A0849FFF7D3FEE2060B
:1048500008D4A30628464CBF05490649BDE83840A0
:10486000FFF7C8BE38BD00BF2BF2010062F20100A5
:104870008AFB010019F2010038B54B681A68CB6851
:104880009A4205460C4602D1084618F097FB636829
:10489000BFF35B8F53E8002F511C43E80010002842
:1048A000F8D1BFF35B8FA3689D5463681A68E3680F
:1048B0009A4209D905490648064A762317F083FE2D
:1048C0000448762118F069F8002038BD9AF20100FA
:1048D00082EC01006BF201002DE9F0478B7A13F0B6
:1048E00007088AB004460E46174622D00A7A49893C
:1048F000C3F3C203C1F38911D243CDE9008302910E
:10490000F36802F001023946FFF7F4FE8146357A7A
:10491000ED4315F001050ED02146304618F0F1F9AF
:10492000B8F1000F39D0424639462046FFF786FFDE
:1049300033E0C146EBE7B8F1000F34D1E3685BB96F
:1049400028492948294A4FF4E97317F03CFE2748C3
:104950004FF4E97118F021F80027E368069306AADE
:104960003B46A168304618F0B8F9069A63681A60A9
:104970003AB1A368134413F8015CA5F10A035D4240
:104980005D41204618F01AFB069B1F44002BE4D122
:104990001DB117492046FFF72DFE20460AB0BDE89D
:1049A000F04718F00BBB304618F041F911490246A8
:1049B0002046FFF71FFE4FF0100A05AA2B4606A956
:1049C0003046CDF814A018F088F9059A002AAAD02C
:1049D0004B46009706A92046FFF71EFE059B1D4487
:1049E000EBE700BFCAF2010082EC01006BF20100AC
:1049F000D7F2010062F2010073B542F20F738B42ED
:104A000028BF0B4605680F4A04460521684617F083
:104A1000E7FD63680C495B6806460422284618F0E7
:104A200063F963683246694628465B6818F05CF9AA
:104A3000636806495B681722284618F055F902B0EA
:104A400070BD00BF96FF010011F30100F9F20100F3
:104A5000084A10B50123084C13600021A04204D875
:104A600001B11360054B186010BD40085B000121C7
:104A7000F4E700BFE82F002040420F00E42F0020A1
:104A8000014B01221A707047D65F0020024B034889
:104A900001221A7018F092BAD75F0020ACDC010036
:104AA0000148FFF7A9BF00BFACDC010010B5084604
:104AB0000C4618F07AF8054821460E22FFF70CFF45
:104AC0002046BDE8104018F09FB800BFACDC0100E4
:104AD000054B1B781BB141F2883018F062BEA42050
:104AE000002116F075BA00BFD75F00202DE9F0470E
:104AF000DFF88C90DFF88CA080460F46042499F8EC
:104B00000050CDB94FF0FF334FF0FF32504614F054
:104B10001BFA3A464146284613F0A8FA0646504684
:104B200014F00CFB184DFEB101232B7099F80030E6
:104B30006BB93846BDE8F0873A464146002013F08D
:104B400095FA0646EEE75CB92C704FF0FF34002072
:104B500013F008FB0028ECD02B78002BF3D1E8E70A
:104B6000013CFFF7B5FFF2E72B7813B1013C04D10C
:104B70002C702B78002BC2D1DBE7FFF7A9FFF8E7F9
:104B8000D75F00202C080020D65F00202DE9F843D5
:104B900005464FF02003EFF3118683F31288BFF32D
:104BA0006F8F224813F0D0FE68B9214A214922486C
:104BB000812317F008FD1D49204817F004FD1C480B
:104BC000812117F0EAFE194813F0DCFE1C4B1C682B
:104BD0009CB11C4FDFF870804FF00C09D4E9013212
:104BE000002D08BF13462BB198F8142009FB02F2E0
:104BF000B85C98472468002CF0D10C4813F0B2FE42
:104C000068B90B4A11490C48AC2317F0DCFC074982
:104C10000F4817F0D8FC0648AC2117F0BEFE86F30B
:104C20001188BFF36F8FBDE8F88300BF003000200C
:104C30007AED0100CCED010082EC0100E1ED010014
:104C40000430002010300020D82C0020A0ED0100FE
:104C5000B7ED010000F01F0301229A400A4BBFF399
:104C60005B8F400903EB800050E8003F43EA0201FC
:104C700040E8001CBCF1000FF6D1BFF35B8F1A4275
:104C800014BF0120002070471C30002030B51D4BA0
:104C90001C7DBFF35B8F04F01F0301229A401A4B67
:104CA000610985B0D04303EB810353E8001F01EA9B
:104CB000000543E8005CBCF1000FF6D1BFF35B8F49
:104CC000114217D0114D0C2202FB045207CA01AB4E
:104CD00083E807000E4A7AB193E8070018F002FA59
:104CE0000020FFF753FF0C235C432A1900232B51AC
:104CF000C2E9013305B030BD82F31188BFF36F8F75
:104D0000EEE700BFD82C00200C300020103000202F
:104D1000E5D001002DE9F041374B384C1D7D88B0BE
:104D200080462846FFF796FF60B96F4642462946FF
:104D3000384618F050F997E807000C2606FB0546A0
:104D400086E807000C236B43E218E05C6E0905F06F
:104D50001F0700283BD0B8F1FF3F10D0D2F808E081
:104D60002748284A4FF4004C00210023EEFB0C0199
:104D7000FBF7B6F90121A8EB000016F04BFD15F08A
:104D800085F90120FFF702FFBFF35B8F1E4B012265
:104D9000BA4003EB860353E8001F114343E80010B9
:104DA0000028F8D1BFF35B8F0C2303FB054494E884
:104DB000070005AB83E80700144A1AB193E807001F
:104DC00018F07DF9FFF762FF15F094FE0120104AFC
:104DD000BFF35B8F0123BB40DB4302EB860656E843
:104DE000002F1A4046E800210029F8D1BFF35B8F5D
:104DF00008B0BDE8F08100BFD82C002010300020A2
:104E00003F420F0040420F000C300020BFD0010095
:104E10001C300020014910220A60704710ED00E0AC
:104E200072B6404080F31188BFF36F8FBFF34F8F8E
:104E300030BF62B6BFF36F8F704700BF72B6494094
:104E400081F3118820BF80F3118862B6704700BFDC
:104E500073B506460C4601B3134B144D1448ED1AB6
:104E6000ED08AD0145F00105ADF80050D1E9012391
:104E7000096817F003FEADF80050D4E90423E16897
:104E80000C4817F0FBFDE1690B482A4617F0C9FDF5
:104E9000A1690A482A4617F0C4FD2146304602B0EF
:104EA000BDE8704013F0CAB9F4DA010004DC010077
:104EB00029F3010058F3010087F3010096F3010084
:104EC00043B2002B08DB012200F01F0002FA00F0C1
:104ED0005B09024A42F82300704700BF00E100E08E
:104EE00043B2002B0DDB01225B0900F01F0002FA28
:104EF00000F02033034A42F82300BFF34F8FBFF383
:104F00006F8F704700E100E0054B420900F01F0081
:104F100053F82220012303FA00F01040704700BF2D
:104F200000E100E070B54C1C072C05460E460FD979
:104F3000114A12491248592317F045FB11483146CE
:104F400007232A4617F03FFB0B48592117F025FD90
:104F50006BB2002BACBF03F160430B4B4FEA441420
:104F6000B8BF05F00F05E4B2AABF03F561435C5575
:104F700083F8004370BD00BFC4F30100FAF30100E1
:104F800082EC010015F4010014ED00E008B572B6E2
:104F9000044BDA691AB10022DA6118F036FB62B606
:104FA00008BD00BFD82C002030BFFFF7FDBF00BFF9
:104FB0000F4A08B50F4B22F07F029A60BFF34F8F64
:104FC000BFF36F8FD3F8882022F47002C3F88820D3
:104FD000EFF3148323F0040383F31488BFF36F8F7C
:104FE00013F0F2F916F052FA00F082FB13F0F6F922
:104FF0000000000000ED00E00A4A0B4993680968D0
:10500000C3F8B8100949C3F8B4004B6843F08053A3
:105010004B60002383F31188BFF36F8F9368D3F83D
:10502000B8007047D82C0020A4EB010000ED00E090
:1050300001B518F0D7FABDE8014016498A684FF06B
:1050400038001044EFF3098C80E8F01F202080F333
:105050001288BFF36F8F104F4FF000660A6A8A60A4
:105060003E60D2F8B4000023C2F8B43080F3118857
:1050700004B5104600F084FBBDE8044002F138009E
:1050800090E8F01F8CF3098801B513F017FFBDE815
:1050900001407047D82C002004ED00E01EF0040F02
:1050A0000CBFEFF30880EFF30980816911F8021C4F
:1050B0000229FFD001B517F093FF01BD42F8203C53
:1050C000009B42F81C3C0A49019B42F8183C029B99
:1050D00042F8143C21F001014FF0807342F8043C87
:1050E00042F8081C0023203A8265C0F8B4307047AB
:1050F000A3C601000A4A0346906878B113F1160F5F
:10510000D0F8A40005D0A0F120029A4205D883422D
:1051100003D2814228BF002070470020704700BFA3
:10512000D82C002008B50B4B044698600E46154657
:1051300013F0C4FE204600F023FB284686F30988BE
:10514000002163B681F31188BFF36F8F0022002323
:1051500017F0A7FAD82C002001B572B60B4AD06917
:1051600000281EBF0021D16118F04FFA62B6EFF39C
:105170000580A0F110004FEAC0000549014409C9AB
:105180009847BDE80140034908470000D82C00209B
:10519000BCD9010099510000044B9968186A8842F3
:1051A00003D003494FF080520A607047D82C00208A
:1051B00004ED00E02DE9F0473F4B404C404DE41A30
:1051C000E408A40144F00109074688463D484946E1
:1051D000164617F019FCAB6ADB0603D53A48494678
:1051E00017F012FCAB6A180704D5384844F00101E7
:1051F00017F00AFC324DAB6A990724D46FF01509F9
:105200002F4DAB6ADB0704D5314844F0010117F09C
:10521000FBFBAB6A9D0604D52E4844F0010117F054
:10522000F3FB274DAB6AD80625D4AB6A990722D485
:105230000024234A936A43F0FF03936200233370F0
:105240002046BDE8F08744F0010A2348514617F094
:10525000DBFBD5F83490AB6A1A06CFD51F4852460F
:10526000494617F0DEFBB8F1000FC9D0AB6A23F056
:105270008003AB62C4E76B681A05D9D53946484646
:10528000FFF738FF044618B180F309880224D0E7FD
:10529000AB6ADB06CCD5124A1249134840F24913D7
:1052A00017F091F9114817F08EF90D4840F24911A5
:1052B00017F073FBBDE700BFF4DA010004DC010066
:1052C00000ED00E055F401006BF401009EF40100D4
:1052D000DFF40100FEF40100B1F40100C9F40100A3
:1052E0002DF5010067F5010082EC0100B1F5010028
:1052F00070B5234B234C244D2448E41AE408A40140
:1053000044F00106314617F07FFBAB6A9B0103D5E1
:105310001F48314617F078FBAB6ADD0104D51D4804
:1053200044F0010117F070FB174DAB6A180304D568
:10533000194844F0010117F067FBAB6A590304D523
:10534000164844F0010117F05FFB0F4DAB6A9A035A
:1053500004D5134844F0010117F056FBAB6ADB0398
:1053600004D5104844F0010117F04EFB064A936A39
:105370006FEA03436FEA13439362002070BD00BFDE
:10538000F4DA010004DC010000ED00E0D4F50100D6
:10539000ECF50100FFF5010019F6010037F60100F8
:1053A0005CF6010076F601002DE9F0412A4B2B4C0A
:1053B0002B4DE41AE408A40144F0010807460E4608
:1053C0002848414617F020FBAB6AD90403D526488C
:1053D000414617F019FBAB6A1A0504D5234844F07F
:1053E000010117F011FB1E4DAB6A9B0512D544F06D
:1053F00001081F48414617F007FBA96BAB6A180468
:1054000008D51C48424617F00CFB1FB1AB6A23F4C9
:105410000043AB62124DAB6A590504D5164844F0FF
:10542000010117F0F1FAAB6ADA050DD5134844F023
:10543000010117F0E9FA0A4A936A002043F47F4316
:1054400093623070BDE8F081AB6A9B04F3D50C48E1
:1054500044F00101EDE700BFF4DA010004DC0100D3
:1054600000ED00E0A1F60100B7F601009EF4010096
:10547000C8F60100E1F60100F6F6010011F701009F
:10548000FEF401002DE9F0437C4B5E688BB00D46C5
:10549000C6F30804002787F31188BFF36F8F02F06B
:1054A0007F43B3F17F4F0DD102F00C03082B1AD1CB
:1054B0007349744B7448C91AC908890141F0010144
:1054C00017F0A2FA714A7249724840F2F23317F0AB
:1054D0007AF8714817F077F86C4840F2F23117F01B
:1054E0005CFA002505E012075CBF05460127002D88
:1054F000E8D000238DF80730E31E092B00F2A580C9
:10550000DFE803F005929672A3A3A3A3A39A5D4AD2
:105510005B4EDFF868816148B61AF608B60146F0BE
:105520000106314617F070FAD8F82C404FF0000908
:1055300014F002048DF8079005D05948314617F051
:1055400063FA002407E0D8F82C30002B1EDA554807
:10555000314617F059FA9DF80730A3B920222946A1
:1055600002A817F095FD099B002F00F08280C3F37D
:10557000080222B96FEA53236FEA4323099302A971
:105580002046FFF765FC0BB0BDE8F083D8F82C305F
:105590005B003CD54448314617F036FAAB6933F826
:1055A000022C4DF602739A4206D129683F483246D2
:1055B00017F037FA2C68CEE798F828303BB10DF198
:1055C000070201212846FFF7F5FD0446C3E798F8D6
:1055D00029302BB10DF107010120FFF7E5FEF4E7BB
:1055E000B8F82A309BB213B1FFF782FEEDE73049DD
:1055F000264A284840F2C32316F0E5FF2D4816F04E
:10560000E2FF40F2C321214817F0C7F9A3E7284978
:105610001E4A204840F2C72316F0D5FF264816F050
:10562000D2FF40F2C721EEE70DF107020021C9E7E2
:105630000DF107010020D0E71149124B1F48C91A8C
:10564000C908890141F0010179E70E4A0C4B1C4859
:105650001C499B1ADB0816F4F87F4FEA831318BF26
:10566000014643F001031848A4F1100217F0EDF9C8
:1056700067E723F4FF7323F001037FE700ED00E009
:1056800004DC0100F4DA010029F701002DF5010026
:1056900054F7010082EC010067F70100A5F7010053
:1056A000BCF70100DDF70100EBF701000AF801008B
:1056B0003C08020026F801004AF801007AF80100CF
:1056C000B3F801009EF80100CCF80100024A5369CA
:1056D00043F010035361704700ED00E0EFF30880E2
:1056E000EFF3098101B57246FFF7CCFE01BD00BFA3
:1056F000044800232021C2180133272B82F800130D
:10570000F9D1704700E100E018F0EAF8202080F3BA
:1057100011880B484FF0AA014FF4026217F0C3FC46
:1057200007484FF40261401880F30988EFF31480B2
:105730000221084380F31488BFF36F8FFFF738FC12
:1057400000860020064B9B68834207D1EFF3058358
:1057500023B1044A536843F08053536015F086BC6C
:10576000D82C002000ED00E0024B034A0348012141
:1057700000F08EB80000012000000020BCDC010019
:10578000D0F8A420054B203A1A60054A2021C3E92D
:1057900001121846012100F0A3B800BF20300020FC
:1057A00000000B15F8B52A4F0E460021B14214DA5D
:1057B0004468002C48D0C3B104F1FF3C14EA0C0F3C
:1057C0000DD0244A244B2548D21AD208920142F027
:1057D000010217F026F96FF015021046F8BD1F2CD4
:1057E000EFD905681CEA050FEBD1202CD5B2D0F813
:1057F00008C0026816D9B4F1004F15D8013CB4FABC
:1058000084F4C4F11F046400072D4CEA04040DD98C
:10581000104A114B1248D21AD208920142F00102EA
:105820002946D6E70824EFE73E24EDE722F01F02E1
:105830002A4342F0100244F00104C7F89850C7F818
:105840009C20C7F8A0406A1C01310C30AEE700BFB5
:1058500000ED00E0F4DB0100F4DA0100E3F8010000
:1058600006F90100044B0522C3F89420BFF34F8FC3
:10587000BFF36F8F704700BF00ED00E0BFF35F8F95
:10588000024B0022C3F89420704700BF00ED00E0F7
:1058900038B50E4D01232A780C46FFF783FF287098
:1058A000163011D140F21113094A0A490A4816F07C
:1058B0008AFE2146094816F086FEBDE838400448B5
:1058C00040F2111117F069B838BD00BFD85F002051
:1058D0002CF901003C08020082EC010063F9010090
:1058E00010B5134A002312780C46FFF75BFF10F146
:1058F000160F0AD00F4B0022072800DD10BDC3F899
:105900009800C3F8A0200130F6E70B4A0B490C4879
:105910004FF4987316F057FE21460A4816F053FECE
:10592000BDE8104004484FF4987117F036B800BF36
:10593000D85F002000ED00E02CF901003C080200D7
:1059400082EC01008FF90100274910B50C68082C82
:1059500013D94FF4A473254A2549264816F033FE7F
:1059600025480822214616F02EFE20484FF4A47147
:1059700017F013F84FF0FF3010BDFFF77FFF4868B6
:105980001E490022944200F10C001AD11C4B1C70DD
:10599000FFF768FFD1F89030C3F30723082B0ED030
:1059A0001849124A13484FF4D47316F00CFE1648E7
:1059B00016F009FE0D484FF4D47116F0EEFF0020EA
:1059C000DAE7C1F8982050F80C3C23F01F0313438A
:1059D00043F01003C1F89C3050F8043C43F001033D
:1059E000C1F8A0300132CDE7C8DC01002CF901007C
:1059F0003C08020082EC0100BCF9010000ED00E06F
:105A0000D85F0020F0F9010040FA0100014B186056
:105A1000704700BF180000204FF02003EFF3118201
:105A200083F31288BFF36F8F06490123C1F8403515
:105A30004FF08041C1F8783582F31188BFF36F8F42
:105A40000020704700E0014020B1034B800143F08B
:105A500001031847704700BF60DC0100074A034696
:105A6000106828B9D96831B1196921B1136070473C
:105A70006FF0770070476FF0150070472C300020F2
:105A8000052870B5054605D8012606FA00F111F083
:105A90002A0F0DD10C4B0D4A0D48D21AD208920193
:105AA00042F00102294616F0BCFF0024204670BDDA
:105AB000084817F0AFFB04460028F7D031460830FD
:105AC0000FF048FF2575F1E7F4DA0100CCDB0100A7
:105AD0007BFA0100480900202DE9F0410228DDE9A8
